:020000040800F2
:10000000881D00209D010008DB5800089347000868
:10001000D95800083D090008B17E00080000000022
:10002000000000000000000000000000D97200087D
:10003000850E0008000000001D5A0008BD7300086E
:10004000B7010008B7010008B7010008B7010008B0
:10005000B7010008B7010008870E0008B7010008C3
:10006000B70100088D0E0008930E0008B7010008C4
:10007000E9090008B7010008B7010008B701000846
:10008000B7010008B7010008B70100088D09000892
:1000900081090008B7010008B7010008990E00089F
:1000A000B7010008B7010008B7010008B701000850
:1000B000B70100089D740008B7010008B7010008E7
:1000C000B7010008B7010008B7010008B701000830
:1000D000B7010008817C0008457D0008517D0008BB
:1000E000B7010008B7010008B7010008B701000810
:1000F000B7010008B7010008B7010008B701000800
:10010000B7010008B7010008B7010008B7010008EF
:10011000B7010008B7010008B7010008B7010008DF
:10012000B7010008F5090008010A0008D50C00080D
:10013000B7010008B7010008B7010008B7010008BF
:1001400099090008B7010008B7010008B7010008C5
:10015000E10C0008ED0C0008F90C00081D7E0008F9
:10016000B7010008B7010008B7010008B70100088F
:10017000B7010008B7010008B7010008000000003F
:10018000B7010008B7010008DFF80CD000F0A0F9B3
:100190000048004755980008881D00200648804701
:1001A00006480047FEE7FEE7FEE7FEE7FEE7FEE75C
:1001B000FEE7FEE7FEE7FEE7457400088901000858
:1001C0002DE9F05F0546002092469B46884606468C
:1001D000814640241BE0284641464746224600F01F
:1001E00082F853465A46C01A914110D31146184618
:1001F000224600F069F82D1A67EB01084F462246A7
:100200000120002100F060F817EB00094E41201E8C
:10021000A4F10104DFDC484631462A464346BDE8E6
:10022000F09F40EA01039B0703D009E008C9121FB1
:1002300008C0042AFAD203E011F8013B00F8013BA0
:10024000521EF9D27047D2B201E000F8012B491ECC
:10025000FBD270470022F6E710B513460A46044663
:100260001946FFF7F0FF204610BD00F0004230F0C5
:1002700000400AD0C10D01F56071C0F3160042EADA
:100280000151C208400711437047002001467047E2
:1002900001F0004330B421F0004150EA010206D0E1
:1002A0000A0DA2F56072C1F31301002A02DC30BC12
:1002B00000207047440F44EAC104C100E01830BC7C
:1002C00000EBC25000F01FB8202A04DB203A00FAED
:1002D00002F1002070479140C2F1200320FA03F39D
:1002E000194390407047202A04DB203A21FA02F09B
:1002F0000021704721FA02F3D040C2F12002914060
:100300000843194670470029A8BF7047401C4900A0
:1003100008BF20F00100704710B4B0FA80FC00FA6A
:100320000CF050EA010404BF10BC704749B1CCF195
:10033000200421FA04F411FA0CF118BF0121214321
:100340000843A3EB0C01CB1D4FEA00614FEA1020DC
:1003500042BF002010BC704700EBC350104400297E
:10036000A4BF10BC7047401C490008BF20F001002A
:1003700010BC704710B5141E73F1000408DA401C5D
:1003800041F1000192185B411A4301D120F00100B4
:1003900010BD2DE9F04D92469B4611B1B1FA81F2A4
:1003A00002E0B0FA80F220329046FFF78DFF04465B
:1003B0000F4640EA0A0041EA0B0153465A460843F9
:1003C00013D0114653EA010019D0C8F1400250463B
:1003D000FFF789FF05460E46504659464246FFF74D
:1003E00073FF084305D0012004E020463946BDE8EC
:1003F000F08D0020054346EAE0762C4337430A9807
:100400006305E40AA0EB08000022FD0A44EA475411
:100410000A3002D500200146E9E7010510196941BB
:10042000DDE9084500196941BDE8F04DA2E72DE975
:10043000F04D00231A461B1A8A4103DB00200146B7
:10044000BDE8F08DC1F30A52C1F3130141F48015E8
:100450004FF0000BD10702D100186D41521E00274A
:10046000044640F2FF11384601EB620A3E468046E0
:10047000024600204FF48011FFF735FFC219714189
:10048000BB1846EB0100B4EB030C75EB000C04D376
:10049000E41A65EB000517460E46241908F1010021
:1004A0006D4180463428E3DDF91946EB0600091B4F
:1004B000A84103D24FF0FF32134601E00022134659
:1004C0001BEB070046EB0A51BDE8F04DFFF752BFAA
:1004D000064C074D06E0E06840F0010394E8070091
:1004E00098471034AC42F6D3FFF752FEE0A600085E
:1004F00000A7000870B58C1810F8015B15F0070311
:1005000001D110F8013B2A1106D110F8012B03E0AC
:1005100010F8016B01F8016B5B1EF9D12B0705D4B4
:100520000023521E0DD401F8013BFAE710F8013BFD
:10053000CB1A921C03E013F8015B01F8015B521E19
:10054000F9D5A142D8D3002070BD0000B7EE000A53
:1005500080ED000A9FED040A80ED010A80ED020A99
:1005600080ED030A70470000000000009FED053A8F
:10057000D2EC031AB0EE434AF0EE433A91EC030A90
:1005800004F00EBF0000000001221021014802F01B
:10059000A5B800000000024000221021014802F02E
:1005A0009DB8000000000240704700000122114683
:1005B000014802F093B8000000040240002201212B
:1005C000014802F08BB800000004024030B54378C7
:1005D00004781B021BB2234300EE103A194CB8EE0C
:1005E000C00AD4ED000A20EE200A81ED000AC3788B
:1005F00085781B021BB22B4300EE103AD4ED000AA3
:10060000B8EEC00A20EE200A81ED010A4379047990
:100610001B021BB2234300EE103AB8EEC00A20EED4
:10062000200ADFED090A81ED020AD0F8060020F069
:100630007F4000EE100AB8EE400A20EE200A82ED5C
:10064000000A30BDFC02002000401C42704708F048
:10065000E9BB08F001BC000010B542780378120233
:1006600012B21A4300EE102A124BB8EEC00AD3EDB4
:10067000010A20EE200A81ED000AC2788478120275
:1006800012B2224300EE102AD3ED010AB8EEC00ADE
:1006900020EE200A81ED010A42790079120212B29D
:1006A000024300EE102AB8EEC00A20EE200A81EDC7
:1006B000020A10BDFC02002010B5FFF775FFFFF71E
:1006C000C5FF07F0FBFF08B1802402E007F062FFDE
:1006D000044608F0C1F910B144F0400010BD08F024
:1006E0004DF9204310BD00002DE9FC4107460020D4
:1006F00016460D4600900190FFF74EFF922000F045
:10070000BDF806226946122000F09AF8FFF73CFF78
:100710009DF801009DF80010000200B2084300EEB1
:10072000100A464CB8EEC00AD4ED000A20EE200AAA
:1007300085ED000A9DF803009DF80210000200B24A
:10074000084300EE100AD4ED000AB8EEC00A20EE0D
:10075000200A85ED010A9DF805009DF804100002AD
:1007600000B2084300EE100AB8EEC00A20EE200ADC
:1007700085ED020AFFF722FF08226946002000F0FB
:100780005FF8FFF713FF9DF800000F2830D19DF8A8
:1007900003009DF80210000200B2084300EE100AA8
:1007A000D4ED010AB8EEC00A20EE200A87ED000A57
:1007B0009DF805009DF80410000200B2084300EE09
:1007C000100AD4ED010AB8EEC00A20EE200A87ED27
:1007D000010A9DF807009DF80610000200B20843C8
:1007E00000EE100AB8EEC00A20EE200A87ED020AD9
:1007F000FFF7D2FEA22000F041F802226946222033
:1008000000F01EF8FFF7C0FE9DF800009DF80110F3
:10081000C00040EA5110B0F5806F01DBA0F5006028
:1008200000EE100AB4EE001AF8EEC00AB3EE070AA2
:1008300000EE810A86ED000ABDE8FC81FC02002082
:1008400070B514460D4640F0800000F017F806E041
:10085000552000F013F8641E05F8010BE4B2002CDB
:10086000F6D170BD10B50C4640F0800000F006F8DF
:10087000552000F003F8207010BD000001B582B0D3
:100880004FF47A700090012301AA02A9024802F0F5
:100890009FFE9DF804000EBDE4030020027840781E
:1008A000D20042EA5010B0F5806F01DBA0F5006085
:1008B00000EE100AB4EE001AF8EEC00AB3EE070A12
:1008C00000EE810A81ED000A704710B50C46FFF773
:1008D000D5FF2046BDE81040FFF7D0BF10B58AB065
:1008E000002001210090019002900390CDE90510B5
:1008F00004900E2008910791099069460D4800F078
:10090000B3FE0F20059069460B4800F0ADFE04468B
:10091000084801F04EFB084801F04BFB0221054856
:1009200000F00EFE0221044800F00AFE0AB0204644
:1009300010BD00004003002068030020FEE7000017
:1009400070B50E4C0646002060600D46304605F03E
:1009500011F92946304605F063F82946304605F07E
:10096000C5F82946304606F0EBFC6068002803D144
:10097000BDE8704008F0D6B870BD0000B402002099
:10098000014800F0BCBF000040030020014800F017
:10099000B6BF000040030020014800F0B0BF0000D7
:1009A0006803002010B58AB00023079309248DF84E
:1009B0001C0001948DF81D1000930824CDE9043427
:1009C0008DF81E2003938DF818308DF81F30089392
:1009D0006B4607AA01A9034800F0C4FD00980AB0BD
:1009E000C0B210BD68030020014801F07FBB0000C9
:1009F000EC070020014801F079BB00004C08002002
:100A00002DE9F05FAB48AC4BAC4CC06CAA4DAB4E83
:100A1000A94F0068A849DFF8A492DFF89CA2DFF88C
:100A20009CB2DFF894E2A54A483B6034183518368A
:100A3000303F09F178090AF1300A4FF4006C0BF1EC
:100A4000300BAEF1180E884223D99B49543926E069
:100A5000A84233D14FF020080AE0504535D1E04696
:100A600006E000BF4FF4001802E000BF4FF000683E
:100A700011EA080F7CD09049884253D9904205D0A2
:100A8000984203D0A04201D0A8422FD14FF0200CB1
:100A900045E08A49A831884203D98749583909680D
:100AA00005E08649483188428549F8D9496890422D
:100AB000D0D09842CED0A042CCD0C9E7B042CED060
:100AC000B842CCD04845CAD0C7E75845CAD07045CF
:100AD000C8D0DFF8E88108F190084045C2D0DFF8BF
:100AE000D88108F148084045C0D1BBE7B04216D0D4
:100AF000B84214D0484512D0504510D0584509D0BE
:100B0000704507D06D499031884203D06A49483119
:100B1000884202D14FF4001C01E04FF0006C66489F
:100B20004C382AE06549A831884229D9904205D03D
:100B3000984203D0A04201D0A84202D14FF0200C2D
:100B400019E0B04217D0B84215D0484513D05045EF
:100B500011D0584509D0704507D058499031884286
:100B600003D055494831884203D14FF4001C02E0BC
:100B70009DE04FF0006C50485038C0F800C052E083
:100B80004E494831884227D9904205D0984203D037
:100B9000A04201D0A84202D14FF0200C18E0B04290
:100BA00016D0B84214D0484512D0504510D0584500
:100BB00009D0704507D041499031884203D03E4961
:100BC0004831884202D14FF4001C01E04FF0006C24
:100BD0003B48C0F80CC026E0904205D0984203D0B4
:100BE000A04201D0A84202D14FF0200C18E0B04240
:100BF00016D0B84214D0484512D0504510D05845B0
:100C000009D0704507D02D499031884203D02A4938
:100C10004831884202D14FF4001C01E04FF0006CD3
:100C20002748C0F808C0274C207880070CD52078CA
:100C300020F002002070207840F004002070012293
:100C40001146214801F04AFD6078204D80070CD5FF
:100C5000607820F002006070607840F004006070FE
:100C600001221021284601F039FDA07880070CD51B
:100C7000A07820F00200A070A07840F00400A070DE
:100C800001221021284601F029FD08F093FA20786E
:100C900040070CD5207820F004002070207840F028
:100CA000080020700A48016841F001010160BDE8B8
:100CB000F09F0000E40300205864024010600240EE
:100CC00000600240380000200004024000000240A2
:100CD000103C0140014801F009BA00009C040020CA
:100CE000014801F003BA00002C070020014801F080
:100CF000FDB90000AC080020014801F0F7B9000080
:100D00008C07002001680A4BCAB2103AA3FB0232DA
:100D10001209084B9B5CC365032A04D96FF30901D0
:100D2000091D816502E06FF309018165806D7047DF
:100D3000ABAAAAAABEA00008014600208A6A8B6955
:100D4000002B0FD0B3F5005F1DD08AB3012A30D03D
:100D5000022A2ED0032A04D1C96A11F0807F00D064
:100D6000012070471AB1012A07D0022AF9D1C96AB5
:100D700011F0807FF5D001207047C96AB1F1C07FC2
:100D8000FAD1012070475AB1012A0BD0022A07D0AC
:100D9000032AF7D1C96AB1F1C07FF3D101207047AE
:100DA00001207047C96A11F0807FFAD00120704796
:100DB000FFE701207047000070B51E48DFED1E0AF6
:100DC0001E4C90ED630A1E48002120EE200A2A26C0
:100DD000BDEEC00A10EE102AE26090ED630A1948D9
:100DE00020EE200ABDEEC00A10EE103A2361A16188
:100DF0006578E5610670160A867042701A0A0271FB
:100E0000C370A28A130A837142710172C1712A0AE6
:100E1000827245720B228154521C0D2AFBDB3B214E
:100E20004173FF230E220749074803F04CFCE07092
:100E300070BD0000281400200000C842D40000202B
:100E4000E0150020E80B00201C06002010B4D0F8AC
:100E500000C0DCF8004024F48024CCF80040D0F836
:100E600000C0CCF804308368402B05D0036899603B
:100E70000068C26010BC704703689A600068C16077
:100E800010BC70477047012001F006BB082001F03C
:100E900003BB102001F000BB202001F0FDBA704719
:100EA00070B54448444C454D2DED028BB0F90C0013
:100EB00000EE100AB8EEC00A84ED670AD4ED630AAA
:100EC000C4ED640A95ED001ADFED3D8A9FED3D8A81
:100ED0003D4981EE280A20EE080A84ED630A70EE8F
:100EE000600A10EE900A884204DDD4F89801401E92
:100EF000C4F8980110EE900A3449884204D9D4F815
:100F00009801401CC4F89801D4ED660A304EF8EE02
:100F1000E00A00EE880A84ED650A96ED020A84ED87
:100F2000620A07F0B3FF10EE100A2A49884203DA7A
:100F30009FED290A84ED620A28480168284811B10A
:100F4000012910D023E027499FED271AD1ED020A8D
:100F500080EE810A20EE080A80ED680AB1F90C10D3
:100F600000EE101A0FE021499FED211A0A7800EED9
:100F7000102AF8EE400A80EE810A20EE080A80ED81
:100F8000680A91ED010AB8EEC00A80ED670A95ED96
:100F9000010AC0EE280A20EE880ADFED160A80ED6D
:100FA000630A96ED000A30EEC00A80ED620ABDECDD
:100FB000028B70BD0C090020281400200C0B0020AF
:100FC000D00FC9400000B44300003443000034C3D4
:100FD000D80A00200AD7233C00000000B0020020FD
:100FE000E01500202009002000F8FF45201900200E
:100FF00000FC7F4664C3E43B2DE9F041464C484881
:10100000464DA168002200F5DC7349B190ED690AF4
:1010100080ED5F0A9FED430A83ED5F0A2A60A260BC
:101020003F49E668B427D1F8AC11794386B100EEA8
:10103000101A01262E60B8EEC00AD0ED630A30EE19
:10104000600A80ED5F0A9FED380A83ED5F0AE26077
:1010500000EE901A90ED5F0A84ED050AF8EEE00AC2
:1010600090ED651A70EEC10AC4ED070A90ED621AA0
:10107000B1EE411A84ED091A93ED5F1A84ED061A58
:1010800093ED631A84ED081A93ED621A84ED0A1A3F
:10109000606850B1254804F00FFDBDE8F0412048DC
:1010A00006F0F2BF30EE410A02E021499FED211A1D
:1010B000F0EE601A70EE611A11EE900A8842F1DCCF
:1010C00084ED050A1C4901E030EE010AF0EE601AD9
:1010D00070EE611A11EE900A8842F5D8104D84ED39
:1010E000050A05F14C0004F0F9FB95ED1C0A05F129
:1010F000980085ED610AD4ED090A04F0EFFB95ED47
:101100002F0A0A48BDEEC00A10EE101AA5F8B41155
:10111000BDE8F04104F0E0BC08010020000100201F
:101120002814002000182B4600000000E0150020C5
:10113000000034430000B443000034C310B506F08F
:10114000B9FE1B481B49027801F5DC70012A06D064
:1011500091ED6A0A81ED5F0A90ED6A0A25E0164A70
:101160005268A2B1D1ED6A0AB1EE081A80EE810A86
:10117000D1ED5F0A9FED111A30EE200A81ED5F0A72
:1011800090ED5F0AD0ED6A0A00EE810A0DE091ED64
:101190005F0AD1ED6A0A30EE200A81ED5F0A90ED18
:1011A0005F0AD0ED6A0A30EE200A80ED5F0A10BDBA
:1011B00044020020281400200801002000001643EB
:1011C00030B512480178002919D0114D0024114A78
:1011D000012002F5DC732C6005290BD002240229C2
:1011E00011D0032903D004290DD0012907D182F899
:1011F000B60105E0286082F8B64183F8B64130BDFB
:1012000083F8B60130BD82F8B641F9E70801002045
:10121000C802002028140020044910B59A20087044
:1012200007F0B0FC02490020086110BD2500002035
:1012300020190020054994200870012000220A543A
:10124000401C0828FBDB07F09DBC000025000020A7
:101250002DE9F041294CD4E90123934240DD00EB14
:101260004002C2EBC01001EBC00560690127C8B3A2
:10127000E068002800DC256120694FF47A68281AAC
:10128000404528DA1E489FED1F1A204ED0ED010A76
:101290001F4880EE810ADFED1C0A9FED1E1A60EEEA
:1012A000200AC6ED630A90ED000A06F14C0031EE0B
:1012B000400A86ED620A86F8B6719FED170A04F0BF
:1012C0000DFB96ED1C0AB1EE400ABDEEC00A10EE11
:1012D000100A06F003F82069281A404506D1276055
:1012E000BDE8F081FFE7C4E90457F9E74045F7DDC1
:1012F000002060616068401C6060F1E7CC02002063
:101300000C0B0020D00FC9400000B443E0150020B2
:10131000D80A002064C3E43B0000000010B506F0CA
:101320001FFE1B4802219FED1B0A01701A48002274
:10133000DFED1A0A80ED630A80ED620A80ED680A2B
:1013400080ED670A80ED5F0A80ED610A80ED6A0A30
:10135000A0F8B421C0ED600ACB1EC0F8B03180F80F
:10136000B61100F5DC70012180ED630A80ED620AA0
:1013700080ED670A80ED680A80ED5F0A80ED610A02
:1013800080ED6A0AA0F8B42180F8B61110BD000003
:101390000801002000000000281400200000844202
:1013A00070B504460D468807584905D1086810F104
:1013B000050F01DD401E08600868052801DD0520D5
:1013C0000860FFF737FF002142F6F820491C8142F0
:1013D000FCDB4F484F4900680A680721904204D15E
:1013E00095FBF1F301FB13536BB190427DDD95FB4F
:1013F000F1F001FB1050002877D129462046BDE8C6
:101400007040FFF725BF444C0126206910B1012828
:1014100005D007E06068012804D1A66002E060689A
:1014200000B9E66060682061072D01D1FFF7F4FE86
:101430003A480660FFF734FDFFF7C2FEFFF77EFE75
:10144000FFF7DAFD384D6068354A00283549D5F890
:101450008C010AD0904201D2884201DB00206060FA
:10146000206958B301282ED030E09FED300A904219
:1014700010D3DFED2F0AC5ED5F0A85ED610AD5EDCA
:101480001C0AF5EEC00AF1EE10FA03DDDFED290AC1
:10149000C5ED1C0A88421BDBF3EE060AC5ED5F0AA8
:1014A00085ED610A95ED1C0AB5EEC00AF1EE10FA61
:1014B0000ED29FED210A85ED1C0A09E06068012823
:1014C00004D1A66002E0606800B9E660606820614F
:1014D0002078052819D019486168B0F9B40169B1BC
:1014E00007F0C6FB95ED420A00E00EE0BDEEC00A33
:1014F000BDE8704010EE100A05F0F0BE07F0B8FB32
:1015000095ED1C0AB1EE400AEEE770BDD80200204E
:10151000D4020020D002002008010020B0020020E8
:10152000000004C20000B041E015002000000000EF
:10153000000004C20000C8420000C8C228140020F5
:1015400090F82020012A07D0022A05D0416A41F4F0
:101550008021416201207047006842691143416166
:101560000020704770B490F82040D0F800C0DCF83C
:1015700008C0012C08D0022C06D0416A41F4802119
:10158000416270BC012070470CF080640CF0006573
:101590002C4302D11CF0805F5FD0CCF3016CBCF116
:1015A000020F06D9416A41F40001416270BC01207A
:1015B0007047012404FA0CF41C608B684FF4C0746B
:1015C0009BB1CD6804EB0C162B434D6843EAC50371
:1015D0000568AB514FF4C273066803EB0C130D6939
:1015E000F550097D012909D00DE00D88CB6804EB89
:1015F0000C1643EA45530568AB51EBE70168CD583B
:1016000045F48075CD501179D379557941EA03615C
:1016100093791B0443EA052319434FF4C675036805
:1016200005EB0C1559511178D37841EA0361937891
:1016300052781B0443EA022211434FF4C473026838
:1016400003EB0C13D150016804EB0C100A5842F064
:1016500001020A5070BC00207047416A41F4001139
:10166000416270BC0120704790F82020012A07D009
:10167000022A05D0416A41F480214162012070476D
:101680004248D0F8002242F00102C0F80022D0F80F
:10169000002222F47C52C0F80022D0F800224B6ACB
:1016A00042EA0322C0F800220A7D012302F01F0251
:1016B00003FA02F2D0F81C329343C0F81C32CB6913
:1016C000D3B9D0F80C329343C0F80C32B1F80CC047
:1016D0004B686CF31F43D1F814C000EBCC0CCCF872
:1016E0004032B1F808C00B686CF31F43D1F814C046
:1016F00000EBCC0CCCF84432CB69012B1AD1D0F8DA
:101700000C321343C0F80C32B1F800C04B686CF3D4
:101710001F43D1F814C000EBCC0CCCF84032B1F828
:1017200008C0CB686CF31F43D1F814C000EBCC0C9D
:10173000CCF844328B697BB1D0F804321343C0F843
:1017400004320B6973B1D0F814321343C0F8143269
:10175000096A01290CD010E0D0F804329343C0F894
:101760000432EEE7D0F814329343C0F81432EFE7B6
:10177000D0F81C121143C0F81C12D0F8001221F04E
:101780000101C0F800120020704700000064004012
:10179000704710B490F820C0BCF1010F09D0BCF123
:1017A000020F06D0416A41F48021416210BC012041
:1017B000704739B1D0F800C0DCF810C01CF0030F3E
:1017C0007DD006E0D0F800C0DCF80CC01CF0030FA0
:1017D0007BD04FF4D87C04680CEB011C54F80C400F
:1017E00004F004049460002C7DD0046854F80C408C
:1017F000E4085460046854F80CC00CF0020CC2F801
:101800000CC04FF4DA7C04680CEB011C54F80C405B
:1018100004F00F041461046854F80C40C4F3072466
:101820009461046854F80CC04FEA1C4CC2F814C010
:101830004FF4DC72D0F800C002EB01125CF802C079
:1018400083F800C0D0F800C05CF802C04FEA1C2C3E
:1018500083F801C0D0F800C05CF802C04FEA1C4C0D
:1018600083F802C0D0F800C05CF80220120EDA70D3
:101870004FF4DE72D0F800C002EB01125CF802C037
:1018800083F804C0D0F800C05CF802C04FEA1C2CFA
:1018900083F805C0D0F800C05CF802C04FEA1C4CC9
:1018A00083F806C0D0F800C05CF80220120EDA718E
:1018B000F9B10068016941F02001016102E00BE02B
:1018C00003E010E010BC00207047416A41F40011B1
:1018D000416210BC01207047416A41F4001141622D
:1018E00010BC01207047046854F80C40640D14606B
:1018F00080E70068C16841F02001C160DEE72DE9A2
:10190000F05F0546002428684669D0F8049087688F
:10191000D0F80CA0D0F810B0D0F8188016F0010F55
:1019200054D017F0010F17D00121816017F0020F7A
:1019300003D0284600F070FB0EE017F0040F02D031
:101940004FF4006408E017F0080F02D04FF4805401
:1019500002E0284600F05FFB17F4807F19D0296869
:101960004FF48070886017F4007F03D0284600F0A1
:1019700055FB0EE017F4806F02D044F4005408E0E9
:1019800017F4006F02D044F4804402E0284600F0CF
:1019900044FB17F4803F19D029684FF480308860E9
:1019A00017F4003F03D0284600F03AFB0EE017F48E
:1019B000802F02D044F4004408E017F4002F02D036
:1019C00044F4803402E0284600F029FB16F0080FAA
:1019D00007D01AF0100F04D044F4007429681020C6
:1019E000C86016F0040F4FF0080707D01AF0080F70
:1019F00004D02868C760284600F0D6F916F0020F18
:101A000007D02868C06810F0030F02D0284600F005
:101A1000CDF916F0400F07D01BF0100F04D044F49E
:101A2000806429681020086116F0200F07D01BF091
:101A3000080F04D028680761284600F0B7FA16F0AE
:101A4000100F07D02868006910F0030F02D0284655
:101A500000F0ADFA16F4003F08D019F0100F05D0D1
:101A6000296810204860284600F0A2FA16F4803F4A
:101A700007D019F0080F04D028684760284600F006
:101A8000D0FA16F4004F4AD019F0040F44D016F4DF
:101A9000807F04D018F0010F01D044F0010416F447
:101AA000007F04D018F0020F01D044F0020416F4B5
:101AB000806F04D018F0040F01D044F0040416F431
:101AC000006F29D018F0700F26D008F07000402861
:101AD00015D006DC102809D020280AD0302816D1CD
:101AE0000AE050280ED0602811D10EE044F008041E
:101AF0000DE044F010040AE044F0200407E044F054
:101B0000400404E044F0800401E044F48074286858
:101B1000816921F070018161296804204860002CEE
:101B200005D0686A204368622846FFF731FEBDE8A9
:101B3000F09F70B50446002C03D094F8200010B13B
:101B400004E0012070BD204600F0A8F8206801687C
:101B500041F00101016000F0C9FD054620684068C0
:101B60004FF0050610F0010F11D100F0BFFD401B32
:101B70000A2807D9606A40F40030606284F8206067
:101B8000012070BD2068406810F0010FEDD0206882
:101B9000016821F00201016000F0A8FD05462068FF
:101BA000406810F0020F11D000F0A0FD401B0A2881
:101BB00007D9606A40F40030606284F82060012038
:101BC00070BD2068406810F0020FEDD1207E012822
:101BD0003FD02068016821F080010160607E01280B
:101BE0003DD02068016821F040010160A07E0128FD
:101BF0003BD02068016821F020010160E07E0128CF
:101C000039D02068016841F010010160207F01286F
:101C100037D02068016821F008010160607F012849
:101C200035D02068016821F004010160E168A068F6
:101C3000626908432169114308436168491E0843EA
:101C40002168C86100206062012084F82000002023
:101C500070BD2068016841F080010160BEE7206826
:101C6000016841F040010160C0E72068016841F06F
:101C700020010160C2E72068016821F010010160C5
:101C8000C4E72068016841F008010160C6E72068E8
:101C9000016841F004010160C8E70000F0B587B0B9
:101CA000044614216846FEF7D5FA3A4B3A48DFF865
:101CB000E0E01968D4F800C0374A03250226092756
:101CC00010300024491CF4452AD11960012907D19C
:101CD000016841F000710160006800F0007005903B
:101CE000106840F0080010601068CDE9005600F060
:101CF0000800CDE9047069462848CDE9024500F0A6
:101D0000D7FB00220121132000F0E2FF132000F096
:101D1000D1FF00220121142000F0DAFF142032E06C
:101D2000DFF87CE0F44530D1D0F800C04CF0806C96
:101D3000C0F800C0D0F800C001290CF0806CCDF8CC
:101D400014C0196007D1016841F00071016000689A
:101D500000F000700590106840F0020010601068FC
:101D600002AB00F0020005906020CDE9000683E898
:101D7000B00069460B4800F09BFB00220121402087
:101D800000F0A6FF402000F095FF07B0F0BD000076
:101D9000006400400000002030380240000C024087
:101DA00000680040000402407047000070B58AB02F
:101DB0000024054607946D48089407F029FD6C48F7
:101DC00085427CD107AB6A460021FFF7E2FC00990F
:101DD000A1F58071413943D06648674AC02915D0C2
:101DE000C12928D0C4290FD1BDF8220000EE100A65
:101DF0006048B8EE400A143880ED020ABDF82010A1
:101E000081819DF81D1081730AB070BDBDF81C1052
:101E100049BA00EE101AB8EE400A80ED020ABDF889
:101E20001E1049BA09B200EE101A8181B8EEC00A3C
:101E300082ED010AE8E7BDF81C1049BA00EE101A5D
:101E4000B8EE400A80ED070ABDF81E1049BA09B283
:101E500000EE101A0184B8EEC00A82ED170AD3E72B
:101E60004649002007AA135C0B54401C0828FADBE3
:101E70009DF81C104248942905D09A29C4D19DF898
:101E80001D10C160C0E73F493F4E0A68521C0A60FE
:101E90009DF82320089962F31F61CA17C0E90A124E
:101EA000056B4D1BB54202DA8669761C8661364E9B
:101EB0007642B542856901DD6D1E856100E030E046
:101EC00040F62F56754301EB8513304D2E689B1B52
:101ED0000364C0E90C122E490A680AB12B600C6039
:101EE0002C492D4A09681268914202D12968591A71
:101EF000816390ED0E0A9FED291A2A4AF8EEC00A76
:101F000080EE810ADFED260A20EE200A10EE101A7C
:101F100080ED0F0A91428DDD30EE600A80ED0F0AF0
:101F200072E72148854285D107AB6A460021FFF759
:101F300030FC0098A0F50070093890D10D48283881
:101F400090ED020A80ED000ABDF81C1049BA09B2F2
:101F500000EE101AB8EEC00A80ED020ABDF81E109D
:101F600049BA818106F03AF84EE700007409002072
:101F70004003002034090020A81700201D00002085
:101F800020190020D8020020205AFEFFE402002081
:101F9000CC020020D4020020D002002000F05248E1
:101FA0000000B443000048436803002070477047B6
:101FB000704770B5044694F82000012805D0606A87
:101FC00040F400206062012070BD022084F82000EF
:101FD0002068016821F00101016000F087FB0546DF
:101FE0002068406810F0010F12D000F07FFB401B0A
:101FF0000A2808D9606A40F400306062052084F83D
:102000002000012070BD2068406810F0010FECD165
:102010000020606270BD704770477047704770471E
:10202000704770472DE9F0410446A66D00F05EFB55
:10203000054694F835000027022806D08020606508
:1020400084F834700120BDE8F0812068016821F037
:10205000160101602068416921F080014161206C16
:1020600008B9A06C20B12068016821F00801016066
:102070002068016821F0010101602068006810F00B
:10208000010F12D000F032FB401B052808D9202098
:102090006065032084F8350084F83470BDE8F08171
:1020A0002068006810F0010FECD194F85C003F212B
:1020B00001FA00F0B060012084F8350084F8347033
:1020C0000020BDE8F08190F83510022903D080216E
:1020D000416501207047052180F8351000680168CE
:1020E00021F0010101600020704700002DE9F84354
:1020F00004464FF00008CDF8008076484FF41651A2
:102100000068B0FBF1F7A56D2E6894F85C0008211B
:1021100001FA00F0304211D02068026812F0040F7A
:102120000CD0026822F00402026094F85C0001FA0C
:1021300000F0A860606D40F00100606594F85C00FC
:102140004FF0010909FA00F0304209D021684969CD
:1021500011F0800F04D0A860606D40F0020060654F
:1021600094F85C1004208840304209D02168096846
:1021700011F0020F04D0A860606D40F004006065AB
:1021800094F85C1010208840304224D021680968FF
:1021900011F0080F1FD0A8602068016811F4802F8B
:1021A0000DD0006810F4002F04D0A16C99B1204626
:1021B000884710E0216C71B1204688470BE0016828
:1021C00011F4807F03D1016821F008010160216CC6
:1021D00009B12046884794F85C102020884030429E
:1021E00051D02168096811F0100F4CD0A86094F804
:1021F000350005280DD02068016811F4802F32D0F9
:10220000006810F4002F29D0E16B59B320468847AD
:1022100039E02068016821F01601016020684169F9
:1022200021F080014161206C08B9A06C20B12068C8
:10223000016821F00801016094F85C003F2101FA77
:1022400000F0A86084F8359084F83480216D00296E
:102250003ED001B02046BDE8F0430847616C09B1AB
:10226000204688470FE0016811F4807F07D101689C
:1022700021F01001016084F8359084F83480E16B1E
:1022800009B120468847606D002821D0606D10F0AC
:10229000010F15D0052084F835002068016821F071
:1022A000010101600098401C0090B84204D82068E9
:1022B000006810F0010FF5D184F8359084F834806F
:1022C000E16C002904D001B02046BDE8F043084786
:1022D000BDE8F883340300202DE9F041044600F006
:1022E00005FA0546DCB1022084F83500002684F8A2
:1022F00034602068016821F00101016020680068F5
:1023000010F0010F13D000F0F1F9401B052809D996
:1023100020206065032084F83500BDE8F0810120AD
:10232000BDE8F0812068006810F0010FEBD1216852
:102330000868234A1040A3686268D4F810C01A43A2
:10234000E36843EA0C031A4363691A43A3691A4317
:10235000E3691A43236A1A431043626A042A03D1C9
:10236000236BE26A1A43104308602068406920F03A
:102370000701606A40EA0105012704280ED1A06A1E
:102380000543E06A50B12046FEF7D6FC30B140204C
:10239000606584F835700120BDE8F08120684561F2
:1023A0002046FEF7AFFC94F85C103F2202FA01F1E0
:1023B0008160666584F835700020BDE8F08100001A
:1023C0003F8010F070B504460025A66D94F83400E7
:1023D00001280DD0012084F8340094F835C0002085
:1023E000BCF1010F06D084F834000225284670BDE8
:1023F000022070BD4FF0020C84F835C060652046A5
:10240000FEF724FD94F85C003F2101FA00F0B06073
:102410002068016841F016010160206C20B120683D
:10242000016841F0080101602068016841F0010184
:102430000160DBE71649102817D020281ED0082895
:1024400025D1C87840F00100C870C87810F00100AC
:10245000C8701CD0C87820F00100C870C87840F05F
:102460000200C8700B4806F09BBF487840F001009E
:102470004870887840F00100887003E0087840F0E8
:10248000010008700879002801D006F093BE70475B
:10249000380000204C0B002010B504490A680242A5
:1024A00002D00860FFF7C6FF10BD0000143C0140D9
:1024B0002DE9F84F0022DFF818A2DFF810924FF054
:1024C000010E03274FF00F08AAF1040B0EFA02FCCD
:1024D0000B6803EA0C0363457DD10C7904F0030417
:1024E000012C01D0022C14D18568540007FA04F69F
:1024F000B543CE6806FA04F42C438460446824EAA9
:102500000C0C0C79C4F30014944044EA0C0CC0F891
:1025100004C0D1F804C037EA0C0C0CD0C4684FEAF0
:10252000420C07FA0CF5AC438D6805FA0CFC4CEA3A
:10253000040CC0F80CC091F804C00CF0030CBCF102
:10254000020F12D14FEAD20C00EB8C04256A4FEA3D
:10255000427C4FEADC6C08FA0CF6B5430E6906FAC9
:102560000CFC4CEA050CC4F820C004684FEA420C8D
:1025700007FA0CF5AC430D7905F0030505FA0CFCE0
:102580004CEA040CC0F800C0D1F804C01CF4403F71
:102590007DD0D9F800C04CF4804CC9F800C0D9F8FF
:1025A00000C00CF4804CCDF800C022F0030C0CF1FC
:1025B000804505F59835D5F808C89407240F08FA22
:1025C00004F62CEA0606A0F1804CBCF5003C64D071
:1025D000A0F1804C00E05AE0BCF5013C60D0A0F1D5
:1025E000804CBCF5023C5ED0A0F1804CBCF5033CB5
:1025F0005CD0A0F1804CBCF5043C5AD0A0F1804CDA
:10260000BCF5053C58D0A0F1804CBCF5063C56D03A
:10261000A0F1804CBCF5073C54D04FF0080C0CFAEC
:1026200004FC4CEA060CC5F808C8DAF800C02CEA2D
:10263000030C4C6814F4801F01D04CEA030CCAF858
:1026400000C0244CD4F800C02CEA030C4D6815F4EB
:10265000001F01D04CEA030CC4F800C0DBF800C036
:102660002CEA030C4C6814F4003F01D04CEA030C34
:10267000CBF800C0184CD4F800C02CEA030C4D680D
:1026800015F4803F01D04CEA030CC4F800C0521C82
:10269000102AFFF41BAFBDE8F88F4FF0000CBEE727
:1026A0004FF0010CBBE74FF0020CB8E74FF0030C02
:1026B000B5E74FF0040CB2E74FF0050CAFE74FF071
:1026C000060CACE74FF0070CA9E7000044380240C5
:1026D000083C01400C3C0140003C0140002A01D074
:1026E000816170470904816170470000014880687A
:1026F000704700002803002070B50446002C04D069
:1027000094F83D00002510B106E0012070BD84F86A
:102710003C50204600F026FA242084F83D00206832
:10272000016821F0010101602068016841F4004165
:1027300001602068016821F40041016000F0D2FBD3
:10274000544B6168994203D85349884203D304E04B
:102750005249884201D2012070BD5149B0FBF1F1CC
:102760002268D2F804C02CF03F0C4CEA010CC2F8ED
:1027700004C062689A4201D84A1C07E04FF496727E
:1027800051434FF47A72B1FBF2F14A1C2168D1F83F
:1027900020C02CF03F0C42EA0C020A6261689942A8
:1027A00010D84900401EB0FBF1F2521CC2F30B02DC
:1027B000042A01D2042026E0B0FBF1F0401CC0F353
:1027C0000B0020E0A268002A50D001EBC10303EB0C
:1027D0000113A0F1010CBCFBF3F35B1C43F4804339
:1027E0001B051B0D4AD0002A4AD001EBC10202EBA7
:1027F0000111401EB0FBF1F0401CC0F30B0040F48F
:10280000804040F400402168CA6922F0FF0222F4AF
:102810004F421043C861216AE069014320680268A1
:1028200022F0C00211430160E16820690143206881
:10283000826822F0FF0222F4034211438160A16901
:10284000606901432068C26822F0FF021143C16041
:102850002068016841F0010101602564202084F8AE
:102860003D00256384F83E50002070BD01EB41031C
:10287000A0F1010CBCFBF3F35B1CB1E70120C2E744
:1028800001EB4101401EB0FBF1F0401CC0F30B0016
:10289000B7E70000A086010080841E0000093D000B
:1028A00040420F002DE9FF4F83B004468A4693460D
:1028B000DDF84490DDF84080129EFFF717FF0546D3
:1028C00094F83D00202803D007B00220BDE8F08F27
:1028D00019230122A0492046009502F01FF818B1E3
:1028E00007B00220BDE8F08F94F83C00012808D022
:1028F000012084F83C002068016811F0010F04D029
:1029000007E007B00220BDE8F08F016841F0010147
:1029100001602068016821F400610160222084F8D0
:102920003D00402084F83E0000272764C4F824803E
:10293000A4F82A90608D20858848E0620195009671
:102940005A4651462046069B01F03EFF18B107B09B
:102950000120BDE8F08F208D10B3012829D0022876
:1029600035D02068416980690290208D002800F0F0
:10297000E880DFF8EC81208D032800F2B780012881
:1029800034D002284AD033460022414620460095E2
:1029900001F0C4FF00286CD007B00120BDE8F08F23
:1029A0002068416981690291016841F40071016008
:1029B000DBE72068016821F48061016020684169DB
:1029C00081690291016841F400710160CDE72068DE
:1029D000016821F4806101602068016841F40061B0
:1029E00001602068416980690290BEE72A4631464D
:1029F000204602F054F818B107B00120BDE8F08F6E
:102A000020680069616A0870606A401C6062208DFD
:102A1000401E2085608D401E60858EE0334600227A
:102A200041462046009501F079FF18B107B001201A
:102A3000BDE8F08F2068016841F4007101602068F2
:102A40000069616A0870606A401C6062218D491EDD
:102A50002185618D491E6185216809690170606A5F
:102A6000401C6062208D401E2085608D401E608568
:102A700063E02068016821F48061016020680069DA
:102A8000616A0870606A401C6062208D401E20856B
:102A9000608D401E608533460022414620460095E9
:102AA00001F03CFF18B107B00120BDE8F08F2068AD
:102AB000016841F40071016020680069616A087072
:102AC000606A401C6062218D491E2185618D491E0E
:102AD0006185216809690170606A401C6062208D0F
:102AE000401E2085608D401E608526E02A463146C6
:102AF000204601F0D4FF18B107B00120BDE8F08FE7
:102B000020680069616A0870606A401C6062218DFB
:102B1000491E2185618D491E61852268516911F028
:102B2000040F0AD011690170606A401C6062208D38
:102B3000401E2085608D401E6085208D00287FF41A
:102B40001AAF202084F83D0084F83E7084F83C7071
:102B500007B00020BDE8F08F020010000000FFFF6A
:102B600004000100F0B587B0044614216846FDF763
:102B700071FB1A49206888422DD11948016841F03B
:102B800004010160016801F004010591016841F050
:102B9000010101600068122400F0010005904FF46B
:102BA00000700125032604278DE8F10069460D48D1
:102BB000FFF77EFC28028DE8F10069460A48FFF71E
:102BC00077FC07481030016841F40001016000689B
:102BD00000F40000059007B0F0BD0000005C00406C
:102BE000303802400008024000000240024881687C
:102BF00002781144816070472803002010B50B480B
:102C0000016841F400710160016841F48061016074
:102C1000016841F480710160032000F08DF8032009
:102C200000F006F800F026F8002010BD003C02403D
:102C300070B504460D4D4FF47A712878B1FBF0F071
:102C40000B490968B1FBF0F000F0BEFD08B10120AE
:102C500070BD102C07D200222146501E00F038F81B
:102C60006C60002070BD012070BD000028030020B2
:102C7000340300200E4808B5016841F4804101602A
:102C8000006800F4804000900948001F016841F08E
:102C900080510160006800F080500090052000F035
:102CA0004BF800220321BDE80840481F00F010B88F
:102CB0004438024000280ADB00F01F01012202FA1A
:102CC00001F14009800000F1E020C0F800117047D8
:102CD00010B4184B1B68C3F30223C3F1070CBCF1FB
:102CE000040F01D94FF0040C1C1D072C01D2002346
:102CF00000E0DB1E012404FA0CFCACF1010C0CEA30
:102D00000101994004FA03F35B1E1A4011430028A5
:102D100006DB00F1E020090180F8001410BC7047C8
:102D200000F00F0000F1E020090180F8141D10BC34
:102D3000704700000CED00E000F00700064A116843
:102D40004FF6FF03194041EA002040F0FD7040F0CB
:102D500080601060704700000CED00E02DE9F04746
:102D600004460D46002C13D0DFF85491D9F800002A
:102D7000EFB200F00700A8420DD289F80070D9F830
:102D8000000000F00700A84205D00120BDE8F08750
:102D90000120BDE8F08720684A4E10F0020F14D0E1
:102DA00010F0040F03D0306840F4E0503060207819
:102DB00010F0080F03D0306840F460403060306895
:102DC000A16820F0F00008433060207810F0010F77
:102DD0003ED060683C49012808D002280DD0032865
:102DE0000BD0096811F0020F28D00AE0096811F42D
:102DF000003F06D10120BDE8F087096811F0007F8F
:102E000019D0316821F0030108433060FFF76EFCF0
:102E100080463068616800F00C00B0EB810F17D07D
:102E200041F2883AFFF762FCA0EB0800504508D950
:102E30000320BDE8F0870120BDE8F0870120BDE850
:102E4000F0873068616800F00C00B0EB810FE9D1C9
:102E5000D9F8000000F00700A8420AD989F80070EC
:102E6000D9F8000000F00700A84202D00120BDE818
:102E7000F087207810F0040F05D03068E16820F466
:102E8000E05008433060207810F0080F06D030681A
:102E9000216920F4604040EAC100306000F042F84F
:102EA00031680A4AC1F30311515CC84008490860FF
:102EB00008480068FFF7BCFE0020BDE8F08700006E
:102EC000003C02400838024000380240C6A000081A
:102ED000340300202C0300200148006870470000E4
:102EE0003403002000B5FFF7F7FF04490968044ADE
:102EF000C1F38221515CC84000BD00000838024087
:102F0000D6A0000800B5FFF7E7FF04490968044AA6
:102F1000C1F34231515CC84000BD00000838024096
:102F2000D6A0000810B51748006810F00C0116482C
:102F300016D0164B042912D0082911D1144C21683F
:102F400001F03F02216811F4800F0AD02068C0F31D
:102F50008810A0FB03010023FDF732F909E01846B1
:102F600010BD21680023C1F38811A1FB0001FDF70A
:102F700027F92168C1F30141491C4900B0FBF1F078
:102F800010BD0000083802400024F400001BB70008
:102F9000043802402DE9F84F0446002C12D0207866
:102FA000FB4E10F0010FA6F1040563D0301D01683F
:102FB00001F00C0104290CD0006800F00C00082876
:102FC00003D010E00120BDE8F88F306810F4800FC6
:102FD00009D0286810F4003F4CD06068002849D11F
:102FE0000120BDE8F88F6068B0F5803F14D0B0F5DF
:102FF000A02F16D0286820F480302860286820F49C
:1030000080202860606810B3FFF770FB07462868CF
:1030100010F4003F0ED02DE0286840F48030286086
:10302000F0E7286840F480202860286840F4803069
:103030002860E7E7FFF75AFBC01B642802D903208A
:10304000BDE8F88F286810F4003FF3D012E0FFF7D6
:103050004DFB0746286810F4003F0BD0FFF746FBF6
:10306000C01B642802D90320BDE8F88F286810F43B
:10307000003FF3D12078C74F10F0020F4FF0000946
:1030800057D0C548016811F00C0F14D0006800F04B
:103090000C00082803D1306810F4800F0BD0E068D2
:1030A00080B301203860FFF721FB8046286810F0CC
:1030B000020F12D01EE0286810F0020F05D0E06861
:1030C000012802D00120BDE8F88F2868216920F08E
:1030D000F80040EAC10028602BE0FFF707FBA0EBF7
:1030E0000800022802D90320BDE8F88F286810F0F4
:1030F000020FF2D02868216920F0F80040EAC100F0
:10310000286016E0FFE7C7F80090FFF7EFFA804667
:10311000286810F0020F0CD0FFF7E8FAA0EB0800C7
:10312000022802D90320BDE8F88F286810F0020FAA
:10313000F2D1207810F0080F35D09848DFF860A25F
:103140006169C1B101210160FFF7D0FA8046DAF868
:10315000000010F0020F26D1FFF7C8FAA0EB08001C
:10316000022802D90320BDE8F88FDAF8000010F039
:10317000020FF1D017E0C0F80090FFF7B7FA8046D1
:10318000DAF8000010F0020F0DD0FFF7AFFAA0EB55
:103190000800022802D90320BDE8F88FDAF8000001
:1031A00010F0020FF1D1207810F0040F71D04FF021
:1031B00000087C48006810F0805F0AD179480168F7
:1031C00041F080510160006800F0805000904FF0A5
:1031D0000108DFF8D4B1DBF8000010F4807F1BD1C8
:1031E000DBF8000040F48070CBF80000FFF77EFAB7
:1031F0008246DBF8000010F4807F0DD1FFF776FAED
:10320000A0EB0A00022802D90320BDE8F88FDBF802
:10321000000010F4807FF1D0A068DFF890B10128A1
:1032200018D005281DD0DBF8000020F00100CBF8F5
:103230000000DBF8000020F00400CBF80000A068DC
:1032400040B3FFF753FA8246DBF8000010F0020F9C
:1032500014D03EE0DBF8000040F00100CBF80000A5
:10326000EDE7DBF8000040F00400CBF80000DBF8ED
:10327000000040F00100CBF80000E0E7FFF736FA6D
:10328000A0EB0A0141F28830814204D90320BDE855
:10329000F88F26E005E0DBF8000010F0020FEDD01B
:1032A00017E0FFF723FA8246DBF8000010F0020F68
:1032B0000FD0FFF71BFAA0EB0A0141F288308142E0
:1032C00002D90320BDE8F88FDBF8000010F0020FF0
:1032D000EFD1B8F1010F04D13248016821F08051DB
:1032E0000160A069F0B32C4909684FF0FF3801F084
:1032F0000C01082966D0022810D0C7F86090FFF7AB
:10330000F5F90446286810F0007F2BD0FFF7EEF99E
:10331000001B022851D90320BDE8F88FC7F8609040
:10332000FFF7E4F98146286810F0007F0CD0FFF722
:10333000DDF9A0EB0900022802D90320BDE8F88FCF
:10334000286810F0007FF2D1216AE069A26A084380
:10335000616A08EB5202890141EA0241084394F88C
:103360002C1000E055E040EA016030600120386632
:10337000FFF7BCF90446286810F0007F49D1FFF739
:10338000B5F9001B022813D90320BDE8F88F00000F
:10339000043802400000474208380240800E47428D
:1033A00074380240403802400070004070380240DB
:1033B000286810F0007FE2D02BE0286810F0007F32
:1033C000A4D126E0012822D03068E26900F480010F
:1033D00091421AD1226A00F03F01914215D147F67D
:1033E000C071626A0140B1EB821F0ED1A26A00F483
:1033F000403108EB5202B1EB024F06D194F82C1089
:1034000000F07060B0EB016F03D00120BDE7012038
:10341000BBE70020B9E770B50446002C09D0606A0C
:10342000002540B125616561A56294F8510040B165
:103430000CE0012070BD6068B0F5827FF4D0E561DA
:10344000F2E784F85050204600F044F8022084F857
:1034500051002068016821F040010160A0882189A5
:1034600000F4827001F404410843A18901F4006171
:103470000843217C01F002010843217D01F0010194
:103480000843218B01F400710843217F01F03801CA
:10349000084394F8201001F080010843218D01F4C5
:1034A0000051084321680860A169042000EA114026
:1034B00094F8241001F01001014320684160206855
:1034C000C16921F40061C1616565012084F8510082
:1034D000002070BD2DE9F04387B0064614216846F0
:1034E000FCF7B8FE34493068884261D13348002582
:1034F000016841F480510160006800F4805005903B
:103500002E481438016841F002010160016801F0A1
:1035100002010591016841F0010101600068022487
:1035200000F001000590182001274FF003084FF02C
:1035300005098DE8910369462148FEF7B9FF80200F
:103540008DE8910369461F48FEF7B2FF1F4C1E48E5
:103550004FF0C0672060C4E901754FF48068C4E98A
:10356000035865617812A561C4E907502046656279
:10357000FEF7B2FE08B1FDF792FCF464A663134CAB
:10358000114860341830E4E802074020A4E8210123
:10359000C00244F81459A561C4E907500B4865629C
:1035A0006030FEF799FE08B1FDF779FCB464A663BC
:1035B00007B0BDE8F083000000300140443802400D
:1035C0000004024000000240406402403C0400202D
:1035D0002DE9F84F04460A9E8A4693461F46012568
:1035E0004FF0000894F8500001280ED0012084F814
:1035F0005000FFF77BF8814694F85100616801287C
:103600000ED0B1F5827F07D102E00220BDE8F88F2D
:10361000A16809B9042803D04FF0020800F0CBB824
:10362000BAF1000F1DD0BBF1000F1AD0380018D02E
:1036300094F85100042802D0052084F8510000209D
:103640006065C4F838B0E787A787C4F830A0E7867C
:10365000A786206460642068016811F0400F03D0E1
:1036600006E04FF00108A6E0016841F0400101606A
:10367000E068B0F5006F05D06068002848D0012FE1
:1036800046D07EE0606808B1012F3AD1206B2168F6
:103690000088C860206B801C2063E08E401EE0869E
:1036A0002FE02068816811F0020F0DD0E18E59B132
:1036B000012D09D1216B0988C160206B801C20631A
:1036C000E08E401EE08600252068816811F0010F21
:1036D0000BD0E18F49B1C068A16B0880A06B801C42
:1036E000A063E08F401EE0870125FEF7FFFFA0EBFF
:1036F0000900B04205D3B6F1FF3F02D04FF00308F6
:1037000059E0E08E0028CCD1E08F0028C9D13EE0FE
:10371000206B216800780873206B401C2063E08ECA
:10372000401EE0862DE02068816811F0020F0DD068
:10373000E18E59B1012D09D1216B09780173206BFC
:10374000401C2063E08E401EE086002520688168D2
:1037500011F0010F0BD0E18F49B1C068A16B087067
:10376000A06B401CA063E08F401EE0870125FEF7A0
:10377000BDFFA0EB0900B04202D3B6F1FF3F11D16B
:1037800086B1E08E0028CED1E08F0028CBD14A460A
:103790003146204603F002FD38B14FF001082020E9
:1037A000606508E04FF0030805E0A06818B92068DC
:1037B000C16880680090012084F85100002084F8DE
:1037C00050004046BDE8F88F401EB0F1807F01D325
:1037D000012070474FF0E0214861044AF02010704A
:1037E00000208861072008610020704723ED00E079
:1037F0007047704730B490F83C20012A44D001242F
:1038000080F83C40022280F83D200268D2F804C0D3
:1038100093682CF0700C0D6845EA0C0CC2F804C0DB
:103820000268A2F1804CBCF5803C20D0B2F1804F00
:103830001DD0A2F1804CBCF5806C18D0A2F1804C58
:10384000BCF5006C13D0A2F1804CBCF5406C0ED0DE
:10385000A2F1804CBCF5823C09D0A2F1804CBCF5B1
:10386000A03C04D0A2F1804CBCF5C05C04D123F094
:10387000800349681943916080F83D40002180F839
:103880003C1030BC0020704730BC0220704710B59F
:103890000446002C03D094F83D0010B107E001204D
:1038A00010BD002084F83C00204600F01FF80220E4
:1038B00084F83D00211D206803F0F6FD012084F806
:1038C000460084F83E0084F83F0084F8400084F805
:1038D000410084F8420084F8430084F8440084F8EE
:1038E000450084F83D00002010BD000008B51D4AC9
:1038F00001681D48914211D1016841F00201016047
:103900000068002200F00200009001211D20FFF756
:10391000DFF9BDE808401D20FFF7CCB9134A9142FA
:1039200007D1016841F004010160006800F0040063
:1039300009E00F4A914208D1016841F0100101608D
:10394000006800F01000009008BD0A488142FBD1D9
:103950000548001D016841F400310160006800F471
:103960000030F0E70004004040380240000800400A
:10397000001000400044014090F83D10012901D0A2
:1039800001207047022180F83D100168CA6842F0AA
:103990000102CA600068A0F18041B1F5803126D0F3
:1039A000B0F1804F23D0A0F18041B1F580611ED0ED
:1039B000A0F18041B1F5006119D0A0F18041B1F5CD
:1039C000406114D0A0F18041B1F582310FD0A0F157
:1039D0008041B1F5A0310AD0A0F18041B1F5C051CC
:1039E00005D0016841F00101016000207047816845
:1039F00001F007010629F8D0016841F001010160DA
:103A0000F3E770B50446002594F83C00012818D06F
:103A1000012684F83C60022084F83D00206882681A
:103A200022F0770222F47F4282600868502839D061
:103A30000EDC202854D006DC002851D0102811D1EB
:103A40004EE0022070BD30284AD040280AD13DE027
:103A5000602831D070280DD0B0F5805F03D0B0F56C
:103A6000005F13D0012584F83D60002084F83C00FD
:103A7000284670BDCB684A688968206803F089FDD4
:103A80002068816841F077018160ECE7CB684A6883
:103A90008968206803F07DFD2068816841F48041D9
:103AA0008160E0E7CA684968206803F061FE502140
:103AB000206803F079FDD6E7CA684968206803F0FA
:103AC0006AFE6021206803F06FFDCCE7CA68496890
:103AD000206803F04DFE4021206803F065FDC2E739
:103AE00022680146104603F05FFDBCE7704770B5E1
:103AF0000446206801694FF0000511F0020F17D04D
:103B0000C16811F0020F13D0E91E01610120207776
:103B10002068806910F0030F03D02046FFF7E6FF0E
:103B200005E0204600F0E0F8204600F079F925771E
:103B30002068016911F0040F18D0C16811F0040F5A
:103B400014D06FF0040101610220207720688069A1
:103B500010F4407F03D02046FFF7C8FF05E0204661
:103B600000F0C2F8204600F05BF925772068016973
:103B700011F0080F18D0C16811F0080F14D06FF0C1
:103B800008010161042020772068C06910F0030F4C
:103B900003D02046FFF7AAFF05E0204600F0A4F876
:103BA000204600F03DF925772068016911F0100FDB
:103BB00018D0C16811F0100F14D06FF0100101611E
:103BC000082020772068C06910F4407F03D0204689
:103BD000FFF78CFF05E0204600F086F8204600F055
:103BE0001FF925772068016911F0010F09D0C1681C
:103BF00011F0010F05D06FF001010161204600F0C6
:103C00007FF92068016911F0800F09D0C16811F0B7
:103C1000800F05D06FF0800101612046FFF7E8FDBD
:103C20002068016911F0400F09D0C16811F0400F00
:103C300005D06FF040010161204600F00BFA2068CA
:103C4000016911F0200F0BD0C16811F0200F07D0CF
:103C50006FF0200101612046BDE87040FFF7C9BD4B
:103C600070BD000010B586B0044614216846FCF70C
:103C7000F1FA2368174C002217480221A3420FD102
:103C8000036843F008030360006800F00800059033
:103C900048038DE80700CDE9032169460F4814E089
:103CA0000F4A934213D1026842F02002026000687A
:103CB00000F0200005904020CDE900010120CDE971
:103CC00002010320049069460648FEF7F1FB06B0A6
:103CD00010BD00000008004030380240000C0240D7
:103CE0000044014000140240704770B504460D4680
:103CF000002694F83C0001280FD0012084F83C00F5
:103D00006AB1042A1FD0082A32D00C2A44D00126D6
:103D1000002084F83C00304670BD022070BD29466A
:103D2000206803F049FC2068816941F00801816145
:103D30002068816921F004018161206881692A6914
:103D400011438161E4E72946206803F06DFC206897
:103D5000816941F4006181612068816921F4806199
:103D60008161206881692A6941EA02218161CFE786
:103D70002946206803F094FC2068C16941F00801DD
:103D8000C1612068C16921F00401C1612068C16975
:103D90002A691143C161BBE72946206803F0BCFCD6
:103DA0002068C16941F40061C1612068C16921F4E2
:103DB0008061C1612068C1692A6941EA0221C1614B
:103DC000A6E710B50446002C03D094F83D0010B1CE
:103DD00007E0012010BD002084F83C00204600F0E0
:103DE0001EF8022084F83D00211D206803F05CFBD2
:103DF000012084F8460084F83E0084F83F0084F8EF
:103E0000400084F8410084F8420084F8430084F8BC
:103E1000440084F8450084F83D00002010BD704740
:103E20007047000010B50446002909D004290AD0C3
:103E300008290BD094F8410001280AD0012010BDB8
:103E400094F83E00F8E794F83F00F5E794F8400056
:103E5000F2E70220D9B3042947D0082948D084F8D2
:103E600041000122206803F085FB234A2068234992
:103E7000904201D0884203D1436C43F40043436431
:103E80002068904224D0B0F1804F21D0A0F1804230
:103E9000B2F580621CD0A0F18042B2F5006217D06A
:103EA000A0F18042B2F5406212D0884210D0A0F159
:103EB0008041B1F5A0310BD0A0F18041B1F5C051E6
:103EC00006D0016841F001010160002010BD09E049
:103ED000816801F007010629F7D0016841F001016E
:103EE0000160F2E784F83E00BBE784F83F00B8E7E2
:103EF00084F84000B5E700000000014000040140E4
:103F000070B54D4C2168E068FCF71AFD6068032825
:103F100002DD0120A0600CE000231A461946184675
:103F200004F0CAFE45480268454801680120FCF7D4
:103F300039FD2068401C206000F080FEA068072545
:103F400001281BD12168E068FDF72AFA206890FB60
:103F5000F5F105FB1100022807D104F035FE06F04B
:103F600009F8FCF729FF05F0ABFD2068212190FB43
:103F7000F1F201FB120008B905F000FD20681421E0
:103F800090FBF1F201FB120008B904F019FF206860
:103F900090FBF5F105FB110028B92A4800780128AB
:103FA00009D005F027FA2068462190FBF1F201FBC9
:103FB000120018B130E005F045FEF4E722489FED0D
:103FC000240A01782148022904D004290DD00329AC
:103FD00016D021E0D0ED0F0AC268012120EE800A40
:103FE000BDEEC00A10EE100A14E0D0ED0F0AC26850
:103FF000022120EE800ABDEEC00A10EE100A09E090
:10400000D0ED0F0AC268032120EE800ABDEEC00A7F
:1040100010EE100A04F0FEFD2068B0F57A7F0ADB8E
:1040200000202060E068401CE060A068002802D109
:104030006068401C606070BD3402002000010020F8
:104040000C010020F00100200801002020190020B0
:104050000000C8427047704710B5044620684069A8
:10406000C0F3C01094F83D10212911D180B120680F
:10407000143050E8001F21F0800140E80012002AAF
:10408000F5D1606B08B1FDF7CDFF204603F045FC8C
:1040900020684069C0F3801094F83E10222911D1A5
:1040A00080B12068143050E8001F21F0400140E842
:1040B0000012002AF5D1A06B08B1FDF7B3FF20462E
:1040C00003F0F7FB002010BD70470000F8B5044670
:1040D00022681068D168536900F00F0CBCF1000F22
:1040E0000AD110F0200F07D011F0200F04D0204685
:1040F000BDE8F84003F01FBC0025BCF1000F75D0EF
:1041000003F0010C01F490765CEA06066ED010F024
:10411000010F06D011F4807F03D0226C42F001021F
:10412000226410F0040F06D013F0010F03D0226CAC
:1041300042F00202226410F0020F06D013F0010FC9
:1041400003D0226C42F00402226410F0080F08D061
:1041500001F0200252EA0C0203D0226C42F0080265
:104160002264226C002A35D010F0200F05D011F007
:10417000200F02D0204603F0DEFB20684069C0F328
:104180008010216C11F0080F00D148B3204603F0D5
:1041900090FB2068406910F0400F1CD0206814305C
:1041A00050E8001F21F0400140E80012002AF5D13C
:1041B000A06B60B15C490165A06BFDF784FF00282E
:1041C00008D0A06B016D01B0BDE8F0400847204663
:1041D000FFF77AFFF8BD2046FFF776FFF8BD05E050
:1041E000FFE72046FFF770FF2564F8BD236B012B26
:1041F0007ED110F0100F7BD011F0100F7ED0106820
:104200005068009050694FF0200310F0400F43D0E9
:10421000A16B0868406880B20028E6D0A28D824277
:10422000E3D9E085C869B0F5807F2DD020680C30D7
:1042300050E8001F21F4807140E80012002AF5D1F7
:104240002068143050E8001F21F0010140E80012FE
:10425000002AF5D12068143050E8001F21F04001F9
:1042600040E80012002AF5D184F83E30256320682A
:104270000C3050E8001F21F0100140E80012002A25
:10428000F5D1A06BFDF7CEFEA08DE18D401A81B275
:104290002046FFF7E0FEF8BDA08DE18D401A81B207
:1042A000E08D0028F7D00029F5D020680C3050E8C8
:1042B000002F22F4907240E8002CBCF1000FF4D1E2
:1042C0002068143050E8002F22F0010240E8002C52
:1042D000BCF1000FF4D184F83E30256320680C3027
:1042E00050E8002F22F0100240E80023002B00E0ED
:1042F00004E0F3D12046FFF7AEFEF8BD10F0800FCA
:1043000007D011F0800F04D02046BDE8F84003F03C
:1043100041BC10F0400FF0D011F0400FEDD020461E
:10432000BDE8F84003F0ECBABB77000870B504466E
:10433000002C04D094F83D00002510B106E00120C7
:1043400070BD84F83C50204600F022F8242084F808
:104350003D002068C16821F40051C160204603F08F
:104360004FFB2068016921F4904101612068416997
:1043700021F02A0141612068C16841F40051C16007
:104380002564202084F83D0084F83E00002070BDA4
:104390002DE9F04F87B0054614216846FBF75AFF18
:1043A000AF48DFF8B882143802212B68DFF8B0A2DA
:1043B0000322CF03002406154FF0070C4FF0006BCB
:1043C000434571D1DAF8008048F01008CAF800803F
:1043D000DAF8003003F010030593036843F002039A
:1043E0000360036803F002030593036843F00103CD
:1043F00003600068884600F0010005908020CDE948
:104400000008CDE902429246E1466946CDF810C067
:104410009448FEF74DF87010CDE90008CDE9024A46
:104420006946CDF810909048FEF742F8DFF840A2B8
:104430008E495046CAF80010C0E901B4C0E90346ED
:10444000CAF81440F101CAF81840CAE90741D84631
:10445000B146CAF82440FDF73FFF08B1FCF71FFD45
:10446000834E8248C5F838A060363030CAF83850DC
:10447000E6E802084020A6E811027D4846F8144903
:104480006030B461C6E907477462FDF725FF08B1E3
:10449000FCF705FD6E63002201212520B563FEF7C0
:1044A00017FC25202AE0FFE7DFF8C881DFF8B0918C
:1044B0004345A9F1040926D1D9F8005045F4003547
:1044C000C9F80050D9F8003003F4003305930368AD
:1044D00043F008030360006800F0080005906020C6
:1044E0008DE81300CDE9032C69466348FDF7E0FF32
:1044F000002201212620FEF7EBFB2620FEF7DAFB47
:1045000007B0BDE8F08FDFF87481434541D1D9F899
:10451000008048F48028C9F80080D9F8003003F4FE
:1045200080230593036843F004030360006800F0F0
:10453000040005904FF440608DE81300CDE9032C92
:1045400069464F48FDF7B4FFDFF824814D4908F173
:10455000C0084046C8F80010C0E901B4C0E90346ED
:10456000C8F820708915C8F81440C8E90641C8F891
:104570002440FDF7B1FE08B1FCF791FCC5F8388086
:10458000002201212720C8F83850FEF7A1FB272080
:10459000B4E7DFF8F4C06345B2D1DAF800C0A14651
:1045A0004CF0200CCAF800C0DAF8003003F0200309
:1045B0000593036843F040030360006800F0400087
:1045C00005904FF484408DE813000820CDE90320C6
:1045D00069462E48FDF76CFF2449DFF8B480603946
:1045E0004046C8F800104FF0206AC0E901A4C0E9B5
:1045F0000346C8F814404FF40031C8F81840C8E921
:104600000741C8F82440FDF767FE08B1FCF747FCF6
:104610001F4C1648C5F8388060341830C8F8385038
:10462000C4E9000A4020A060C4E90396C4F81490CD
:10463000C4F81890C4E907972046C4F82490FDF701
:104640004BFE08B1FCF72BFC6C630022114647209F
:10465000A563FEF73DFB472050E700000010014036
:1046600044380240000402400000024088640240D6
:104670002C07002000440040000C0240004800408D
:104680000008024028600240001401400018024067
:104690004C08002090F83E30202B01D002207047BB
:1046A00059B152B190F83C30012B08D0012380F869
:1046B0003C300023036303F021BA0120704702203D
:1046C0007047704770472DE9F84304460E4615467B
:1046D0001F4694F83D00202802D00220BDE8F88350
:1046E000C6B1BDB194F83C00012816D0012084F871
:1046F0003C004FF00009C4F84090212084F83D00B0
:10470000FDF7F4FF8046A584E584A068B0F5805FDE
:1047100006D007E00120BDE8F8830220BDE8F88359
:10472000206980B13546002684F83C90E08CB8B111
:104730004346002280212046009703F05AFA20B118
:104740000320BDE8F8830025EEE7A5B121682878AD
:1047500048606D1CE08C401EE084E08C0028E7D1AE
:104760004346002240212046009703F042FA48B118
:104770000320BDE8F88330882168C0F30800486052
:10478000B61CE7E7202084F83D000020BDE8F88350
:104790007047FEE701684A6912F4806F11D06FF428
:1047A00080624A6100210163202280F83D2080F868
:1047B0003E10026C42F00402026480F83C100120BA
:1047C00070470020704700002DE9F84F0446DDF8DF
:1047D00028A00B9D0F4690461E462068016841F4B4
:1047E000806101602068016841F480710160534676
:1047F00000224FF001112046009500F08FF84FF491
:10480000007948B12068006810F4807F01D0C4F8B6
:1048100040900320BDE8F88F216807F0FE00086192
:10482000DFF8F4B02B4652465946204600F0D0F847
:1048300010B10120BDE8F88F2068416980690090BF
:104840002A465146204600F068F950B1206C0428F1
:1048500004D12068016841F4007101600120BDE8C5
:10486000F88F304608F0FF0601280DD021684FEA86
:10487000182008612A465146204600F04EF970B1D2
:10488000206C042803D007E02068066109E0206856
:10489000016841F4007101600120BDE8F88F2068D3
:1048A00006612A465146204600F037F950B1206C87
:1048B000042804D12068016841F4007101600120DE
:1048C000BDE8F88F2068016841F4807101605346AB
:1048D00000224FF001112046009500F01FF848B16A
:1048E0002068006810F4807F01D0C4F84090032055
:1048F000BDE8F88F2168F8B240F0010008612B464E
:1049000052465946204600F063F810B10120BDE838
:10491000F88F0020BDE8F88F020001002DE9F04774
:104920000446DDF820900D4617461E46C5F307489D
:104930002068B8F1010F22D0806925EA0000000448
:10494000000C26D00020B84216D1B6F1FF3F06D0A9
:10495000FDF7CCFEA0EB0900B0421CD8DEB1B8F1E7
:10496000010F28D02068806925EA00000004000CAF
:104970002CD00020B842E8D00020BDE8F087406984
:1049800025EA00000004000C01D00020DBE7012034
:10499000D9E70120D7E700202063202184F83D10CB
:1049A00084F83E00216C41F02001216484F83C0031
:1049B0000120BDE8F0872068406925EA0000000476
:1049C000000C01D00020D5E70120D3E70120D1E77A
:1049D0002DE9F04704460D4616461F46C5F3074825
:1049E0002068B8F1010F26D0806925EA0000000494
:1049F000000C3AD04FF000094FF0200A20684069BF
:104A000010F4806F1ED02068016841F400710160CD
:104A100021686FF480604861C4F8309084F83DA04C
:104A200084F83E90206C40F00400206484F83C90B0
:104A30000120BDE8F087406925EA00000004000C71
:104A400013D0D7E7B6F1FF3F05D0FDF74FFEC01BEF
:104A5000B0420DD866B1B8F1010F18D02068806956
:104A600025EA00000004000CC8D10020BDE8F08752
:104A7000C4F8309084F83DA084F83E90206C40F05B
:104A80002000206484F83C900120BDE8F087206875
:104A9000406925EA00000004000CAFD1E5E72DE9EC
:104AA000F04104460D4616462068406910F0400F5C
:104AB00022D100274FF020082068406910F0100F25
:104AC0000FD021686FF010004861276384F83D80A3
:104AD00084F83E70206C206484F83C700120BDE8AE
:104AE000F081FDF703FE801BA84208D83DB1206885
:104AF000406910F0400FDFD00020BDE8F08127634F
:104B000084F83D8084F83E70206C40F020002064E2
:104B100084F83C700120BDE8F08170B504460D4674
:104B200016462068406910F0800F13D12046FFF729
:104B300031FE08B1012070BDB5F1FF3F05D0FDF792
:104B4000D5FD801BA84207D835B12068406910F018
:104B5000800FEBD0002070BD00202063202184F85E
:104B60003D1084F83E00216C41F02001216484F85E
:104B70003C00012070BD000038B502E0642004F064
:104B800051F9FBF799FD0028F8D1284AA2F1100449
:104B9000211D101DFBF7A8FD2346A3F1340204F1EB
:104BA0002405A2F10C01A1F10C00009504F08CFA8F
:104BB000A4F14000A0F1180190ED000AA0F1240238
:104BC00081ED000AA0F1300382ED000A83ED000AB6
:104BD00090ED010A81ED010A82ED010A83ED010ADF
:104BE00090ED020AA43081ED020A82ED020A83ED03
:104BF000020A0F4900F0DCFE2A1D211DA4F1280045
:104C0000FBF7A4FC0B491020C8610846FEF703FC23
:104C100008B1FCF744F908490822A1F1080002F0A4
:104C200045FA054901201C39087138BD340B0020B4
:104C300098A00008E403002054000020F8B5644C5C
:104C4000644EE068401CE060192805DD96ED040A1A
:104C500004F034FB0020E06020785E4D000705F191
:104C6000140508D5207820F00800207058482946FF
:104C70001D30FBF7F1FC607840070AD5607820F022
:104C800004006070534A311D2032A2F12A00FBF764
:104C90009DFCA07840070DD5A07820F00400A070FE
:104CA0004C494B4810311230FBF7F8FD96ED040AE1
:104CB00004F004FB474B474CA3F134022434A2F127
:104CC0000C01A1F10C00009404F0FEF9A4F188009D
:104CD000A0F10C01D0ED000A00F10C03C1ED000AB7
:104CE00093ED001A9FED3C0A80ED001A00F12402BA
:104CF00061EE001A9FED391A92ED002A40EE811AFA
:104D0000DFED370A42EE201AC3ED001AD0ED011A8A
:104D1000C1ED011A93ED012A80ED012A22EE002A4D
:104D200001EE812AD2ED011A01EEA02A83ED012ABB
:104D3000D0ED021AC1ED021A93ED022A314680ED40
:104D4000022A22EE000A274801EE810A92ED021A99
:104D500001EE200A83ED020A96ED050AF0EEC00A84
:104D600010EE902ADFED200A824201DAB0EE600AEE
:104D700081ED050A91ED060AB0EEC01A11EE102A77
:104D8000824201DAB0EE600A81ED060A91ED070A6F
:104D9000164AB0EEC01A11EE100A904201DAB0EED7
:104DA000600A81ED070A0B48231D321D29469FED3D
:104DB000100A2838FBF7DAFB01B0064BBDE8F040DB
:104DC000103B1A1F111FA1F1100004F015B90000CB
:104DD00038000020240B00205AF8F63F5D896EBF92
:104DE000D5A9183BCDCC4C3D000000000AD7A33C10
:104DF0006F12833A104810B50E49016003214160DB
:104E000000214FF480228160C0E903124FF4E002D8
:104E100042610176012242768176C176017741773F
:104E2000FCF787FE002803D0BDE81040FCF737B838
:104E300010BD00000064004040030020104810B581
:104E40000E4901600321416000214FF480228160FE
:104E5000C0E903124FF4E00242610176012242767A
:104E60008176C17601774177FCF763FE002803D095
:104E7000BDE81040FCF713B810BD0000006800400A
:104E800068030020254808B5016841F4001101605D
:104E9000016801F400110091016841F48001016092
:104EA0000068002200F48000009011460C20FDF7FD
:104EB0000FFF0C20FDF7FEFE002211463920FDF702
:104EC00007FF3920FDF7F6FE002211463A20FDF7D4
:104ED000FFFE3A20FDF7EEFE002211463B20FDF7D3
:104EE000F7FE3B20FDF7E6FE002211464420FDF7C9
:104EF000EFFE4420FDF7DEFE002211464520FDF7BF
:104F0000E7FE4520FDF7D6FE002211464620FDF7BC
:104F1000DFFEBDE808404620FDF7CCBE3038024039
:104F20002DE9F04387B014216846FBF793F94F4809
:104F3000016841F002010160016801F00201059180
:104F4000016841F040010160016801F040010591F4
:104F5000016841F001010160016801F00101059162
:104F6000016841F008010160016801F00801059144
:104F7000016841F004010160016801F0040105913C
:104F8000016841F080010160016801F08001059134
:104F9000016841F0200101600068354F00F02000F9
:104FA0000590012240213846FDF798FBDFF8C480C8
:104FB000012210214046FDF791FBDFF8BC90012251
:104FC00011464846FDF78AFB01244020CDE9000444
:104FD000022569463846CDE90245FDF769FA092000
:104FE0004FF48816CDE90006694602943846FDF76D
:104FF0005FFA1020CDE9000469464046CDE902453C
:10500000FDF756FA3020CDE90006694602941B48A8
:10501000FDF74EFA0094694648460194CDE90245F1
:10502000FDF746FA002202210620FDF751FE062078
:10503000FDF740FE002201210920FDF749FE09206D
:10504000FDF738FE002201210A20FDF741FE0A206B
:10505000FDF730FE002201211720FDF739FE172051
:10506000FDF728FE07B0BDE8F083000030380240AD
:105070000018024000000240000402400008024004
:105080000D4810B50B4901600C49416000214FF4F7
:1050900080428160C0E9031241618161C1610162A6
:1050A000FDF72AFB002803D0BDE81040FBF7F7BE50
:1050B00010BD0000005C004090030020801A060034
:1050C000104810B50E4901604FF482714160002113
:1050D00002228160C0E90312012242615202826110
:1050E0003822C0E90721416281620A21C162FEF7CC
:1050F00092F9002803D0BDE81040FBF7D0BE10BDE8
:1051000000300140E403002010B588B01C2168463F
:10511000FBF7A0F8144813490024C0E9001441F239
:105120008731C0E9024104618461FEF7B0FB08B138
:10513000FBF7B5FE0C48FEF744FE08B1FBF7AFFEE7
:105140006020CDE9000402940022694606480494D8
:10515000FEF7CBFD08B1FBF7A2FE0348FEF782FD88
:1051600008B010BD00440140D405002010B586B041
:105170000024174800940194029403940494134962
:105180000594016040F2E731C0E901145321C0E900
:10519000031480218161FEF77AFB08B1FBF77FFEE3
:1051A0004FF48050009069460948FEF72AFC08B188
:1051B000FBF775FE049404A905480594FEF71AFB55
:1051C000002801D0FBF76BFE06B010BD00040040C4
:1051D000FC04002010B58EB00024079408940994B4
:1051E0000A940B941C2168460C94FBF733F81E4874
:1051F0001C49C0E9001445F20721C0E902410461DD
:105200008461FEF744FB08B1FBF749FE4FF4805080
:10521000079007A91448FEF7F4FB08B1FBF73FFE1F
:105220001148FEF7CEFD08B1FBF739FE0B940BA930
:105230000D480C94FEF7DEFA08B1FBF730FE602053
:10524000CDE9000402940822694607480494FEF759
:105250004CFD08B1FBF723FE0348FEF703FD0EB03B
:1052600010BD000000080040440500201CB50024CB
:105270000F4800940D490194016040F24731C0E9A4
:10528000011440F2E7318461C160FEF700FB08B110
:10529000FBF705FE0094694605480194FEF7AAFA5B
:1052A000002801D0FBF7FBFD1CBD000000100040F2
:1052B0008C0500200C4810B50A4901600B4941607B
:1052C000002181600C22C160C0E904128161C161CA
:1052D000FFF72CF8002803D0BDE81040FBF7DFBD36
:1052E00010BD0000001001401C060020A086010037
:1052F0000C4810B50A4901600B49416000218160EA
:105300000C22C160C0E904128161C161FFF70EF88F
:10531000002803D0BDE81040FBF7C1BD10BD000060
:105320000044004060060020A08601000C4810B533
:105330000A4901600B494160002181600C22C16073
:10534000C0E904128161C161FEF7F0FF002803D0BB
:10535000BDE81040FBF7A3BD10BD000000480040B1
:10536000A4060020A08601000C4810B50A4901607F
:105370004FF4E1314160002181600C22C160C0E93D
:1053800004128161C161FEF7D1FF002803D0BDE89E
:105390001040FBF784BD10BD00140140E80600205A
:1053A00010B5B5EEC03A2DED108BF0EE419AB0EE8F
:1053B00060AAF0EE40AAF1EE10FA84B0044616D1CD
:1053C000F5EEC03AF1EE10FA11D1B5EEC04AF1EEA9
:1053D00010FA0CD104B0B0EE691AF0EE4A0AB0EE41
:1053E0006A0ABDEC108BBDE8104000F083B9F5EE01
:1053F000C01AF1EE10FA09D1B5EEC02AF1EE10FA9A
:1054000004D1F5EEC02AF1EE10FA7CD021EEA10A0B
:1054100002EE020A02EEA20A03F09EFF21EE80FADB
:1054200062EE00EA22EE80EA23EE030A03EEA30A0C
:1054300004EE040A03F090FFD4ED000A23EE009A74
:1054400063EE808A60EEA01A24EE008AF0EE00FA85
:10545000CDED031A94ED010A94ED021AD4ED031A6E
:1054600020EE80DA60EE81CA20EEA12A61EE01DA38
:1054700060EE002A60EE010A20EE21CAB6EE000AB4
:1054800021EEA1BA30EE6D0A61EE21BA3CEE2C1A83
:1054900070EE4B1ACDED021A21EE890A70EEC21A97
:1054A00070EE820ACDED011A08EEA10A60EE890ABB
:1054B00008EE010AB6EE001A71EE621A20EE2F0A0B
:1054C00031EECB1ACDED001A20EE000A48EE810A2B
:1054D0003BEECD1A48EE010A60EEAF0A00EEA00ADC
:1054E00010EE100AFAF7C1FE41EC100B02F0E8FFD3
:1054F00051EC100BFAF7CCFE3CEE6C0A00EE900A71
:1055000020EE091A00E08EE07BEE8D1AF6EE002AFE
:105510003CEE8C4A3DEE2B2A08EEA11ADDED001A76
:10552000704931EEED3ADDED031A71EEE21A08EE44
:10553000031A71EE8B3ADDED021A21EE2F1A61EE9D
:10554000A02ADDED011A61EEA01A64EE200A41EEF8
:10555000002A41EE021A41EE030A2EEEA31A0EEEC5
:10556000421A28EEA03A2FEE022A08EE613A0EEE19
:10557000C02A31EE031A2EEE003A29EE210AD1EDAF
:10558000011A0FEE633A68EE223A08EEE20AF5EEEF
:10559000C01A49EE603A32EE000A73EE230AF1EEC9
:1055A00010FA2CDDD1ED011A91ED022A61EE812A6B
:1055B000DFED4D1A02EEA12A81ED022A91ED012ABA
:1055C00062EE202A91ED032A02EEA12A81ED032A40
:1055D00091ED012A62EE002A91ED042A02EEA12A41
:1055E00081ED042AD1ED021A7AEEA1AAD1ED031AB7
:1055F0003AEE21AAD1ED041A79EEA19A07E0DFED87
:105600003B1AC1ED021AC1ED031AC1ED041AD1ED26
:10561000001A41EE81AA91ED001A01EE20AAD1ED07
:10562000000A40EE809A9FED320A94ED011A94ED43
:10563000022A6AEE800A2AEE003A69EE802A94ED88
:10564000030A61EE603AD4ED001A42EE433A40EEAE
:10565000623A73EEA14A61EEA03AC4ED004A42EE0E
:10566000223A40EE433A33EE814A61EE833A61EEEC
:10567000A21A84ED014A41EE623A41EE031A40EE6D
:10568000203A42EE601A73EE823A71EE800A24EEFE
:10569000A40AC4ED023AC4ED030A04EE040A03EEC0
:1056A000A30A00EEA00A03F057FED4ED000A60EE54
:1056B000800AC4ED000AD4ED010A60EE800AC4ED50
:1056C000010AD4ED020A60EE800AC4ED020AD4EDAC
:1056D000030A20EE800A84ED030A04B0BDEC108BAF
:1056E00010BD0000E80200206F12833A00000000A5
:1056F0006F12033AF5EEC01AB0EE413AF0EE603A9E
:10570000B0EE404AF1EE10FA00B5024609D1B5EE0E
:10571000C02AF1EE10FA04D1F5EEC02AF1EE10FA2B
:1057200078D021EEA10A02EE020A02EEA20A03F0EC
:1057300013FE21EE805A62EE004A92ED011AD2ED7C
:10574000030A22EE800AD2ED002A21EE202AD2EDB1
:10575000021A22EE811A5C4802EEE12A01EEA01A3A
:10576000F6EE001A52EEA21A40EEA01A60EE020AFD
:1057700064EEA12A45EE610A40EE412A25EE010AB7
:1057800090ED011A04EEC20AB5EEC01AF1EE10FA5D
:105790002CDD90ED011AD0ED021A21EE222A9FEDA8
:1057A0004B1A42EE011AC0ED021AD0ED011A21EE99
:1057B000A02AD0ED031A42EE011AC0ED031AD0ED73
:1057C000011A21EE802AD0ED041A42EE011AC0ED32
:1057D000041A90ED021A34EE014A90ED031A73EEAA
:1057E000813A90ED041A33EE013A07E09FED381A42
:1057F00080ED021A80ED031A80ED041A90ED001A74
:1058000001EE224A90ED001A41EE203AD0ED000A56
:1058100000EE803A9FED2F0AD2ED021A24EE002A04
:1058200063EE802A23EE001A92EC020A92ED033A0C
:1058300060EEC23A41EEE23A43EE413A73EE804AFC
:1058400060EE023AC2ED004A41EE813A43EE623A1E
:1058500033EEA04A60EE223A20EE010A82ED014AC0
:1058600040EEC13A00EEA20A43EE023A01EEC20A4D
:1058700073EEA13A70EE030A24EEA40AC2ED023AD6
:10588000C2ED030A04EE040A03EEA30A00EEA00A26
:1058900003F062FDD2ED000A60EE800AC2ED000A5C
:1058A000D2ED010A60EE800AC2ED010AD2ED020AD1
:1058B00060EE800AC2ED020AD2ED030A20EE800AF1
:1058C00082ED030A00BD0000E80200206F12833A57
:1058D000000000006F12033AFEE77047F0B390ED4E
:1058E000111A314980ED121AD0ED101AC0ED111ABB
:1058F00080ED060A30EE600AC0ED070A80ED100A5E
:1059000081ED000AD0ED000A20EE801A80ED0A1A1F
:10591000D0ED0B0A90ED012A42EE000A30EE610A4A
:10592000C0ED0B0A90ED0E2A80ED0F2A90ED0D2AA6
:1059300080ED0E2A80ED0D0AD0ED021A61EE801A7C
:10594000C0ED0C1A90ED040AF4EEC00AF1EE10FA64
:105950000EDCB1EE400AF4EEC00A00E005E0F1EE24
:1059600010FA05D390ED0B0A04E09FED100A704782
:1059700080ED0B0A31EE000A30EE210A80ED090AB3
:10598000D0ED030AB4EEE00AF1EE10FA06DCF1EE17
:10599000600AB4EEE00AF1EE10FA01D2C0ED090A95
:1059A00090ED090A7047000004000020000000008C
:1059B00000282FD000292DD091ED000A80ED000A9B
:1059C00091ED010A80ED010A91ED020A80ED020AD3
:1059D00091ED030A80ED030A91ED040A80ED040ABB
:1059E00091ED050A80ED050A9FED0B0A80ED0F0A87
:1059F00080ED0E0A80ED0D0A80ED090A80ED0C0A9B
:105A000080ED0B0A80ED0A0A80ED120A80ED110A82
:105A100080ED100A70470000000000007047000091
:105A20002DE9F041214EDFF88880224C3368D8F808
:105A30000020934206DDA2680A2A01DA0A22A26047
:105A40000122626000EB4002C2EBC01001EBC00516
:105A5000A0680A281ED14FF47A7795FBF7F007FB70
:105A6000105018B90420218803F064F895FBF7F072
:105A700007FB1050B0F5967F03D10520218803F075
:105A800059F895FBF7F007FB1050B0F52F7F01D1C7
:105A900003F048F83168D8F80000814204D1A068CA
:105AA0000A2801D10020A060BDE8F081D4020020C6
:105AB000D0020020B40200200549E43091ED100A24
:105AC0000449F8EEC00A91ED060AFFF707BF00008F
:105AD000201900200801002003494C30D1ED080AAC
