:020000040800F2
:100000004023002069020008C13400088B31000839
:10001000BD340008E904000815470008000000008E
:10002000000000000000000000000000D5380008BB
:1000300067060008000000007D3500080939000847
:10004000830200088302000883020008830200087C
:10005000830200088302000883020008830200086C
:10006000830200088302000883020008830200085C
:100070000D050008830200088302000883020008BF
:10008000830200088302000883020008830200083C
:10009000ED040008830200088302000883020008C0
:1000A000830200088302000883020008830200081C
:1000B00083020008D939000883020008830200087F
:1000C00083020008830200088302000883020008FC
:1000D00083020008DD43000883020008BD450008D4
:1000E00083020008830200088302000883020008DC
:1000F00083020008830200088302000883020008CC
:1001000083020008830200088302000883020008BB
:1001100083020008830200088302000883020008AB
:10012000830200081D0500088302000883020008FE
:10013000830200088302000883020008830200088B
:10014000FD040008830200088302000883020008FF
:100150002D0500083D0500084D0500080147000871
:10016000830200088302000883020008830200085B
:1001700083020008830200088302000800000000D8
:10018000830200088302000800F002F800F05CF827
:100190000AA090E8000C82448344AAF10107DA45E2
:1001A00001D100F051F8AFF2090EBAE80F0013F0D8
:1001B000010F18BFFB1A43F001031847EC6300005E
:1001C0000C6400000A444FF0000C10F8013B13F0DF
:1001D000070408BF10F8014B1D1108BF10F8015BA0
:1001E000641E05D010F8016B641E01F8016BF9D193
:1001F00013F0080F1EBF10F8014BAD1C0C1B09D1EA
:100200006D1E58BF01F801CBFAD505E014F8016B5B
:1002100001F8016B6D1EF9D59142D6D370470000ED
:100220000023002400250026103A28BF78C1FBD8FF
:10023000520728BF30C148BF0B6070471FB506F09A
:1002400098F91FBD10B510BD00F0F7F81146FFF783
:10025000F5FF05F09DF800F015F903B4FFF7F2FF84
:1002600003BC00F019F9000009488047094800471D
:10027000FEE7FEE7FEE7FEE7FEE7FEE7FEE7FEE756
:10028000FEE7FEE704480549054A064B70470000B3
:10029000C539000889010008401D002040230020C6
:1002A000401F0020401F002053EA020C00F069802C
:1002B0002DE9F04B4FF00006002B1FBFB3FA83F57A
:1002C00003FA05F424FA05F65E4012BF1643B2FAAB
:1002D00082F502FA05F4C5F120051EBF22FA05FCDD
:1002E00044EA0C04203556EA044C4FEA144418BF83
:1002F000641C4FF000084FF00009904271EB030CB2
:1003000039D3002919BFB1FA81F701FA07F6B0FA1B
:1003100080F700FA07F6C7F120071EBF20FA07FC96
:1003200046EA0C062037B6FBF4FCA7EB0507103FA6
:1003300007F01F0BCBF120060CFA0BFB2CFA06F68C
:1003400044BFB3460026202FA4BF5E464FF0000BEB
:100350005BEA060C08BF4FF0010B19EB0B09ABFB76
:10036000027C48EB0608C01B06FB02CC0BFB03CC4F
:1003700071EB0C01C1E70B46024641464846BDE819
:10038000F08B13B54FF000004FF00001AFF3008089
:10039000BDE81C4070474FF000020429C0F01280F5
:1003A00010F0030C00F01B80CCF1040CBCF1020F28
:1003B00018BF00F8012BA8BF20F8022BA1EB0C01FD
:1003C00000F00DB85FEAC17C24BF00F8012B00F8F3
:1003D000012B48BF00F8012B70474FF0000200B519
:1003E000134694469646203922BFA0E80C50A0E858
:1003F0000C50B1F12001BFF4F7AF090728BFA0E806
:100400000C5048BF0CC05DF804EB890028BF40F8D1
:10041000042B08BF704748BF20F8022B11F0804F13
:1004200018BF00F8012B70477047704770470000F5
:1004300000487047DC1C002070477546FFF7F8FF46
:10044000AE4605006946534620F00700854618B0C1
:1004500020B5FFF717FFBDE820404FF000064FF032
:1004600000074FF000084FF0000B21F00701AC46E9
:10047000ACE8C009ACE8C009ACE8C009ACE8C00908
:100480008D46704710B50446AFF300802046BDE8A6
:100490001040FFF7E2BE000001491820ABBEFEE7A6
:1004A000260002009FED0F0A80ED030A9FED0D0A62
:1004B00080ED040A9FED0B0A80ED000A9FED090A0A
:1004C00080ED010A9FED070A80ED020A9FED050A03
:1004D00080ED050A0021018341839FED020A80ED32
:1004E000070A70470000000000BFFEE710B5024891
:1004F00000F0CCFB10BD00002002002010B5024827
:1005000000F0C4FB10BD00004802002010B50248F6
:1005100000F0FEFF10BD00004404002010B50248AA
:1005200000F0F6FF10BD0000A404002010B5024842
:1005300000F0EEFF10BD00008403002010B502485B
:1005400000F0E6FF10BD00000405002010B50248D1
:1005500000F0DEFF10BD0000E40300200146087833
:1005600010381823B0FBF3F20848805CC865032AF2
:1005700005D908686FF30900001D886503E0086865
:100580006FF309008865886D704700008665000874
:10059000014600208A6A8B69CBB932B1012A0DD09D
:1005A000022A03D0032A10D10EE000BFCB6A03F069
:1005B0008073B3F1807F00D1012007E0CB6AB3F1F3
:1005C000C07F00D1012001E000E000BF34E08B6972
:1005D000B3F5005F1AD132B1012A07D0022A03D045
:1005E000032A11D10AE000BF01200EE0CB6A03F01C
:1005F0008073B3F1807F00D1012006E0CB6AB3F1B4
:10060000C07F00D1012000E000BF15E032B1012A17
:1006100005D0022A04D0032A0CD103E000BF00BF9A
:10062000012008E0CB6A03F08073B3F1807F00D132
:10063000012000E000BF00BF704730B504682468A7
:1006400024F4802405682C60046863608468402C6E
:1006500004D10468A2600468E16003E00468A1605A
:100660000468E26030BD70472DE9F0412DED048B48
:1006700005460C461646E0696061002004E02A5CED
:1006800004F10A010A54401C0828F8DB207C01060A
:10069000E07B41EA0041A07B41EA0020617B084306
:1006A000A061A0694042A06141F2FF31A06990FBC6
:1006B000F1F06062A06990FBF1F201FB120000EE24
:1006C000100AF8EEC00A9FED2C1A80EE810ADFEDC9
:1006D0002B0A20EE200ABDEEC00A84ED070A6169EC
:1006E000E069401AB0F5805F0BDDA06A401EA06291
:1006F000D4E9071008446169401AA0F5005020624F
:1007000017E06169E069401A10F5805F0BDAA06AB2
:10071000401CA062D4E9071008446169401A00F542
:100720000050206205E0D4E9071008446169401ACE
:10073000206294ED080AB8EEC00A86ED130AE1695A
:100740006069471A002F01DB394600E0794208460C
:1007500005F062FC41EC190B9FED090B53EC102BDB
:1007600005F0AEFC41EC180B05F018FA2063BDEC67
:10077000048BBDE8F081000000F89F4500F8FF45BC
:1007800079E9263108AC8C3F72B600BFFEE7000065
:100790001448808800EE100AF8EE400A9FED121A05
:1007A00080EE810ADFED110A20EE200A104880ED6C
:1007B0004D0A90ED4D0A0B48D0ED030AF8EEE00A21
:1007C0009FED0A1A00EE810A094880ED4E0A05489D
:1007D000B0F9060000EE100AB8EEC00A044880ED39
:1007E0004C0A7047C412002000F8FF450000B443D3
:1007F000681100200220024981F84601704700007C
:10080000681100209FED161AB0EE410A9FED141AF0
:10081000F0EE410A00209FED121A124981ED491AAB
:100820009FED0F1A81ED4B1A9FED0D1A81ED4D1AB8
:100830009FED0B1A81ED4C1A9FED0B1A81ED481AB2
:100840009FED071A81ED4A1A9FED051A81ED4F1AA7
:100850000021044AA2F84411022182F8461170478F
:10086000000000006811002000006F4310B5024630
:1008700092F82030012B01D0022B06D1106840697C
:10088000084314686061002010BD506A40F4802065
:1008900050620120F8E7F0B504460D461E4694F874
:1008A000207020688368A86800B900E000BF012FAD
:1008B00001D0022F7CD103F0806030B903F00060DA
:1008C00018B903F08050002873D0C3F301610229E6
:1008D00005D9606A40F4000060620120F0BD01208B
:1008E00088403060A86860B9B5F800C0E86840EAA0
:1008F0004C5C206800F5C07000EB0110C0F800C02F
:100900000FE0D5E901C040EACC00D5F80CC040EAC0
:100910000C00D4F800C00CF5C07C0CEB011CCCF82A
:100920000000D5F810C0206800F5C07000EB011081
:10093000C0F804C0287D01280ED1206800F5C070E1
:1009400000EB0110406840F4807C206800F5C07026
:1009500000EB0110C0F804C0D079000692F806C080
:1009600040EA0C4092F805C040EA0C2C10794CEAA1
:10097000000C206800F5C07000EB0110C0F80CC03E
:10098000D078000692F802C040EA0C4092F801C00C
:1009900040EA0C2092F800C040EA0C00D4F800C0F5
:1009A0000CF5C07C0CEB011CCCF80800206801E0C1
:1009B00016E00FE000F5C07000EB0110006840F099
:1009C000010C206800F5C07000EB0110C0F800C0F9
:1009D000002083E7606A40F40010606201207DE738
:1009E000606A40F480206062012077E7F0B5044639
:1009F0000A46216894F82050012D01D0022D7ED1A5
:100A0000424901F50071086840F00100086008687B
:100A100020F47C5008600868566A40EA06200860A6
:100A2000107D00F01F06012000FA06F3C869984304
:100A3000C861A1F50071D069C8B9D1F80C0298431A
:100A4000C1F80C02908880B2968940EA064601F50A
:100A50001070576940F83760108880B2168940EAF4
:100A6000064601F51070576900EBC7004660D06973
:100A7000012819D1D1F80C021843C1F80C02908852
:100A800080B2168840EA064601F51070576940F8B2
:100A90003760908980B2168940EA064601F51070E9
:100AA000576900EBC7004660906928B9D1F8040285
:100AB0009843C1F8040204E0D1F804021843C1F8D5
:100AC0000402106928B9D1F814029843C1F814023D
:100AD00004E0D1F814021843C1F81402106A012886
:100AE00004D1D1F81C021843C1F81C02D1F800024D
:100AF00020F00100C1F800020020F0BDFFE7606AAD
:100B000040F4802060620120F7E7000000640040AC
:100B1000704770B5044694F82050012D01D0022D85
:100B20007DD151B92068C06800F0030080B9606AC7
:100B300040F400106062012070BD2068006900F080
:100B4000030028B9606A40F4001060620120F3E7F6
:100B5000206800F5D87000EB0110006800F0040078
:100B60009060906840B9206800F5D87000EB0110E3
:100B70000068400D106007E0206800F5D87000EBB9
:100B800001100068C0085060206800F5D87000EBC4
:100B90000110006800F00200D060206800F5D870F5
:100BA00000EB0110406800F00F001061206800F5B4
:100BB000D87000EB0110406800F47F40000A90619B
:100BC000206800F5D87000EB01104068000C5061FF
:100BD000206800F5D87000EB01108068187020685C
:100BE00000F5D87000EB0110806800F47F40000A27
:100BF0005870206800F5D87000EB0110806800F490
:100C00007F00000C9870206800F5D87000EB011090
:100C10008068000ED870206800F5D87000E02FE0E2
:100C200000EB0110C0681871206800F5D87000EB67
:100C30000110C06800F47F40000A5871206800F578
:100C4000D87000EB0110C06800F47F00000C9871B0
:100C5000206800F5D87000EB0110C068000ED87154
:100C600031B92068C06840F020002668F06005E0D7
:100C70002068006940F020002668306100205BE7B2
:100C8000606A40F480206062012055E72DE9F05F42
:100C900004460025206846692068D0F80490206842
:100CA00087682068D0F80CA02068D0F810B02068C1
:100CB000D0F8188006F00100002855D007F0010098
:100CC000C0B101202168886007F0020018B12046F9
:100CD00000F0ADFB0EE007F0040010B145F4006534
:100CE00008E007F0080010B145F4805502E0204606
:100CF00000F09CFB07F48070C8B14FF4807021684D
:100D0000886007F4007018B1204600F092FB0EE0F6
:100D100007F4806010B145F4005508E007F4006066
:100D200010B145F4804502E0204600F081FB07F455
:100D30008030C8B14FF480302168886007F40030FB
:100D400018B1204600F077FB0EE007F4802010B1C8
:100D500045F4004508E007F4002010B145F4803563
:100D600002E0204600F066FB06F0080038B10AF009
:100D7000100020B145F4007510202168C86006F00D
:100D8000040040B10AF0080028B108202168C860BA
:100D9000204600F00DFA06F0020038B12068C06865
:100DA00000F0030010B1204600F004FA06F0400005
:100DB00038B10BF0100020B145F480651020216897
:100DC000086106F0200040B10BF0080028B10820AF
:100DD00021680861204600F0F7FA06F0100038B1EB
:100DE0002068006900F0030010B1204600F0EDFA21
:100DF00006F4003040B109F0100028B1102021683D
:100E00004860204600F0E2FA06F4803040B109F074
:100E1000080028B1082021684860204600F00CFB3B
:100E200006F4004088B309F0040078B306F480703B
:100E300020B108F0010008B145F0010506F400708A
:100E400020B108F0020008B145F0020506F4806008
:100E500020B108F0040008B145F0040506F4006074
:100E6000A0B108F0700088B108F07000402817D0D9
:100E700006DC10280BD020280CD0302819D10CE02B
:100E8000502810D0602814D110E01DE019E045F082
:100E900008050FE045F010050CE045F0200509E0DD
:100EA00045F0400506E045F0800503E045F4807517
:100EB00000E000BF00BF2068806920F0700021685A
:100EC00088610420216848602DB1606A284360620F
:100ED0002046FFF71DFEBDE8F09F70B504460CB933
:100EE000012070BD94F8200010B9204600F0B0F841
:100EF0002068006840F001002168086000F0E0FD13
:100F000005460DE000F0DCFD401B0A2808D9606AA8
:100F100040F400306062052084F820000120E0E702
:100F20002068406800F001000028EBD020680068CD
:100F300020F002002168086000F0C2FD05460DE0C7
:100F400000F0BEFD401B0A2808D9606A40F400305A
:100F50006062052084F820000120C2E72068406814
:100F600000F002000028EBD1207E012806D1206885
:100F7000006840F080002168086005E02068006893
:100F800020F0800021680860607E012806D120687A
:100F9000006840F040002168086005E020680068B3
:100FA00020F0400021680860A07E012806D120685A
:100FB000006840F020002168086005E020680068B3
:100FC00020F0200021680860E07E012806D120681A
:100FD000006820F010002168086005E020680068C3
:100FE00040F0100021680860207F012806D12068A9
:100FF000006840F008002168086005E0206800688B
:1010000020F0080021680860607F012806D1206870
:10101000006840F004002168086005E0206800686E
:1010200020F0040021680860D4E902010843216926
:101030000843616908436168491E08432168C86123
:1010400000206062012084F82000002049E70000B1
:1010500010B586B00446142101A8FFF7BEF94E4929
:101060002068884241D14D480068401C4B490860C7
:101070000846006801280FD100BF002000904848B2
:10108000006840F00070464908600846006800F0BB
:101090000070009000BF00BF00BF002000904048DB
:1010A0001038006840F008003D49103908600846D3
:1010B000006800F00800009000BF00BF032001900E
:1010C0000220029000200390032004900920059044
:1010D00001A9344800F0FCFB00220121142000F09B
:1010E00079FD142000F066FD54E02F492068884205
:1010F00050D100BF002000902948006840F0806077
:10110000274908600846006800F08060009000BF32
:1011100000BF22480068401C20490860084600685B
:1011200001280FD100BF002000901D48006840F04A
:1011300000701B4908600846006800F000700090CD
:1011400000BF00BF00BF00200090154810380068A5
:1011500040F002001249103908600846006800F0AB
:101160000200009000BF00BF6020019002200290AA
:1011700000200390032004900920059001A90B484A
:1011800000F0A6FB00220121402000F023FD4020BA
:1011900000F010FD06B010BD00640040000000200B
:1011A00040380240000C0240006800400004024049
:1011B00070470000F0B52DED028B89B005467448EC
:1011C00085427DD16B4602AA0021FFF7A2FC70493F
:1011D000684604F07DF90446B4F9000000EE100AF8
:1011E000B8EEC08AB4F90260B4F9047040F2032288
:1011F0000298811A904225D007DC0D2842D0A0F237
:10120000012048B1012864D111E0012925D0052928
:101210002ED006295DD13EE0BCEEC80A10EE100AC1
:1012200081B23B4632465B4803F0A0FF51E0BCEE82
:10123000C80A10EE100A81B23B463246564803F007
:1012400095FF46E0BCEEC80A10EE100A81B23B469C
:101250003246524803F08AFF3BE0BCEEC80A10EE6B
:10126000100A81B23B4632464D4803F07FFF30E022
:10127000BCEEC80A10EE100A81B23246494802F0AC
:10128000C3FC26E0484A49496846FFF7EDF90120CA
:10129000474908601DE047488088464908809DF816
:1012A00001009DF8001040EA0120424988809DF825
:1012B00003009DF8021040EA012000B23D4900E021
:1012C00008E0C8800A46B2F90610908803F0D6FEFE
:1012D00000BF58E03848854255D16B4602AA00212C
:1012E000FFF717FC3449684604F0F2F80446029808
:1012F000062806D0122836D0132817D0162841D138
:101300003BE06088217840EA012000B200EE100A3C
:10131000B8EEC00A294880ED480AE088217940EA01
:10132000012000B22549A1F844012BE06088217812
:1013300040EA012000B21749C862E088217940EAFA
:10134000012000B21449C8626089217A40EA012074
:1013500000B21249C862E089217B40EA012000B254
:101360000F49C8620EE02088012805D114490860A1
:1013700004F060F90020208004E09DF8000011498D
:10138000086000BF00BF09B0BDEC028BF0BD0000DB
:1013900020020020AC050020C4060020DC0700204D
:1013A000F4080020A81000206C0E0020E813002094
:1013B000A8010020C412002048020020681100206B
:1013C000200000204000002070477047704770B533
:1013D000044694F82000012822D1022084F820003D
:1013E0002068006820F001002168086000F068FBB8
:1013F00005460DE000F064FB401B0A2808D9606A2E
:1014000040F400306062052084F82000012070BDA7
:101410002068406800F001000028EBD16062F6E728
:10142000606A40F4002060620120F0E77047704776
:101430007047704770477047704770B50446A56D98
:1014400000F03EFB064694F83500022808D08020C4
:10145000606500BF002084F8340000BF012070BD2B
:101460002068006820F01600216808602068406944
:1014700020F0800021684861206C08B9A06C28B178
:101480002068006820F00800216808602068006873
:1014900020F001002168086010E000F011FB801BC3
:1014A00005280BD920206065032084F8350000BF93
:1014B000002084F8340000BF0320D0E720680068D3
:1014C00000F001000028E8D194F85C103F2088402B
:1014D000A860012084F8350000BF002084F83400A3
:1014E00000BF00BFBBE7014691F83500022803D0DA
:1014F0008020486501207047052081F83500086884
:10150000006820F001000A6810600020F3E7000086
:10151000F8B50446002000908C4800684FF416513E
:10152000B0FBF1F7A56D2E6894F85C100820884098
:10153000304098B12068006800F0040070B1206865
:10154000006820F004002168086094F85C1008200E
:101550008840A860606D40F00100606594F85C1000
:1015600001208840304068B12068406900F0800068
:1015700040B194F85C1001208840A860606D40F094
:101580000200606594F85C1004208840304068B127
:101590002068006800F0020040B194F85C1004205C
:1015A0008840A860606D40F00400606594F85C10AD
:1015B00010208840304078B32068006800F00800B0
:1015C00050B394F85C1010208840A8602068006830
:1015D00000F4802080B12068006800F4002028B961
:1015E000206CC8B12046216C884715E0A06C98B1EA
:1015F0002046A16C88470FE02068006800F48070E6
:1016000028B92068006820F0080021680860206C74
:1016100010B12046216C884794F85C102020884047
:101620003040002865D02068006800F010000028D5
:101630005FD094F85C1020208840A86094F83500B2
:10164000052828D12068006820F01600216808606D
:101650002068406920F0800021684861206C08B94A
:10166000A06C28B12068006820F00800216808609C
:1016700094F85C103F208840A860012084F8350071
:1016800000BF002084F8340000BF206D10B1204658
:10169000216D8847F8BD2068006800F4802080B183
:1016A0002068006800F4002028B9606C10B1204662
:1016B000616C88471DE0E06BD8B12046E16B88473C
:1016C00017E02068006800F4807068B9206800683E
:1016D00020F0100021680860012084F8350000BF68
:1016E000002084F8340000BFE06B10B12046E16BAD
:1016F0008847606D38B3606D00F00100F0B10520DF
:1017000084F835002068006820F001002168086036
:1017100000BF0098401C0090B84200D905E0206846
:10172000006800F001000028F3D100BF012084F818
:10173000350000BF002084F8340000BFE06C10B119
:101740002046E16C884700BFA4E70000E4010020C8
:101750002DE9F0410446002500F0B2F9074614B91E
:101760000120BDE8F081606A00B100BF022084F86A
:10177000350000BF002084F8340000BF20680068F6
:1017800020F00100216808600AE000F099F9C01B10
:10179000052805D920206065032084F83500E0E79E
:1017A0002068006800F001000028EED1206805687C
:1017B00021480540D4E901010843E1680843216953
:1017C000084361690843A1690843E1690843216A44
:1017D00008430543606A042803D1D4E90B01084398
:1017E0000543206805602068456925F00705606AA3
:1017F0000543606A04280DD1A06A0543E06A48B138
:101800002046FEF7C5FE28B140206065012084F81F
:101810003500A6E7206845612046FEF79FFE064694
:1018200094F85C103F208840B06000206065012083
:1018300084F83500002094E73F8010F02DE9F04750
:1018400004460D4616461F464FF00008D4F858903F
:1018500000BF94F83400012802D10220BDE8F087CF
:10186000012084F8340000BF94F83500012825D108
:10187000022084F83500002060653B463246294648
:101880002046FEF7DAFE94F85C103F208840C9F845
:1018900008002068006840F0160021680860206C8D
:1018A00028B12068006840F00800216808602068BE
:1018B000006840F001002168086006E000BF0020D9
:1018C00084F8340000BF4FF002084046C6E700002D
:1018D000F8B502460B460025002400200021D5E083
:1018E000012606FA01F51E6806EA0504AC4274D129
:1018F0001E7906F00306012E04D01E7906F00306B9
:10190000022E13D190684F000326BE40B0434F0013
:10191000DE68BE4030439060506801268E40B04380
:101920001E79C6F300168E40304350601E7906F0D3
:101930000306032E09D0D0684F000326BE40B043F3
:101940004F009E68BE403043D0601E7906F003060B
:10195000022E13D1CF0802F1200656F827004E07B9
:10196000F70E0F26BE40B0434F07FF0E1E69BE4064
:101970003043CF0802F1200646F8270010684F00D8
:101980000326BE40B0431E7906F003064F00BE405A
:10199000304310605E6806F44036002E75D000BFFC
:1019A000002600963B4E366846F48046394F3E602E
:1019B0003E46366806F48046009600BF00BF364EAD
:1019C0008F0856F827008E07370F0F26BE40B0430A
:1019D000324EB24202D1002624E056E0304EB242EE
:1019E00001D101261EE02F4EB24201D1022619E09C
:1019F0002D4EB24201D1032614E02C4EB24201D149
:101A000004260FE02A4EB24201D105260AE0294EF3
:101A1000B24201D1062605E0274EB24201D1072687
:101A200000E008268F073F0FBE4030431A4E8F0854
:101A300046F82700214E3068A0435E6806F48036E1
:101A400006B120431D4E3060361D3068A0435E68ED
:101A500006F4003606B12043184E361D3060361DA0
:101A60003068A0435E6806F4801606B12043134E2A
:101A700008363060361D3068A0435E6806F40016F4
:101A800006B120430D4E0C363060491C1029FFF47E
:101A900027AFF8BD4438024008380140000002403A
:101AA0000004024000080240000C02400010024006
:101AB0000014024000180240001C0240003C01409B
:101AC0000148006870470000D80100200348006802
:101AD000034909780844014908607047D80100208B
:101AE000E001002010B50D48006840F400700B497B
:101AF00008600846006840F4806008600846006896
:101B000040F480700860032000F0A2F80F2000F07D
:101B100007F800F02BF8002010BD0000003C024048
:101B200070B504460E4800784FF47A71B1FBF0F0BE
:101B30000C490968B1FBF0F5284600F02BFC08B110
:101B4000012070BD102C07D200222146501E00F04B
:101B500041F80548046001E00120F2E70020F0E7C9
:101B6000E0010020E4010020DC01002008B500BFF6
:101B7000002000900E48006840F480400C49086046
:101B80000846006800F48040009000BF00BF00BF1E
:101B900000200090081F006840F08050091F086076
:101BA0000846006800F08050009000BF00BF08BDEC
:101BB0004438024001460846002809DB00F01F03B4
:101BC00001229A4043099B0003F1E023C3F800215E
:101BD00000BF70472DE9F05F80460D46164600278E
:101BE00002F0C4FD074639462A46334601F0070095
:101BF000C0F1070ABAF1040F02D94FF0040A01E05C
:101C0000C0F1070AD14600F1040ABAF1070F02D267
:101C10004FF0000A01E0A0F1030AD4464FF0010A98
:101C20000AFA09FAAAF1010A0AEA020A0AFA0CFAFD
:101C30004FF0010B0BFA0CFBABF1010B0BEA030BA2
:101C40004AEA0B042146404602F098FDBDE8F09FA9
:101C500000BF00F00702064B19684FF6FF0319405A
:101C6000044B0B4343EA0221014B196000BF70474C
:101C70000CED00E00000FA0570B504460D460CB905
:101C8000012070BD5848006800F00700A84209D242
:101C900055490D700846006800F00700A84201D0C1
:101CA0000120EEE7207800F0020002281DD1207804
:101CB00000F00400042805D14C48006840F4E050CE
:101CC0004A490860207800F00800082805D14748F4
:101CD000006840F46040454908604448006820F0CE
:101CE000F000A168084341490860207800F0010035
:101CF000A8B36068012807D13C4808380068C0F3E1
:101D00004040B8B90120BCE76068022802D0606892
:101D1000032807D1354808380068C0F3406048B947
:101D20000120AEE7314808380068C0F3400008B928
:101D30000120A6E72D48006820F0030061680843F1
:101D40002A490860FFF7BCFE064609E0FFF7B8FE27
:101D5000801B41F28831884202D9032091E707E0D5
:101D60002248006800F00C006168B0EB810FEDD1F3
:101D70001D48006800F00700A84209D91A490D70F3
:101D80000846006800F00700A84201D0012078E76B
:101D9000207800F00400042807D11448006820F4DB
:101DA000E050E168084311490860207800F008001D
:101DB000082808D10D48006820F46040216940EAF5
:101DC000C1000A49086000F03FF808490968C1F3FA
:101DD0000311074A515CC84006490860064800687C
:101DE000FFF79EFE00204CE7003C0240083802400E
:101DF0008E650008E4010020DC0100200148006835
:101E000070470000E401002000B5FFF7F7FF044928
:101E10000968C1F38221034A515CC84000BD00003B
:101E2000083802409E65000800B5FFF7E7FF044947
:101E30000968C1F34231034A515CC84000BD00004B
:101E4000083802409E6500082DE9F047002400256F
:101E50000026A1462548006800F00C0020B10428A7
:101E600005D008283AD105E0DFF8849039E0DFF8A2
:101E7000849036E01D48001F006800F03F041B48B6
:101E8000001F006800F4800078B11A481749091F44
:101E90000968C1F38811A0FB0170014622460023A6
:101EA0003846FEF701FA05460EE011480F49091FB2
:101EB0000968C1F38811A0FB017001462246002386
:101EC0003846FEF7F1F905460848001F0068C0F3E0
:101ED0000140401C4600B5FBF6F902E0DFF8109027
:101EE00000BF00BF4846BDE8F08700000838024048
:101EF0000024F400001BB700F8B504460CB901201B
:101F0000F8BD207800F00100002874D0F94800687E
:101F100000F00C0004280DD0F648006800F00C001A
:101F2000082813D1F348001F006800F48000B0F5C2
:101F3000800F0BD1EF4808380068C0F340400028FC
:101F400059D06068002856D10120D9E700BF6068E9
:101F5000B0F5803F08D1E7480838006840F4803089
:101F6000E449083908601EE06068B0F5A02F0DD183
:101F7000E0480838006840F48020DE4908390860ED
:101F80000846006840F4803008600CE0D948083802
:101F9000006820F48030D749083908600846006896
:101FA00020F48020086000BF606890B1FFF788FDD2
:101FB000054606E0FFF784FD401B642801D9032095
:101FC0009EE7CC4808380068C0F340400028F1D0B4
:101FD00011E0FFF775FD054606E0FFF771FD401BB8
:101FE000642801D903208BE7C24808380068C0F391
:101FF00040400028F1D1207800F0020002285FD193
:10200000BC48006800F00C0058B1BA48006800F005
:102010000C0008281CD1B748001F006800F480009D
:10202000B0B9B44808380068C0F3400020B1E06897
:10203000012801D0012063E7AE480838006820F08D
:10204000F800216940EAC100AA490839086037E070
:10205000E06800B30120A8490860FFF731FD05469C
:1020600006E0FFF72DFD401B022801D9032047E7BA
:10207000A04808380068C0F340000028F1D09D480F
:102080000838006820F0F800216940EAC100994949
:102090000839086014E0002097490860FFF710FD38
:1020A000054606E0FFF70CFD401B022801D903207E
:1020B00026E7904808380068C0F340000028F1D1B6
:1020C000207800F0080008282CD16069A8B1012010
:1020D0008A490860FFF7F4FC054606E0FFF7F0FCCC
:1020E000401B022801D903200AE782486C300068AF
:1020F000C0F340000028F1D014E000207F490860C0
:10210000FFF7DEFC054606E0FFF7DAFC401B02287D
:1021100001D90320F4E677486C300068C0F3400032
:102120000028F1D1207800F00400042870D10027A5
:1021300070483830006800F0805090B900BF00202F
:1021400000906C483830006840F080506949383160
:1021500008600846006800F08050009000BF00BF93
:1021600001276748006800F48070B0B964480068CF
:1021700040F4807062490860FFF7A2FC054606E063
:10218000FFF79EFC401B022801D90320B8E65C48FB
:10219000006800F480700028F2D000BFA068012819
:1021A00008D154486830006840F001005149683156
:1021B00008601DE0A06805280DD14E486830006811
:1021C00040F004004B49683108600846006840F060
:1021D000010008600CE047486830006820F001000A
:1021E0004449683108600846006820F0040008602F
:1021F00000BFA068A8B1FFF763FC054609E0FFF740
:102200005FFC401B41F28831884202D9032077E607
:1022100026E0384868300068C0F340000028EED05F
:1022200013E0FFF74DFC054608E0FFF749FC401BB3
:1022300041F28831884201D9032061E62D48683097
:102240000068C0F340000028EFD1012F07D12948D2
:102250003830006820F0805026493831086000BFCF
:10226000A069002845D02348006800F00C00082829
:102270005DD0A069022845D100201F490866FFF7FC
:102280001FFC054606E0FFF71BFC401B022801D996
:10229000032035E6174808380068C0F3406000287E
:1022A000F1D1D4E907010843616A40EA81110122B2
:1022B000A06AC2EB500041EA00412C20005D41EAD7
:1022C00000600C49091F086001200B490866FFF7F0
:1022D000F7FB054606E0FFF7F3FB401B022801D998
:1022E00003200DE6034808380068C0F3406000286A
:1022F000F1D049E00838024000004742800E4742D2
:1023000000700040002021490866FFF7D9FB054610
:1023100006E0FFF7D5FB401B022801D90320EFE5BB
:102320001B480068C0F340600028F2D12CE0A0698F
:10233000012800D1E4E51648001D0668A0690128BF
:1023400020D006F48001E06981421BD106F03F01F4
:10235000206A814216D147F6C0703040616AB0EB06
:10236000811F0FD106F440310122A06AC2EB500058
:10237000B1EB004F06D106F070612C20005DB1EB8F
:10238000006F01D00120BBE50020B9E50000474205
:102390000038024070B504462546681EB0F1807FC3
:1023A00001D301200FE0681E4FF0E02148610F21AA
:1023B0004FF0FF3002F0E2F900204FF0E021886199
:1023C00007200861002070BD7047704730B5024695
:1023D0000B4600BF92F83C00012801D1022030BD1D
:1023E000012082F83C0000BF022082F83D00106806
:1023F00044681068816824F0700418680443106809
:102400004460184D1068A8421BD01068B0F1804F8E
:1024100017D0154D1068A84213D0144D1068A8426B
:102420000FD0134D1068A8420BD0124D1068A8426F
:1024300007D0114D1068A84203D0104D1068A84273
:1024400005D121F0800158680143106881600120A6
:1024500082F83D0000BF002082F83C0000BF00BFB2
:10246000BDE70000000001400004004000080040FB
:10247000000C0040000401400040014000180040F2
:1024800010B504460CB9012010BD94F83D0028B9E0
:10249000002084F83C00204600F026F8022084F852
:1024A0003D00211D206801F09FFA012084F84600BC
:1024B00000BF84F83E0001213F2001554020015516
:1024C0004120015500BF00BF012084F84200432095
:1024D0000155442001554520015500BF012084F8D5
:1024E0003D000020D0E7000038B504460E492068C2
:1024F000884217D100BF002000900C48006840F0CF
:1025000002000A4908600846006800F002000090D6
:1025100000BF00BF002201211D20FFF75BFB1D2033
:10252000FFF748FB38BD000000040040403802407F
:10253000014691F83D00012801D00120704702209A
:1025400081F83D000868C06840F001000B68D86061
:102550001A4B086898421BD00868B0F1804F17D01A
:10256000174B0868984213D0164B086898420FD052
:10257000154B086898420BD0144B0868984207D056
:10258000134B0868984203D0124B086898420CD14C
:102590000868806800F00702062A0CD00868006806
:1025A00040F001000B68186005E00868006840F022
:1025B00001000B6818600020C0E700000000014027
:1025C0000004004000080040000C004000040140EE
:1025D00000400140001800402DE9F04104460D463E
:1025E000002700BF94F83C00012802D10220BDE87A
:1025F000F081012084F83C0000BF022084F83D00F7
:102600002068866826F0770626F47F462068866074
:102610002868502833D00CDC202850D004DC002857
:102620004BD0102851D149E0302849D040284CD116
:1026300039E060282DD0702807D0B0F5805F03D036
:10264000B0F5005F41D10DE041E0D5E902136A68C1
:10265000206801F035FA2068866846F07706206821
:10266000866034E0D5E902136A68206801F028FA30
:102670002068806840F480402168886027E0EA682C
:102680006968206801F030FA5021206801F023FACF
:102690001DE0EA686968206801F039FA6021206865
:1026A00001F019FA13E0EA686968206801F01CFA81
:1026B0004021206801F00FFA09E000BF00BF00BF11
:1026C0002968206801F007FA01E0012700BF00BF78
:1026D000012084F83D0000BF002084F83C0000BFCA
:1026E000384684E7704710B5044620680069C0F397
:1026F0004000D8B12068C068C0F34000B0B16FF0AE
:10270000020021680861012020772068806900F0BC
:10271000030018B12046FFF7E5FF05E0204600F072
:10272000ADF8204600F0ABF8002020772068006963
:10273000C0F38000D8B12068C068C0F38000B0B199
:102740006FF004002168086102202077206880690A
:1027500000F4407018B12046FFF7C4FF05E02046A2
:1027600000F08CF8204600F08AF8002020772068DE
:102770000069C0F3C000D8B12068C068C0F3C000D1
:10278000B0B16FF00800216808610420207720684C
:10279000C06900F0030018B12046FFF7A3FF05E071
:1027A000204600F06BF8204600F069F80020207702
:1027B00020680069C0F30010D8B12068C068C0F379
:1027C0000010B0B16FF01000216808610820207778
:1027D0002068C06900F4407018B12046FFF782FFFE
:1027E00005E0204600F04AF8204600F048F80020B6
:1027F00020772068006900F0010058B12068C068A7
:1028000000F0010030B16FF001002168086120463E
:1028100000F036F820680069C0F3C01058B1206895
:10282000C068C0F3C01030B16FF08000216808614B
:102830002046FFF7C9FD20680069C0F3801058B139
:102840002068C068C0F3801030B16FF0400021688C
:102850000861204600F048F820680069C0F3401085
:1028600058B12068C068C0F3401030B16FF020004C
:10287000216808612046FFF7A8FD10BD704770472A
:1028800010B5044617480068401C16490860084601
:1028900000680A2190FBF1F201FB1200052801D12A
:1028A00003F076F90F4800680A2190FBF1F201FB72
:1028B000120018B902F042FC02F0DAFF0948006881
:1028C0000A2190FBF1F201FB1200082801D102F06D
:1028D00011FF04480068B0F57A7F02DB012001494E
:1028E000086010BDC00000207047704770B50446F6
:1028F000002520684069C0F3C01594F83D002128E8
:1029000017D1B5B100BF00BF2168143151E8001FD5
:1029100021F080002168143141E80002002AF3D13F
:1029200000BF606B10B1606BFEF787FD204601F0C1
:10293000ADFA20684069C0F3801594F83E00222863
:1029400017D1B5B100BF00BF2168143151E8001F95
:1029500021F040002168143141E80002002AF3D13F
:1029600000BFA06B10B1A06BFEF767FD204601F021
:1029700047FA002070BD70472DE9F84F04462068E3
:1029800005682068C668206847694FF00009CA4694
:1029900005F00F09B9F1000F0AD105F0200038B198
:1029A00006F0200020B1204601F083FABDE8F88F40
:1029B000B9F1000F7CD007F0010018B906F490704F
:1029C000002875D005F0010030B106F4807018B110
:1029D000206C40F00100206405F0040030B107F0E5
:1029E000010018B1206C40F00200206405F00200E4
:1029F00030B107F0010018B1206C40F004002064F1
:102A000005F0080048B106F0200010B907F00100F9
:102A100018B1206C40F008002064206C002846D0DB
:102A200005F0200028B106F0200010B1204601F08A
:102A300040FA20684069C0F3801A206C00F008005A
:102A400010B9BAF1000F2DD0204601F0D9F9206855
:102A5000406900F04000402820D100BF00BF21683D
:102A6000143151E8001F21F040002168143141E881
:102A70000002002AF3D100BFA06B50B17548A16BD2
:102A80000865A06BFEF72FFD88B1A06B016D88472C
:102A90000DE02046FFF76FFF09E009E02046FFF751
:102AA0006AFF04E02046FFF766FF002020647DE710
:102AB000206B012876D105F01000002872D006F0B6
:102AC00010000028FAD000BF0020009020680068A5
:102AD000009020684068009000BF00BF20684069F7
:102AE00000F0400040285ED1A06B006840681FFAEB
:102AF00080F8B8F1000F54D0A08D404551DDA4F806
:102B00002E80A06BC069B0F5807F43D000BF00BFAE
:102B100021680C3151E8001F21F4807021680C31CC
:102B200041E80002002AF3D100BF00BF00BF2168C6
:102B3000143151E8001F21F001002168143141E8EF
:102B40000002002AF3D100BF00BF00BF216814318A
:102B500051E8001F21F040002168143141E80002D3
:102B6000002AF3D100BF202084F83E00002020631B
:102B700000BF00BF21680C3151E8001F21F0100098
:102B800021680C3141E80002002AF3D100BFA06B9C
:102B9000FEF753FCA08DE28D801A81B22046FFF72C
:102BA000A4FE03E740E0A08DE18D401A1FFA80F8F3
:102BB000E08DC0B3B8F1000F35D000BF00BF216871
:102BC0000C3151E8001F21F4907021680C3141E86C
:102BD0000002002AF3D100BF00BF00BF21681431FA
:102BE00051E8001F21F001002168143141E8000282
:102BF000002AF3D100BF202084F83E00002020638B
:102C000000BF00BF21680C3151E8001F21F0100007
:102C100021680C3141E80002002AF3D100BF41468F
:102C20002046FFF762FEC1E605F0800030B106F0F5
:102C3000800018B1204601F058FBB7E605F04000CF
:102C400030B106F0400018B1204601F00FF9ADE6B2
:102C500000BFABE6CD3C000810B504460CB901201E
:102C600010BDA06900B100E000BF94F83D0028B994
:102C7000002084F83C00204600F028F8242084F846
:102C80003D002068C06820F400502168C8602046DC
:102C900001F08CF92068006920F4904021680861F7
:102CA0002068406920F02A00216848612068C068D7
:102CB00040F400502168C86000202064202084F87F
:102CC0003D0084F83E000020CAE7000010B586B041
:102CD0000446142101A8FDF780FBB0492068884212
:102CE0007ED100BF00200090AD48006840F0100089
:102CF000AB4908600846006800F01000009000BF73
:102D000000BF00BF00200090A5481438006840F0C4
:102D10000200A349143908600846006800F0020068
:102D2000009000BF00BF00BF002000900846006870
:102D300040F0010008600846006800F001000090C3
:102D400000BF00BF8020019002200290002003906D
:102D5000032004900720059001A99248FEF7B8FDD2
:102D60004FF4007001900220029000200390032095
:102D700004900720059001A98B48FEF7A9FD8B4818
:102D80008B4908604FF000604860002188488160EE
:102D9000C1604FF480610161002141618161C161C5
:102DA0004FF40031016200214162FEF7D1FC08B10D
:102DB000FDF7EAFC00BF7E48A063846300BF7B4848
:102DC00030307C4908604FF000604860402179480D
:102DD00081600021C1604FF480610161002100E049
:102DE0001AE041618161C1614FF4803101620021CB
:102DF0004162FEF7ADFC08B1FDF7C6FC00BF6D48AF
:102E00006063846300BF002201212520FEF7E2FEFB
:102E10002520FEF7CFFEBEE06749206888425BD1DF
:102E200000BF002000905E48001F006840F4802032
:102E30005B49091F08600846006800F48020009084
:102E400000BF00BF00BF0020009055481438006844
:102E500040F004005249143908600846006800F048
:102E60000400009000BF00BF4FF4406001900220BA
:102E7000029000200390032004900720059001A9F0
:102E80004E48FEF725FD4E484E4908604FF0006061
:102E9000486000214B488160C1604FF4806101614E
:102EA000002141618161C1614FF4803101620021E3
:102EB0004162FEF74DFC08B1FDF766FC00BF4148DA
:102EC000A063846300BF002211462720FEF782FE24
:102ED0002720FEF76FFE5EE03B49206888425AD10A
:102EE00000BF002000902E48006840F020002C49D0
:102EF00008600846006800F02000009000BF00BF96
:102F000000BF0020009026481438006840F04000C0
:102F10002349143908600846006800F0400000901A
:102F200000BF00BF4FF484400190022002900020B7
:102F30000390032004900820059001A92348FEF780
:102F4000C7FC1A481830224908604FF020604860DA
:102F500040211F4881600021C1604FF48061016100
:102F6000002141618161C1614FF480310162002122
:102F70004162FEF7EDFB08B1FDF706FC00BF144807
:102F80006063846300BF002211464720FEF722FEE3
:102F90004720FEF70FFE06B010BD000000100140F4
:102FA00044380240000402400000024088640240AD
:102FB00084030020E4030020004800400008024091
:102FC0002860024044040020001401400018024020
:102FD0000405002070B504460D46164694F83E00E0
:102FE000202816D105B10EB9012070BD00BF94F89C
:102FF0003C00012801D10220F7E7012084F83C00C1
:1030000000BF0020206332462946204601F0E4F844
:10301000EBE70220E9E770B504460D46164694F842
:103020003E00202816D105B10EB9012070BD00BFA9
:1030300094F83C00012801D10220F7E7012084F830
:103040003C0000BF0020206332462946204601F0A4
:1030500029F9EBE70220E9E710B50446104920689A
:1030600088421BD10F48007823280FD00E480078E3
:1030700001280EDC0B4800780C490B4A1278885462
:1030800009480078401C0849087002E00020064901
:103090000870012203490648FFF7BDFF10BD00007C
:1030A000001401409801002099010020E80100204F
:1030B0004003002070472DE9F84F04460E4617469E
:1030C00099464FF0000A94F83D0020285AD106B1E5
:1030D00017B90120BDE8F88F00BF94F83C00012823
:1030E00001D10220F6E7012084F83C0000BF002057
:1030F0002064212084F83D00FEF7E2FC8246A7848C
:10310000E784A068B0F5805F04D1206910B900257C
:10311000B04602E035464FF0000800BF002084F8BA
:103120003C0000BF1BE05346002280212046CDF822
:10313000009001F00AF908B10320CBE745B9B8F8CF
:103140000000C0F308002168486008F1020803E0AD
:103150002878216848606D1CE08C401EE084E08C7B
:103160000028E0D15346002240212046CDF80090AF
:1031700001F0EBF808B10320ACE7202084F83D0013
:103180000020A7E70220A5E7704700BFFEE7000088
:1031900000B500F0A1FB0A20054948700B20054945
:1031A00048700C20044948700D200449487000BD47
:1031B0004C13002080130020B4130020E8130020DB
:1031C00010B50F480F4908600320486000210D48E2
:1031D0008160C1604FF4802101614FF4E0014161E1
:1031E000002101760121417681760021C1760177A7
:1031F0004177FDF772FE08B1FDF7C6FA10BD000079
:10320000006400402002002010B50F480F490860FC
:103210000320486000210D488160C1604FF4802187
:1032200001614FF4E0014161002101760121417605
:1032300081760021C17601774177FDF74EFE08B116
:10324000FDF7A2FA10BD000000680040480200200F
:1032500008B500BF002000902248006840F400102C
:10326000204908600846006800F40010009000BF84
:1032700000BF00BF002000900846006840F48000B6
:1032800008600846006800F48000009000BF00BF9E
:10329000002211460C20FEF79DFC0C20FEF78AFC54
:1032A000002211463920FEF795FC3920FEF782FCFA
:1032B000002211464420FEF78DFC4420FEF77AFCE4
:1032C000002211464520FEF785FC4520FEF772FCE2
:1032D000002211464620FEF77DFC4620FEF76AFCE0
:1032E00008BD00003038024008B500BF0020009043
:1032F0002C48006840F002002A490860084600682F
:1033000000F00200009000BF00BF00BF002000904E
:103310000846006840F0400008600846006800F079
:103320004000009000BF00BF00BF00200090084692
:10333000006840F0010008600846006800F00100E5
:10334000009000BF00BF00BF00200090084600684A
:1033500040F0080008600846006800F0080000908F
:1033600000BF00BF00BF002000900846006840F08A
:10337000040008600846006800F00400009000BFE8
:1033800000BF00BF002000900846006840F08000A9
:1033900008600846006800F08000009000BF00BF91
:1033A00008BD00003038024000B587B0002003900F
:1033B000049005900690019002901448144908600A
:1033C0005320486000211248816040F2E731C1601B
:1033D000002101618161FFF753F808B1FDF7D4F9CD
:1033E0004FF48050039003A90948FFF7F5F808B19E
:1033F000FDF7CAF900200190029001A90448FEF7E8
:10340000E5FF08B1FDF7C0F907B000BD00040040BA
:103410007002002010B50B480B4908604FF4E130F2
:103420004860002108488160C16001610C21416150
:1034300000218161C161FFF70FFC08B1FDF7A4F91C
:1034400010BD000000100140B802002010B50A486D
:103450000A4908600A484860002108488160C16044
:1034600001610421416100218161C161FFF7F4FB29
:1034700008B1FDF789F910BD00480040FC020020AA
:10348000A086010010B50B480B4908604FF4E130ED
:103490004860002108488160C16001610C214161E0
:1034A00000218161C161FFF7D7FB08B1FDF76CF91D
:1034B00010BD0000001401404003002000BFFEE7E3
:1034C00000BFFEE700B101B9704791ED000A80ED41
:1034D000000A91ED010A80ED010A91ED020A80EDEA
:1034E000020A91ED030A80ED030A91ED040A80EDD2
:1034F000040A9FED0D0A80ED0E0A80ED0D0A80EDA5
:103500000C0A9FED090A80ED080A80ED0B0A80ED98
:103510000A0A80ED090A80ED110A80ED100A80ED9B
:103520000F0A00BFD0E70000000000009FED120A64
:1035300080ED030A9FED100A80ED040A9FED0E0A4C
:1035400080ED000A9FED0C0A80ED010A9FED0A0A4A
:1035500080ED020A9FED080A80ED050A9FED060A3C
:1035600080ED060A9FED040A80ED070A9FED020A2E
:1035700080ED080A70470000000000007047014617
:10358000002901DD08467047484200B2FBE7000011
:1035900010B52649B1F90000FFF7F1FF40F2946140
:1035A000884200DD27E02149B1F90200FFF7E7FF7B
:1035B00040F29461884200DD1DE01C49B1F904002D
:1035C000FFF7DDFF40F29461884200DD13E0174908
:1035D000B1F90600FFF7D3FF40F29461884200DDA5
:1035E00009E01248807A00B905E01048C07A00B9B5
:1035F00001E0002010BD00200C4908804880888030
:10360000C88008810220887202210848C172002007
:103610000649888100210548C18101828174C174F5
:103620000020024988820120E4E7000078010020A0
:1036300010B5234B1B685B6943F04003204C2468A2
:1036400063611F4B1B68DB6843F010031C4C24684C
:10365000E3601C4B1B681B6823F00103194C2468B2
:10366000236007E0174B1B681B6823F00103154C10
:1036700024682360134B1B681B6803F00103002BB5
:10368000F0D1114B0F4C2468A3600E4B1B68D8601F
:103690000C4B1B6819610B4B1B685A60094B1B686C
:1036A0001B6843F48023074C24682360054B1B6888
:1036B0001B6843F00103034C2468236010BD000025
:1036C000FC020020440400200448004008B52C49B6
:1036D0000968C96821F40051294A1268D160294952
:1036E0000968096821F00101264A12681160242145
:1036F000244A1268516000BF0021009120490968E6
:10370000096800911E4909684968009100BF00BF1F
:103710001C4909681C4A914205D94FF400111A4A04
:103720004C3A11601BE017490968184A914205D9C3
:103730004FF40011144A503A116010E01149096821
:10374000124A603A914205D94FF400110F4AB83A33
:10375000D16004E04FF400110C4AB83A9160084976
:103760000968C96841F40051054A1268D1600549E9
:103770000968096841F00101024A1268116008BD38
:10378000FC0200204404002058640240B86002405B
:1037900010B5494B1B685B6943F04003464C2468F5
:1037A0006361454B1B685B6943F08003424C2468AE
:1037B0006361414B1B68DB6843F010033E4C246897
:1037C000E3603E4B1B681B6823F001033B4C2468FD
:1037D000236007E0394B1B681B6823F00103374C5B
:1037E00024682360354B1B681B6803F00103002B22
:1037F000F0D1324B1B68324CA34205D94FF4001371
:103800002F4C4C3C23601BE02C4B1B682D4CA342DF
:1038100005D94FF400132A4C503C236010E0274B8D
:103820001B68284C603CA34205D94FF40013254C7B
:10383000B83CE36004E04FF40013224CB83CA360B2
:10384000214B1E4C2468A360204B1C4C2468E36071
:103850001A4C24682361194B1B685A60174B1B686C
:103860001B6843F48023154C24682360134B1B68AA
:103870001B6843F00103114C24682360144B1B6840
:103880001B6823F00103124C2468236007E0104BEF
:103890001B681B6823F001030D4C246823600C4B4C
:1038A0001B681B6803F00103002BF0D1064B084C8A
:1038B0002468A36010BD000040030020A404002081
:1038C00058640240B8600240041401402C140020E7
:1038D0000405002070470000002009E0002206498E
:1038E0000A5406490A5406490A5406490A54401C17
:1038F0000828F3DB704700004F13002083130020DB
:10390000B7130020EB13002010B5FEF7DFF810BD51
:1039100000B593B0302107A8FCF75FFD142102A881
:10392000FCF75BFD00BF002001902448006840F0D8
:103930008050224908600846006800F080500190DD
:1039400000BF00BF00BF002001901D48006840F488
:1039500080401B4908600846006800F480400190E0
:1039600000BF00BF012007900004089002200D90C6
:1039700041050E9106210F91A8211091022111916C
:103980000421129107A8FEF7B7FA08B1FCF7FCFE74
:103990000F20029002200390002004904FF4A050CA
:1039A00005904FF480500690052102A8FEF764F9B7
:1039B00008B1FCF7E9FE13B000BD0000403802403A
:1039C000007000400348006840F47000014908603E
:1039D0007047000088ED00E010B50248FEF783FE56
:1039E00010BD00007002002010B50268294B9842FB
:1039F0000ED0B0F1804F0BD0274B984208D0274B08
:103A0000984205D0264B984202D0264B984203D1CB
:103A100022F070024B681A431E4B984220D0B0F13E
:103A2000804F1DD01C4B98421AD01C4B984217D087
:103A30001B4B984214D01B4B984211D01A4B984202
:103A40000ED01A4B98420BD0194B984208D0194B04
:103A5000984205D0184B984202D0184B984203D197
:103A600022F44072CB681A4322F080034C6943EA87
:103A7000040202608B68C3620B688362054B984244
:103A800002D0084B984201D10B69036301234361C3
:103A900010BD00000000014000040040000800408C
:103AA000000C00400004014000400140004401407F
:103AB0000048014000180040001C00400020004069
:103AC00030B50C46816821F47F4142EA0325254345
:103AD0002943816030BD0A46816821F0700142F0BF
:103AE000070319438160704730B50B461446026ADC
:103AF000056A25F001050562816921F0F00141EABE
:103B0000041122F00A021A438161026230BD30B50D
:103B10000B461446056A25F0100505628169026AA4
:103B200021F4704141EA043122F0A00242EA03127A
:103B30008161026230BD000070B5044615462E4812
:103B40000068401C2C4E3060002D4FD0012D02D05B
:103B5000022D4DD110E04FF496725CB18C4203DD22
:103B6000601A904200DD8C188C4203DA081B9042E8
:103B700000DD8C1A204670BDACB3022B0DD1601A4B
:103B8000002801DB064600E04642B6F5FA7F02DA7D
:103B90009FED1A0A01E09FED1A0A012B11D1601A5C
:103BA000002801DB064600E04642B6F5FA7F04DA5B
:103BB000DFED140AB0EE600A03E0F5EE000AB0EEA5
:103BC000600A1BB9DFED0F0AB0EE600A601A00EE62
:103BD000900AF8EEE00A60EE800AFDEEE00A10EED0
:103BE000902A8818C7E7FFE72046C4E72046C2E7C7
:103BF00000BF00BFBFE70000700000208FC2F53C8F
:103C00007B142E3ECDCC4C3D70B52DED048B04467F
:103C10000D46164694ED030A84ED060A00EE105A8E
:103C2000B8EE400A84ED030A616A881902F0F4F9DB
:103C300041EC190B9FED210B53EC102B02F040FAD5
:103C400041EC180B01F0AAFF60606662A06A18B927
:103C5000E562A06A401CA06294ED030AD4ED060A56
:103C600030EE600ADFED170AB4EEE00AF1EE10FA6A
:103C700003DDE069401EE0610FE094ED030AD4ED3E
:103C8000060A30EE600ADFED100AB4EEE00AF1EE4B
:103C900010FA02D2E069401CE061E069400300EEE6
:103CA000100AB8EEC00AD4ED030A30EE200ABDEEC9
:103CB000C00A84ED080ABDEC048B70BD0000000052
:103CC0000000E03F00008045000080C570B505465B
:103CD000AC6B0020E085E0842046FEF74CFE70BD12
:103CE00070B506460025B46B20684069C0F3C01566
:103CF00094F83D00212805D125B10020E08420461C
:103D000000F0C4F820684069C0F3801594F83E00C4
:103D1000222805D125B10020E085204600F070F86A
:103D2000206C40F0100020642046FEF724FE70BD99
:103D300070B50546AC6B2868006800F480700028F8
:103D400042D1E08500BF00BF21680C3151E8001F5F
:103D500021F4807021680C3141E80002002AF3D17F
:103D600000BF00BF00BF2168143151E8001F21F0DF
:103D700001002168143141E80002002AF3D100BF9C
:103D800000BF00BF2168143151E8001F21F040003E
:103D90002168143141E80002002AF3D100BF20203D
:103DA00084F83E00206B01280ED100BF00BF2168BF
:103DB0000C3151E8001F21F0100021680C3141E85E
:103DC0000002002AF3D100BF206B012804D1A18D8D
:103DD0002046FEF78AFD02E02046FFF73DF970BD60
:103DE00070B50546AC6B206B012805D1A08D41084C
:103DF0002046FEF77AFD02E02046FFF75BF970BD32
:103E000000BF00BF02680C3252E8002F22F490710C
:103E100002680C3242E80013002BF3D100BF00BF50
:103E200000BF0268143252E8002F22F0010102683C
:103E3000143242E80013002BF3D100BF016B0129BB
:103E40000ED100BF00BF02680C3252E8002F22F0F2
:103E5000100102680C3242E80013002BF3D100BFBE
:103E6000202180F83E1000210163704710B5044600
:103E70002068C06820F040002168C860202084F8D5
:103E80003D002046FFF780F9002010BD00BF00BFB5
:103E900002680C3252E8002F22F0C00102680C3296
:103EA00042E80013002BF3D100BF202180F83D1021
:103EB0007047F8B5044694F83E00222873D1A068F4
:103EC000B0F5805F0CD1206950B90025A66A206842
:103ED0004068C0F308003080A06A801CA06215E032
:103EE000A56A0026A068B0F5805F03D0A06828B955
:103EF000206918B920684068287004E0206840688C
:103F000000F07F002870A06A401CA062E08D401E77
:103F100080B2E085002844D12068C06820F02000ED
:103F20002168C8602068C06820F480702168C8607B
:103F30002068406920F0010021684861202084F851
:103F40003E00206B012826D10020206300BF00BF67
:103F500021680C3151E8001F21F0100021680C315C
:103F600041E80002002AF3D100BF2068006800F099
:103F7000100010280AD100BF0020009020680068BF
:103F8000009020684068009000BF00BFA18D2046CF
:103F9000FEF7ABFC02E02046FFF75EF80020F8BD1C
:103FA00001E00020FBE70220F9E700002DE9F84FCF
:103FB00004462068006920F44050E1680843216805
:103FC00008612169A068084361690843E169084301
:103FD00000902068C06849F20C618843009908434A
:103FE0002168C8602068406920F44070A1690843D6
:103FF0002168486176492068884203D07549206865
:10400000884203D1FDF710FF814602E0FDF7FCFE78
:104010008146E069B0F5004F6CD102206168A0FBD9
:10402000015003461920A9FB007001462A46384674
:10403000FCF73AF96421B0FBF1F04FEA001A0220D4
:104040006168A0FB01510B461920A9FB00712A46AB
:104050003846FCF729F9834602206168A0FB01502D
:1040600003461920A9FB00712A463846FCF71CF9C3
:104070006421B0FBF1F000EBC00101EB0010ABEBF1
:104080008000322101EBC0006421B0FBF1F000F0B0
:10409000F8000AEB400A02206168A0FB01500346C9
:1040A0001920A9FB007001462A463846FCF7FCF8A7
:1040B000834602206168A0FB015003461920A9FB3A
:1040C00000712A463846FCF7EFF86421B0FBF1F0A6
:1040D00000EBC00101EB0010ABEB8000322101EBE3
:1040E000C0006421B0FBF1F000F0070050442168EB
:1040F00088606AE004206168A0FB01500346192033
:10410000A9FB007001462A463846FCF7CDF88246E6
:1041100004206168A0FB015003461920A9FB007030
:1041200001462A463846FCF7BFF86421B0FBF1F09F
:1041300000EBC00101EB0010AAEB8000322101EB83
:1041400000106421B0FBF1F000F0F00A0420616877
:10415000A0FB017003461920A9FB00513A462846EE
:10416000FCF7A2F86421B0FBF1F00AEB001A04207E
:104170006168A0FB01510B461920A9FB00712A467A
:104180003846FCF791F8834604206168A0FB015093
:1041900003461920A9FB007001462A463846FCF761
:1041A00083F86421B0FBF1F000EBC00101EB0010DB
:1041B000ABEB8000322101EB00106421B0FBF1F089
:1041C00000F00F00504421688860BDE8F88F0000BF
:1041D000001001400014014077B581B00446154637
:1041E0000298A062A58500202064222084F83E0069
:1041F0002948A16BC8632948A16B08642848A16BB2
:10420000C8640020A16B086502AE32682368191DDE
:104210002B46A06BFDF712FB00BF0020009020682A
:104220000068009020684068009000BF00BF00BF99
:10423000002084F83C0000BF00BF00BF21680C31A3
:1042400051E8001F41F4807021680C3141E8000200
:10425000002AF3D100BF00BF00BF2168143151E82C
:10426000001F41F001002168143141E80002002ADA
:10427000F3D100BF00BF00BF2168143151E8001F17
:1042800041F040002168143141E80002002AF3D1D6
:1042900000BF002004B070BD313D0008E13D0008C2
:1042A000E13C000810B5034699629A85DA85002042
:1042B0001864222083F83E0000BF002083F83C00F1
:1042C00000BF1868C06840F480701C68E06018681F
:1042D000406940F001001C6860611868C06840F0E7
:1042E00020001C68E060002010BD014691F83D00F0
:1042F000212828D18868B0F5805F0BD1086948B9BA
:104300000A6A1088C0F308000B685860086A801CAD
:10431000086205E00B6A581C086218780B68586040
:10432000C88C401E80B2C88458B90868C06820F0A4
:1043300080000B68D8600868C06840F040000B68D7
:10434000D860002070470220FCE72DE9F0410446C8
:104350000D4617469846069E34E0701C88B32EB171
:10436000FDF7AEFBA0EB0800B0422BD900BF00BFA9
:1043700021680C3151E8001F21F4D07021680C3104
:1043800041E80002002AF3D100BF00BF00BF21684E
:10439000143151E8001F21F001002168143141E877
:1043A0000002002AF3D100BF202084F83D0084F8E9
:1043B0003E0000BF002084F83C0000BF0320BDE8A1
:1043C000F081FFE7206800682840A84201D1012061
:1043D00000E00020B842C0D00020F0E71CB500206B
:1043E0006B4908706B4800680068C0F30010002833
:1043F0007ED000BF002001906648006800680190F0
:10440000644800684068019000BF00BF6148FEF743
:104410006DFA614800684068C0F114005C4908709A
:104420000024A3E05D48005D3B2870D1012005E039
:104430005B490A5C411E0DF80120401C0828F7DD8D
:1044400057480078092856D19DF801009DF80010C2
:1044500000EB01205349C8629DF803009DF802104B
:1044600040EA01205049C8629DF805009DF80410FB
:1044700040EA01204D49C8629DF807009DF80610EA
:1044800040EA01204A49C8624648C06A44F62061B1
:10449000884206DD4348C06AA0F57F40FF384149A5
:1044A000C8624148C06A44F62061884206DD3E4841
:1044B000C06AA0F57F40FF383B49C8623B48C06AEC
:1044C00044F62061884206DD3848C06AA0F57F4086
:1044D000FF383649C8623648C06A44F620618842CF
:1044E00008DD3348C06AA0F57F40FF38304900E05E
:1044F0004DE0C86200BF00BF28212948FBF76DFFCF
:1045000000202C4908702C49086036E0FFE723485A
:10451000005D252809D128212148FBF75EFF0020F6
:10452000244908702449086027E0224800780128BF
:1045300010D1214800681649097888420ADA1748DC
:10454000005D17491C4A126888541B480068401CCB
:10455000194908601148005D2A2803D00F48005D02
:10456000232802D1012013490870641C12480068F6
:10457000074909788842FFF655AF00BF2821074850
:10458000FBF72BFF142205490248FEF723FD1CBD53
:10459000CC010020B802002084030020A81C0020C9
:1045A000441C0020AC050020C4060020DC070020CD
:1045B000F4080020AC010020B001002008B54948F3
:1045C0000068006800F0200060B100BF002000908B
:1045D00044480068006800904248006840680090C5
:1045E00000BF7DE04048006800F01000002877D050
:1045F00000BF002000903B480068006800903948E8
:1046000000684068009000BF00BF3848006800683C
:1046100000F4002090BB35480068006820F00100DD
:10462000324909680860314800684068C0F12400D8
:104630002F49088024202D49096848602B480068CC
:10464000006840F40020294909680860274800688C
:10465000006840F001002549096808602448008886
:1046600012283DD12349244800F090FFFEF790FF27
:10467000012835D12420FFF729F831E0FFE71B4856
:104680000068006820F001001849096808601748B0
:1046900000684068C0F124001549088024201349AF
:1046A000096848601548806A20F400201349886230
:1046B0000E480068006840F001000C490968086075
:1046C0000B48008812280BD10A490B48243000F00F
:1046D0005DFFFEF75DFF012802D12420FEF7F6FF03
:1046E00008BD0000FC0200200048004044040020F7
:1046F0008E01002078010020041300200060024099
:1047000010B50348FEF7A8FC0148FEF735F910BDC7
:104710004003002000BFFEE70021C160016101608D
:104720004160816041618161C161016241629FEDCF
:10473000040A80ED0A0A9FED020A80ED0B0A704719
:104740000000000010B506490648FEF7BBFE06490A
:1047500004484838FEF7B6FEFCF754F810BD0000D8
:10476000300100204012002044010020024800686F
:10477000C0F30220704700000CED00E010B50028E7
:1047800004DB0A07130E054A135406E00A07140E49
:10479000034A00F00F031B1FD45410BD00E400E0D7
:1047A00018ED00E02DED020B019820F00040019083
:1047B0009DED000B02B0704710B5C94800F048FEEF
:1047C000C84800F045FEC84800F042FEC74800F067
:1047D0003FFEC74800F03CFEC64800F039FEC64820
:1047E00000F036FEC54800F033FEC54800F030FE4C
:1047F00000BF9FEDC40ABA483C3880ED250A9FED02
:10480000C20A80ED260A9FEDC00A80ED270AB7EEA6
:10481000000A80ED280A9FEDBD0A80ED290A9FED70
:10482000BB0A80ED2A0AB1EE000A80ED430A9FED33
:10483000B70A80ED440A9FEDB50A80ED450AB2EE55
:10484000000AA8483C3880ED430AB2EE000AA648A8
:104850003C3880ED430AB2EE000AA4483C3880EDB3
:10486000430AB2EE000AA2483C3880ED430A9FEDAD
:10487000A70A9C483C3880ED440A9FEDA40A9A4858
:104880003C3880ED440A9FEDA10A98483C3880ED01
:10489000440A9FED9E0A96483C3880ED440A9FEDFD
:1048A0009B0A90483C3880ED450A9FED980A8E4857
:1048B0003C3880ED450A9FED950A8C483C3880EDE8
:1048C000450A9FED920A8A483C3880ED450A9FEDE3
:1048D000900A88483C3880ED430A9FED8D0A86484F
:1048E0003C3880ED430A9FED8A0A84483C3880EDCD
:1048F000430A9FED870A82483C3880ED430A9FEDCA
:10490000850A7C483C3880ED440A9FED820A7A484B
:104910003C3880ED440A9FED7F0A78483C3880EDB2
:10492000440A9FED7C0A76483C3880ED440A9FEDAE
:10493000770A70483C3880ED450A9FED740A6E484E
:104940003C3880ED450A9FED710A6C483C3880ED9B
:10495000450A9FED6E0A6A483C3880ED450A9FED96
:104960006E0A64483C3880ED250A9FED6B0A624868
:104970003C3880ED250A9FED680A60483C3880EDA0
:10498000250A9FED660A5E483C3880ED250A9FEDBA
:104990005E0A58483C3880ED260A9FED5B0A56486F
:1049A0003C3880ED260A9FED580A54483C3880ED8B
:1049B000260A9FED550A52483C3880ED260A9FEDA5
:1049C000520A4C483C3880ED270A9FED4F0A4A486E
:1049D0003C3880ED270A9FED4C0A48483C3880ED72
:1049E000270A9FED490A46483C3880ED270AB1EE78
:1049F000020A40483C3880ED280AB1EE020A3E48DF
:104A00003C3880ED280AB1EE020A3C483C3880ED83
:104A1000280AB1EE040A3A483C3880ED280A9FED96
:104A20003F0A34483C3880ED290A9FED3C0A324861
:104A30003C3880ED290A9FED390A30483C3880ED3A
:104A4000290AB6EE000A2E483C3880ED290A9FED6F
:104A50002E0A28483C3880ED2A0A9FED2B0A26486A
:104A60003C3880ED2A0A9FED280A24483C3880ED26
:104A70002A0A9FED250A22483C3880ED2A0A9FED3C
:104A8000280A284880ED0A0AB6EE080A80ED0B0ACB
:104A90009FED1D0A80ED0C0A9FED230A234880ED4F
:104AA0000C0AB0EE000A80ED0D0A9FED170A80EDAA
:104AB0000E0A00BF00F05CFE00F048FD1948FEF74A
:104AC00035FD00F059FD00F057FA1948FDF730FDAB
:104AD00000F0FEFBFFF736FE00F00AFF10BD0000FD
:104AE000480A0020E80500200007002018080020E0
:104AF00030090020600B0020780C0020900D002071
:104B0000A80E0020CDCC4C3D00000000CDCCCC3D0B
:104B10009A994940CDCC4C3E3333333F9A99193F53
:104B2000CDCCCC3F840F00209A99914064050020A1
:104B30007002002070B52DED048B04460D4694EDF7
:104B4000040AD4ED030A30EE600A84ED000AB74887
:104B50000078012802D002287ED154E095ED000AA9
:104B6000D4ED000A20EE200A84ED050A94ED000A37
:104B7000D4ED010A30EE600AD5ED020A20EE200ADB
:104B8000BDEEC00A10EE100A00B2608394ED000A78
:104B900084ED010AD4ED050AB4F91A0000EE100AFA
:104BA000B8EEC00A30EE800ADFEDA10AB4EEE00AEA
:104BB000F1EE10FA04DD9FED9F0A84ED070A21E073
:104BC000D4ED050AB4F91A0000EE100AB8EEC00AD6
:104BD00030EE800ADFED980AB4EEE00AF1EE10FA4A
:104BE00004D29FED960A84ED070A0BE0D4ED050A86
:104BF000B4F91A0000EE100AB8EEC00A30EE800ACE
:104C000084ED070A0DE194ED000ADFED8D0AB4EEA4
:104C1000E00AF1EE10FA08DD94ED000ADFED890AF2
:104C200030EE600A84ED000A10E094ED000ADFED3A
:104C3000860AB4EEE00AF1EE10FA07D294ED000A0B
:104C4000DFED800A30EE200A84ED000A94ED000AC0
:104C500010EE101A084600E0E2E001F019FC41EC09
:104C6000190BB0EE490AF0EE690AFFF79BFDB0EEB2
:104C7000408AF0EE608A9FED750B53EC102B51ECDF
:104C8000180B01F0E1F903D29FED720A84ED000ADE
:104C900094ED000AF1EE080AB4EEE00AF1EE10FA23
:104CA00010D894ED000AF9EE080AB4EEE00AF1EE2D
:104CB00010FA07DB94ED020AD4ED000A30EE200A68
:104CC00084ED020A94ED020AF7EE000AB4EEE00A5F
:104CD000F1EE10FA04DDB7EE000A84ED020A0CE0F2
:104CE00094ED020AFFEE000AB4EEE00AF1EE10FACB
:104CF00003D2BFEE000A84ED020A95ED000AD4ED5E
:104D0000000A20EE200A84ED050A95ED010AD4ED93
:104D1000020A20EE200ABDEEC00A10EE100A00B210
:104D2000208394ED000AD4ED010A30EE600AD5ED3F
:104D3000020A20EE200ABDEEC00A10EE100A00B2F0
:104D4000608394ED000A84ED010A94ED050AF0EE0B
:104D5000000AB4EEE00AF1EE10FA03DDB0EE000A4C
:104D600084ED050A94ED050AF8EE000AB4EEE00AB7
:104D7000F1EE10FA03D2B8EE000A84ED050AD4ED84
:104D8000050AB4F91A0000EE100AB8EEC00A70EE77
:104D9000800AB4F9180000EE100AB8EEC00A30EE2E
:104DA000800AF0EE000AB4EEE00AF1EE10FA04DD3B
:104DB000B0EE000A84ED070A31E0D4ED050AB4F93B
:104DC0001A0000EE100AB8EEC00A70EE800AB4F9BC
:104DD000180000EE100AB8EEC00A30EE800AF8EEB5
:104DE000000AB4EEE00AF1EE10FA04D2B8EE000ABE
:104DF00084ED070A13E0D4ED050AB4F91A0000EEB9
:104E0000100AB8EEC00A70EE800AB4F9180000EE7D
:104E1000100AB8EEC00A30EE800A84ED070A00E0FE
:104E200000BF00BFBDEC048B70BD0000040000207B
:104E30000000E1440080A2440000E1C40080A2C45C
:104E4000000034430000B443000034C300000000FD
:104E50000000084000000000B0EE401A10B99FEDBD
:104E6000450A704790ED100A80ED110A90ED0F0A87
:104E700080ED100A80ED051AC0ED060A31EE600AD9
:104E800080ED0F0A90ED000AD0ED0F1A20EE210AF6
:104E900080ED090A90ED0A0AD0ED011A90ED0F2A73
:104EA00001EE820A80ED0A0A90ED0D0A80ED0E0AED
:104EB00090ED0C0A80ED0D0A90ED0F0AD0ED101A5E
:104EC00030EE610A80ED0C0A90ED020AD0ED0C1A6A
:104ED00020EE210A80ED0B0A90ED0A0AD0ED041AAB
:104EE000B4EEE10AF1EE10FA04DD90ED040A80ED73
:104EF0000A0A10E090ED0A0AD0ED041AF1EE611AE8
:104F0000B4EEE10AF1EE10FA05D290ED040AB1EE2A
:104F1000400A80ED0A0A90ED090AD0ED0A1A30EE37
:104F2000210AD0ED0B1A30EE210A80ED080A90ED2F
:104F3000080AD0ED031AB4EEE10AF1EE10FA04DD2E
:104F400090ED030A80ED080A10E090ED080AD0ED1C
:104F5000031AF1EE611AB4EEE10AF1EE10FA05D28D
:104F600090ED030AB1EE400A80ED080A90ED080AC0
:104F700077E700000000000010B58AB0002401208F
:104F8000059000200090019002900390069001206F
:104F900008900790002004900E20099069460E4862
:104FA000FBF724FD04460F20059069460B48FBF7EC
:104FB0001DFD04460848FCF70AFA0848FCF707FA02
:104FC00002210548FBF752FC02210448FBF74EFC86
:104FD00020460AB010BD0000200200204802002038
:104FE00010B58AB04FF400700290002003900820A2
:104FF00006900020049005908DF81C001A48B0F827
:10500000F000000A8DF82000174890F8F0008DF8A5
:1050100021001648B0F8F000000A8DF8220013486D
:1050200090F8F0008DF823001148B0F8F000000A65
:105030008DF824000E4890F8F0008DF825000D48FA
:10504000B0F8F000000A8DF826000A4890F8F00049
:105050008DF8270001AB08AA02A90748FBF71BFC43
:10506000044600BF0AB010BDAC050020C4060020F5
:10507000DC070020F40800202002002070B58AB070
:1050800004460D461420029000200390082006904C
:105090000020049005908DF81C00200A8DF8200057
:1050A000E0B28DF82100280A8DF82200E8B28DF8D0
:1050B000230001AB08AA02A90248FBF7ECFB064655
:1050C0000AB070BD4802002010B58AB00446002026
:1050D000029003900190069040F2FF10049000208F
:1050E00007900820089000208DF824008DF8080013
:1050F0008DF809008DF80A008DF80B008DF80C0072
:105100008DF80D00200A8DF80E00E0B28DF80F002A
:1051100001AB02AA04A90348FBF7BDFB0198C0B28A
:105120000AB010BD2002002010B50120024908601D
:10513000FFF756FF10BD00008400002010B500F0FE
:10514000EBFBFFF7F1FF10BD034619608818401E06
:1051500058609A600020D86019615961704700005A
:105160000149098B018070476C1000202DE9F04146
:105170002DED048B04460D4616461F4694ED050A98
:1051800084ED060A00EE105AB8EE400A84ED050AD6
:10519000216B881900F040FF41EC190B9FED2E0B9D
:1051A00053EC102B00F08CFF41EC180B00F0F6FCD8
:1051B000A06294ED0A0ABDEEC00A84ED1D0A94EDCA
:1051C0000A0ABDEEC00A84ED380A26636763606888
:1051D00040B900EE105AB8EE400A84ED000A60684B
:1051E000401C606094ED050AD4ED060A30EE600ABA
:1051F000DFED1B0AB4EEE00AF1EE10FA03DD206ADF
:10520000401E20620FE094ED050AD4ED060A30EE50
:10521000600ADFED140AB4EEE00AF1EE10FA02D2F1
:10522000206A401C2062206A400300EE100AB8EE9B
:10523000C00AD4ED050A30EE200ABDEEC00A84EDA6
:10524000090A94ED090AB8EEC00A84ED130ABDEC10
:10525000048BBDE8F0810000000000000000E03F8A
:1052600000008045000080C510B52DED068B11486B
:10527000007811490880098801FB01F000F0CCFE9C
:1052800041EC1A0B9FED0D0B53EC102B01F016F8AF
:1052900041EC190B9FED0B0B53EC102B00F064FD50
:1052A00041EC180B00F07AFC08490860BDEC068B55
:1052B00010BD0000E8010020920100200000000065
:1052C000002065400000000000807640940100202E
:1052D00010B51D480021016001711C480160017179
:1052E0001B4801604160018181721A4801702021D0
:1052F0001948FBF750F8194800210160184801606F
:10530000184801808170184801801B211748FBF75D
:1053100042F810211648FBF73EF810211548FBF71C
:105320003AF81548002101701448017014480170C2
:1053300014480160818081711348016081801348A5
:105340000160818010BD0000C4000020C900002061
:1053500041100020CE0000204C100020CF00002083
:10536000D3000020D7000020DA0000206C100020BD
:105370008710002097100020DC000020DD000020B6
:10538000DE000020DF000020E6000020EC0000200E
:10539000FCF7A8FBFEF7BCFAFDF7A6FFFDF758FFE8
:1053A000FDF732FFFEF700F8FEF734F8FDF708FFCF
:1053B000FEF74CF8FEF766F800F018F8FFF7FCF976
:1053C000012206490648FDF726FE9FED060A06481B
:1053D00080ED070AFDF7DCFE00BFFEE79801002024
:1053E00040030020000000000C0A002001200F49AB
:1053F00081F83C0002200E4981F83C000D4981F8FB
:105400003C000D4981F83C000C4981F83C0001202A
:105410000B4981F83C000B4981F83C000A4981F8AE
:105420003C000A4981F83C00704700000C0A00204B
:10543000AC050020C4060020DC070020F408002092
:10544000240B00203C0C0020540D00206C0E00208A
:1054500010B504462078012803D1201D00F01AF869
:1054600006E02078022803D104F1700000F032F940
:1054700010BD10B504462078012803D1201D00F08E
:1054800013F806E02078022803D104F1700000F040
:1054900028F910BD10B504462046FBF703F804F1C7
:1054A0002400FFF739F910BD10B5044604F154018A
:1054B0002046FFF73FFB94ED070ABDEEC00A84EDDE
:1054C0000C0A04F1540104F1240000F095FA10BD17
:1054D00002461B4881421CD15078137840EA0320D1
:1054E00000B2184B1880D078937840EA032000B2BD
:1054F000144B58805079137940EA032000B2114BC5
:105500009880D079937940EA032000B20D4BD8807F
:1055100013E00D48814210D110780A4B1880507862
:10552000588090789880D078D880107918815079F8
:10553000588190799881D079D881024870470000CD
:10554000200200201C1400204802002010B54FF457
:1055500000720649A1F50070FEF71AF94FF4806257
:1055600003490448FFF7F0FD10BD00002C16002091
:10557000441800202C18002010B524220249A1F163
:105580002400FEF755F810BD2813002000B101B922
:1055900070470278437842EA0322C2F30A020A8083
:1055A0004278D210837842EA4312C2F30A024A8058
:1055B00082789211C37842EA8302037942EA832215
:1055C000C2F30A028A8002795210437942EAC31276
:1055D000C2F30A02CA804279C2F301128A72427986
:1055E00012119308CB728279C37942EA032212B274
:1055F0008A81027A437A42EA032213B201F10C0251
:10560000CB81827AC37A42EA032213B201F10C02FF
:105610000B82037B8B74437BCB74827BC37B42EA1C
:1056200003228A82027C437C42EA032212B20A816C
:1056300000BFADE7234800692349096888423BD091
:105640002048C069B0F5C87F26DB1E48D0ED020AAD
:10565000C069C01E400300EE100AB8EEC00A30EE6A
:10566000C00A184880ED020A90ED020AB5EEC00AA1
:10567000F1EE10FA03D8B7EE000A80ED020A1148E5
:10568000016AC069C01EA1EB40300E49086208469D
:10569000006AC8620320C8619FED0C0A0C4880EDC7
:1056A000000A084890ED020A0948D0ED000A30EEE1
:1056B000600A044880ED020A034800680149086155
:1056C00070470000A81000202000002014B4874775
:1056D0002401002010B5044604F12400FFF71CF853
:1056E00010BD10B5044604F1540104F1240000F08B
:1056F00083F910BD10B51A48FFF732FD282018496C
:10570000088008460088642190FBF1F0C0B20A21AD
:1057100090FBF1F201FB120012490870104800885A
:105720000A2190FBF1F0C0B290FBF1F201FB1200F4
:105730000C4948700A4800780A2190FBF1F201FBFD
:105740001200084988702320C87064230422064888
:10575000FDF7B1FC05490870FFF786FD10BD00009C
:10576000900100209A010020400300209E010020AB
:1057700010B510491048FDF7A5FE10490E484830F5
:10578000FDF7A0FE9FED0E0A0B48303880ED030AAE
:105790009FED0B0A80ED010A0020074930390861AE
:1057A000B2EE0A0A084680ED020A9FED050A80ED76
:1057B000000A10BDFC000020D810002010010020BD
:1057C0000000000010B52649D1ED020A91ED080A4B
:1057D000B8EEC00A30EEC00ABDEEC00A10EE100AE4
:1057E000002801DB014600E0414200EE101AB8EE4D
:1057F000C00ADFED1C0AB4EEE00AF1EE10FA05D2A1
:105800009FED190A164880ED210A04E09FED170A62
:10581000134880ED210A124890ED081AB8EEC11A1B
:10582000F0EE410A90ED021AB0EE410A7830FFF72F
:1058300013FB0B4890ED260A80ED000A90ED011A4B
:10584000F0EE410A90ED001AB0EE410A3030FFF759
:1058500003FB034890ED140A80ED050A10BD00001B
:10586000A810002000606A47000096430080BB44F7
:1058700010B52DED048B1A480068012804DB184888
:105880000068401C1649086015480068052818DBA8
:10589000144890ED020A10EE101A084600F0F8FDC8
:1058A00041EC190B9FED100B53EC102B00F006FD93
:1058B00041EC180B00F072F90A4988600020084991
:1058C0000860FFF77FFF074991ED050ABDEEC00AAA
:1058D00010EE101A08B2FFF7F7FBBDEC048B10BDF9
:1058E00020000020A810002052B81E8582F6F0404B
:1058F00010B507480068C06840F010000449096806
:10590000C860142203490248FDF764FB10BD000083
:10591000B8020020A81C002010B5012030490870F2
:10592000304A92ED0A0ABDEEC00A10EE101AD06A93
:105930002D4A13680222FEF7FFF82A49C8622B4A53
:1059400092ED0A0ABDEEC00A10EE101AD06A264A7D
:1059500013680222FEF7F0F82449C862244A92ED47
:105960000A0ABDEEC00A10EE101AD06A1E4A136869
:105970000222FEF7E1F81E49C8621E4A92ED0A0AA9
:10598000BDEEC00A10EE101AD06A174A1368022240
:10599000FEF7D2F81749C8621248C16AC0F8DC1095
:1059A0001248C16AC0F8DC101148C16AC0F8DC10A6
:1059B0001048C16AC0F8DC100A483C30FFF759FDB6
:1059C0000A483C30FFF755FD09483C30FFF751FDD0
:1059D00008483C30FFF74DFD00200149087010BD1C
:1059E00004000020AC05002040000020C406002078
:1059F000DC070020F4080020D0E90323D21A02605B
:105A00005F4A1278012A02D0022A7DD154E002684E
:105A1000002A01DB134600E05342B3F5FA7F04DCB1
:105A2000036882681A44826003E0826802F5FA72B1
:105A3000826041F2883382689A4202DD1A468260AF
:105A400005E0504B82689A4201DA1A468260D1ED35
:105A5000030A90ED000AB8EEC00A20EE800ABDEEFF
:105A6000C00A80ED050AD1ED040A90ED020AB8EEF5
:105A7000C00A20EE800ABDEEC00A80ED060AD0E919
:105A800005231A44404B1B689A4203DD3E4A1268C4
:105A9000026210E0D0E905231A443B4B1B685B42CD
:105AA0009A4204DA384A12685242026203E0D0E9AC
:105AB00005231A44026261E002680F2A07DC0268CB
:105AC00012F10F0F03DB036882681A448260826858
:105AD000B2F5FA7F03DD4FF4FA72826005E0826866
