:020000040800F2
:10000000F825002069020008E5370008AB34000835
:10001000AD370008E9110008055100080000000094
:10002000000000000000000000000000D9400008AF
:10003000E5130008000000007D3800082D4400088A
:10004000830200088302000883020008830200087C
:10005000830200088302000883020008830200086C
:10006000830200088302000883020008830200085C
:1000700005130008830200088302000883020008B9
:10008000830200088302000883020008830200083C
:10009000ED110008830200088302000883020008B3
:1000A000830200088302000883020008830200081C
:1000B00083020008D5440008830200088302000878
:1000C00083020008830200088302000883020008FC
:1000D00083020008514D000883020008DD4E00082D
:1000E00083020008830200088302000883020008DC
:1000F00083020008830200088302000883020008CC
:1001000083020008830200088302000883020008BB
:1001100083020008830200088302000883020008AB
:1001200083020008111300088302000883020008FC
:10013000830200088302000883020008830200088B
:10014000F9110008830200088302000883020008F6
:100150001D1300082913000835130008A14F0008DB
:10016000830200088302000883020008830200085B
:1001700083020008830200088302000800000000D8
:10018000830200088302000800F002F800F05CF827
:100190000AA090E8000C82448344AAF10107DA45E2
:1001A00001D100F051F8AFF2090EBAE80F0013F0D8
:1001B000010F18BFFB1A43F0010318473C8C0000E5
:1001C0005C8C00000A444FF0000C10F8013B13F067
:1001D000070408BF10F8014B1D1108BF10F8015BA0
:1001E000641E05D010F8016B641E01F8016BF9D193
:1001F00013F0080F1EBF10F8014BAD1C0C1B09D1EA
:100200006D1E58BF01F801CBFAD505E014F8016B5B
:1002100001F8016B6D1EF9D59142D6D370470000ED
:100220000023002400250026103A28BF78C1FBD8FF
:10023000520728BF30C148BF0B6070471FB508F098
:10024000E0F91FBD10B510BD00F07DF91146FFF7B4
:10025000F5FF06F00BFD00F09BF903B4FFF7F2FF8A
:1002600003BC00F09FF90000094880470948004797
:10027000FEE7FEE7FEE7FEE7FEE7FEE7FEE7FEE756
:10028000FEE7FEE704480549054A064B70470000B3
:10029000C544000889010008F81F0020F825002047
:1002A000F8210020F821002053EA020C00F06980B8
:1002B0002DE9F04B4FF00006002B1FBFB3FA83F57A
:1002C00003FA05F424FA05F65E4012BF1643B2FAAB
:1002D00082F502FA05F4C5F120051EBF22FA05FCDD
:1002E00044EA0C04203556EA044C4FEA144418BF83
:1002F000641C4FF000084FF00009904271EB030CB2
:1003000039D3002919BFB1FA81F701FA07F6B0FA1B
:1003100080F700FA07F6C7F120071EBF20FA07FC96
:1003200046EA0C062037B6FBF4FCA7EB0507103FA6
:1003300007F01F0BCBF120060CFA0BFB2CFA06F68C
:1003400044BFB3460026202FA4BF5E464FF0000BEB
:100350005BEA060C08BF4FF0010B19EB0B09ABFB76
:10036000027C48EB0608C01B06FB02CC0BFB03CC4F
:1003700071EB0C01C1E70B46024641464846BDE819
:10038000F08B13B54FF000004FF00001AFF3008089
:10039000BDE81C407047032A40F2308010F0030C87
:1003A00000F0158011F8013BBCF1020F624498BFC8
:1003B00011F801CB00F8013B38BF11F8013BA2F165
:1003C000040298BF00F801CB38BF00F8013B11F0E0
:1003D000030300F02580083AC0F0088051F8043B80
:1003E000083A51F804CBA0E80810F5E7121D5CBFED
:1003F00051F8043B40F8043BAFF30080D20724BF20
:1004000011F8013B11F801CB48BF11F8012B24BFB3
:1004100000F8013B00F801CB48BF00F8012B704702
:1004200010B5203AC0F00B80B1E81850203AA0E88F
:100430001850B1E81850A0E81850BFF4F5AF5FEAC3
:10044000027C24BFB1E81850A0E8185044BF18C976
:1004500018C0BDE810405FEA827C24BF51F8043B1D
:1004600040F8043B08BF7047D20728BF31F8023B71
:1004700048BF11F8012B28BF20F8023B48BF00F805
:10048000012B70474FF000020429C0F0128010F0D9
:10049000030C00F01B80CCF1040CBCF1020F18BF60
:1004A00000F8012BA8BF20F8022BA1EB0C0100F0F3
:1004B0000DB85FEAC17C24BF00F8012B00F8012BC6
:1004C00048BF00F8012B70474FF0000200B51346FB
:1004D00094469646203922BFA0E80C50A0E80C5064
:1004E000B1F12001BFF4F7AF090728BFA0E80C5015
:1004F00048BF0CC05DF804EB890028BF40F8042B0E
:1005000008BF704748BF20F8022B11F0804F18BF7A
:1005100000F8012B704770477047704710B500F026
:100520000DF8006810BD10B5044600F007F804602F
:1005300010BD000000487047981F00200048704719
:10054000981F002070477546FFF7F4FFAE46050080
:100550006946534620F00700854618B020B5FFF7DE
:1005600091FEBDE820404FF000064FF000074FF02D
:1005700000084FF0000B21F00701AC46ACE8C009C1
:10058000ACE8C009ACE8C009ACE8C0098D467047CA
:1005900010B50446AFF300802046BDE81040FFF7D9
:1005A0005CBE000001491820ABBEFEE72600020039
:1005B00010B510EE100A2DED048BB0EE608A07F036
:1005C000AFFF41EC190B18EE100A07F0A9FF41EC40
:1005D000100BB0EE491AF0EE691A04F0ADFF9FED72
:1005E000121B51EC100B53EC112B07F027FB9FED66
:1005F000101B53EC112B07F0D3FC9FED0F1B53EC9A
:10060000112B07F0CDFC9FED0E1B53EC112B07F0C7
:10061000C7FC07F039FA00EE100A0B4880ED000A1B
:10062000BDEC048B10BD00006F1283C0CA210940CD
:10063000000000000000E0BF0000000000FFBF401D
:1006400000000000000024400C0000202DE9F047CD
:10065000DF4CE04DDFF880C36368D4ED0F0A00EE95
:10066000103ADE4E8246B8EEC00A204630EE800ACE
:1006700084ED060A6A68D5ED0F0A00EE102AB8EE7E
:10068000C00A30EE800A85ED060ADCF80410DCEDC5
:100690000F0A00EE101A8946B8EEC00A30EE800A42
:1006A0008CED060AD6F80480D6ED0F0A00EE108A0B
:1006B000B8EEC00A30EE800A86ED060A90ED0D0A0B
:1006C000284690ED0D2A604690ED0D1AC448DFEDE6
:1006D000C50A3746C449D7ED0D1AD4ED062A03E002
:1006E00072EEE02AC4ED062AB8EEC03A32EEC33A02
:1006F00013EE107A8742F3DA04E000BF72EEA02A0C
:10070000C4ED062AB8EEC03A32EEC33A13EE107AC0
:100710008F42F3D2D5ED062AB8EEC23A32EEC33A92
:1007200013EE107A874209DB72EEE02AC5ED062A45
:10073000F2E700BF72EEA02AC5ED062AB8EEC23A73
:1007400032EEC33A13EE107A8F42F3D2DCED062A72
:10075000674600BFB8EEC13A32EEC33A13EE10CA94
:10076000844509DB72EEE02AC7ED062AF2E700BFF6
:1007700072EEA02AC7ED062AB8EEC13A32EEC33AAD
:1007800013EE10CA8C45F3D204E000BF73EE602A6A
:10079000C6ED062AF8EEE12A96ED063A73EE622AD5
:1007A00012EE90CA8445F1DAF0EE432AB8EEE13A4F
:1007B00032EEC33A13EE10CA8C4504D372EEA02A6F
:1007C000C6ED062AF2E7BAF1000F7CD003F58C33B0
:1007D00002EE903A02F5484208F52058F8EEE22A77
:1007E000C4ED062A02EE902A09F5F042F8EEE22A5C
:1007F000C5ED062A02EE902AF8EEE22AC7ED062A97
:1008000002EE908AF8EEE22AC6ED062AD4ED062A18
:1008100004E000BF72EEE02AC4ED062AB8EEC03A4A
:1008200032EEC33A13EE102A8242F3DA04E000BF3C
:1008300072EEA02AC4ED062AB8EEC03A32EEC33AF0
:1008400013EE102A8A42F3D295ED060AF8EEC22A78
:1008500070EE622A12EE902A824209DB30EE600AC4
:1008600085ED060AF2E700BF30EE200A85ED060AA4
:10087000F8EEC22A70EE622A12EE902A8A42F3D271
:1008800097ED060AB8EEC12A30EE422A12EE102A7F
:10089000824209DB30EE600A87ED060AF2E700BF0C
:1008A00030EE200A87ED060AB8EEC12A30EE422A61
:1008B00012EE102A8A42F3D296ED060AB8EEE11A39
:1008C00030EE411A00E015E011EE102A824209DBF9
:1008D00030EE600A86ED060AF0E700BF30EE200A2F
:1008E00086ED060AB8EEE11A30EE411A11EE100A52
:1008F0008842F3D2364800F077FD364800F074FDA8
:10090000354800F071FD354800F06EFD94ED060AA3
:10091000364884ED050A95ED060A354985ED050A48
:1009200097ED060A87ED050A96ED060A86ED050A9B
:10093000D0ED010AB3EE030A20EE801AD4ED170AB7
:10094000F8EEE00A61EE200AFDEEE00AF8EEE00AB9
:10095000FDEEE00AC1ED110AD0ED070A254920EEAF
:10096000801AD5ED170AF8EEE00A61EE200AFDEED6
:10097000E00AF8EEE00AFDEEE00AC1ED110AD0ED62
:100980000D0A1D4920EE801AD7ED170AF8EEE00A8D
:1009900061EE200AFDEEE00AF8EEE00AFDEEE00A64
:1009A000C1ED110AD0ED130A144860EE800A96EDED
:1009B000170AB8EEC00A20EE800ABDEEC00AB8EEF3
:1009C000C00ABDEEC00A80ED110ABDE8F087000044
:1009D000280C0020680D0020A80E0020E80F002041
:1009E000000020470000A047000020C7C4040020EA
:1009F000E80500202807002068080020A80900203A
:100A000070B52DED108BB0EE40AAF0EE609A2AEE94
:100A10000A0A82B0F0EE618AB0EE418A09EEA90AB4
:100A200010EE100A07F07CFD41EC100B04F044FFBF
:100A300051EC100B07F028F809EE100A9FEDFE0AA2
:100A400028EE008A9FEDFD0AC8EE800A9FEDFC0AA1
:100A50001AEE100A60EE808A07F062FD41EC1B0B73
:100A600019EE900A07F05CFD41EC100BB0EE4B1A4A
:100A7000F0EE6B1A04F060FDB0EE40BAF0EE60BA32
:100A800018EE900A07F04CFD53EC1B2B07F02EF8E4
:100A900006F0FAFF08EE900A9FEDEABBEB4C0BE084
:100AA00018EE900A07F03CFD53EC1B2B07F04EFCB0
:100AB00006F0EAFF08EE900A18EE900AA042EFDA7C
:100AC000E34C00BF18EE900AA04218EE900A0AD933
:100AD00007F026FD53EC1B2B07F008F806F0D4FFB7
:100AE00008EE900AEEE707F01BFD41EC100B04F056
:100AF0007FFE51EC100B06F0C7FF0FEE900A18EEC8
:100B0000900A07F00DFD41EC100B04F00DFE51ECC6
:100B1000100B06F0B9FF00EE100AF5EEC09A8DED4D
:100B2000000AF1EE10FA06DDB5EEC0AAF1EE10FAF9
:100B300001D1F7EE00FAF5EEC09AF1EE10FA06D206
:100B4000B5EEC0AAF1EE10FA01D1FFEE00FAF5EE13
:100B5000C08AF1EE10FAB0EE6F0A06DD00F01CFD5F
:100B6000B0EE48EA09EE00EA05E000F015FDB0EE4F
:100B700048EA09EE40EA18EE900AB64DB64EA84291
:100B80000CDC18EE900AB04208D29DED000A00F08D
:100B900003FDF0EE489A49EE009A07E09DED000A49
:100BA00000F0FAFCF0EE489A49EE409A19EE900AED
:100BB00007F0B6FC41EC1A0B1EEE100A07F0B0FC71
:100BC00041EC100BB0EE4A1AF0EE6A1A04F0B4FCD5
:100BD0009FEDA2AB51EC100B53EC1A2B07F02EF843
:100BE0009FEDA0BB53EC1B2B07F0DAF99FED9FCBD9
:100BF00053EC1C2B07F0D4F99FED9EDB53EC1D2B1F
:100C000007F0CEF906F040FF9C49B0EE690AC863D0
:100C100003F0D6FBF0EE400AB0EE4E0A03F0D0FB34
:100C200030EE800A964C10EE100A84ED000A07F0B0
:100C300077FC41EC100B04F03FFE51EC100B06F07A
:100C400023FFF5EEC08A2060F1EE10FAB0EE6F0AD5
:100C500006DD00F0A1FCB0EE48FA09EE00FA05E06E
:100C600000F09AFCB0EE48FA09EE40FA18EE900A4D
:100C7000A84208DC18EE900AB04204D29DED000AAA
:100C800000F08AFC05E09DED000A00F085FCB1EE65
:100C9000400AF0EE489A59EE009A19EE900A07F0D1
:100CA0003FFC41EC1E0B1FEE100A07F039FC41EC33
:100CB000100BB0EE4E1AF0EE6E1A04F03DFC53EC41
:100CC0001A2B51EC100B06F0B9FF53EC1B2B07F05D
:100CD00067F953EC1C2B07F063F953EC1D2B07F05D
:100CE0005FF906F0D1FE6749B0EE690AC86303F008
:100CF00067FBF0EE400AB0EE4F0A03F061FB30EE06
:100D0000800A84ED060A10EE100A07F009FC41EC97
:100D1000100B04F0D1FD51EC100B06F0B5FEF5EE12
:100D2000C08AA061F1EE10FAB0EE6F0A02DD00F0A9
:100D300033FC03E000F030FCB1EE400AB0EE48FABC
:100D400018EE900A19EE00FAA84208DC18EE900A94
:100D5000B04204D29DED000A00F01EFC05E09DEDBE
:100D6000000A00F019FCB1EE400AF0EE489A59EE84
:100D7000009A19EE900A07F0D3FB41EC1E0B1FEE10
:100D8000100A07F0CDFB41EC100BB0EE4E1AF0EE5E
:100D90006E1A04F0D1FB53EC1A2B51EC100B06F039
:100DA0004DFF53EC1B2B07F0FBF853EC1C2B07F00B
:100DB000F7F853EC1D2B07F0F3F806F065FE324907
:100DC000B0EE690AC86303F0FBFAF0EE400AB0EE39
:100DD0004F0A03F0F5FA30EE800A84ED0C0A10EEAB
:100DE000100A07F09DFB41EC100B04F065FD51EC7F
:100DF000100B06F049FEF5EEC08A2063F1EE10FA02
:100E0000B0EE6F0A02DD00F0C7FB03E000F0C4FBA8
:100E1000B1EE400AF0EE489A18EE900A59EE009AA8
:100E2000A84236DC18EE900AB04232D29DED000A9C
:100E300000F0B2FB2AE00000713D1E420000B44306
:100E4000C3F5C8401F85EB51B81E1940C3F5484093
:100E5000C3F548C0560EC93F560EC9BF6F1283C0B6
:100E6000CA210940000000000000E0BF00000000AF
:100E700000FFBF400000000000002440280C0020BC
:100E8000C4040020680D0020A80E002009EE008A8E
:100E900005E09DED000A00F07FFB09EE408A18EEA8
:100EA000100A07F03DFB41EC1E0B19EE900A07F00B
:100EB00037FB41EC100BB0EE4E1AF0EE6E1A04F058
:100EC0003BFB53EC1A2B51EC100B06F0B7FE53EC26
:100ED0001B2B07F065F853EC1C2B07F061F853EC63
:100EE0001D2B07F05DF806F0CFFD1E49B0EE480A55
:100EF000C86303F065FAF0EE400AB0EE690A03F049
:100F00005FFA30EE800A84ED120A10EE100A07F044
:100F100007FB41EC100B04F0CFFC51EC100B06F07A
:100F2000B3FD00EE900A9FED100AC4ED120A94ED95
:100F3000001A21EE001A84ED011A94ED061A21EE32
:100F4000001A84ED071A94ED0C1A21EE001A20EE17
:100F5000800A84ED0D1A84ED130A02B0BDEC108BEB
:100F600070BD0000E80F00204276F43F264890ED67
:100F70000D0AD0ED060AB8EEC00A30EEC00ABDEE8A
:100F8000C00A10EE100A002800DA40421F498842C9
:100F900037DA1F4890ED0D0AD0ED060AB8EEC00A08
:100FA00030EEC00ABDEEC00A10EE100A002800DACA
:100FB0004042884225DA174890ED0D0AD0ED060A26
:100FC000B8EEC00A30EEC00ABDEEC00A10EE100A3C
:100FD000002800DA4042884213DA0F4890ED0D0AEB
:100FE000D0ED060AB8EEC00A30EEC00ABDEEC00A67
:100FF00010EE100A002800DA4042884201DA01208F
:101000007047002070470000280C00208038010045
:10101000680D0020A80E0020E80F002001225102D8
:10102000014801F08FBA00000010024001488068BA
:1010300005F0E2BB2001002070B500EB4002C2EBDE
:10104000C01001EBC0040A2594FBF5F005FB10402D
:1010500010B9012000F0A8FA94FBF5F005FB104050
:10106000012802D1022000F09FFA94FBF5F005FB65
:101070001040022802D1032000F096FA94FBF5F00C
:1010800005FB1040032804D1BDE87040042000F0A7
:101090008BBA70BD10B52149214C224A8CB005286D
:1010A0002CD2DFE800F02D030B161F000A911C491B
:1010B000282210316846FFF7B3F907E018490A9271
:1010C000282248316846FFF7ABF9383494E80F001E
:1010D00012E00A911249282280316846FFF7A0F9F0
:1010E0007034F3E70E490A922822B8316846FFF7B8
:1010F00097F90B48A8300FC805F016FB0CB010BDCF
:101100000120FFF7C7FF0220FFF7C4FF0320FFF70E
:10111000C1FF0CB00420BDE81040BBE7A8010020CF
:101120003C1600208001002010B52B4A2DED028BCB
:10113000B7EE008A911E901D05F01EFD26489FED1A
:10114000271A801E00880A3800EE100AF8EEC00A3E
:1011500080EE810AB5EEC00AF1EE10FA01D29FEDE1
:10116000200A2048D0ED110AF8EEE00A60EE880A65
:1011700060EE800AFDEEE00AC0ED110A00F5A070F5
:10118000D0ED110AF8EEE00A60EE880A60EE800AFF
:10119000FDEEE00AC0ED110A00F5A070D0ED110AD5
:1011A000F8EEE00A60EE880A60EE800AFDEEE00AE2
:1011B000C0ED110A00F5A070D0ED110AF8EEE00ABA
:1011C00060EE880A20EE800ABDEEC00A80ED110AAA
:1011D000BDEC028B10BD0000120000200000704228
:1011E00000000000E8050020FEE70000014800F0D4
:1011F00094BB000080010020014800F08EBB00007D
:10120000A801002010B50246FF20054B04E000BFF6
:1012100012F8014B4440185D491EF9D210BD000080
:10122000168900080200094810B500880BD0084B49
:10123000491E0AD312F8014B4440E4B233F814407B
:1012400084EA1020F4E74FF6FF7010BD6C01002017
:10125000168A00082748F7EE000A0068B0EE600A18
:10126000B42808DA823800EE100ADFED231AB8EE4F
:10127000C01A81EE210AB5EEC00AF1EE10FA01D2D1
:101280009FED1E0A1E4890ED111AB8EEC11A21EE0C
:10129000201A21EE001ABDEEC11A80ED111A00F5D8
:1012A000A07090ED111AB8EEC11A21EE201A21EEAD
:1012B000001ABDEEC11A80ED111A00F5A07090ED74
:1012C000111AB8EEC11A21EE201A21EE001ABDEE55
:1012D000C11A80ED111A00F5A07090ED111AB8EE48
:1012E000C11A61EE200A20EE800ABDEEC00A80ED30
:1012F000110A70472401002000004842000000004D
:10130000E8050020014800F0B3BE0000A40300205F
:10131000014800F0ADBE000004040020014800F0C8
:10132000A7BE0000E4020020014800F0A1BE0000BA
:1013300064040020014800F09BBE0000440300202C
:1013400001681823CAB2103AB2FBF3F2054B6FF3EF
:101350000901032A9B5CC36500D9091D8165084604
:1013600070470000168C000810B5014600208B69FC
:101370008A6A4FF0C07453B1B3F5005F15D072B1F3
:10138000012A0CD0022A0AD0032A09D104E01AB19A
:10139000012A06D0022A03D1C96AC90100D5012059
:1013A00010BDC96AA142FAD010BD002AF7D0012AA7
:1013B000F2D0022AF3D0032AF3D010BD30B504686E
:1013C000256825F480252560046863608368402BC8
:1013D000036803D099600068C26030BD9A600068FD
:1013E000C16030BD7047000010B504462DED068B7E
:1013F000D0ED068A90ED058A3A489FED3B9A01E0D0
:1014000078EEC98A18EE901A8142F9DC02E000BF3A
:1014100078EE898AF5EEC08AF1EE10FAF8D301E091
:1014200038EE498A18EE101A8142F9DC02E000BF5A
:1014300038EE098AB5EEC08AF1EE10FAF8D338EE2C
:10144000C80AF0EE409A00F0A7F8B0EE40AA38EED5
:10145000680AB0EE408A00F09FF8B4EEC0AAF1EE40
:1014600010FA02D2B0EE690A01E0B0EE480A00F0CC
:1014700093F810EE100A1D4984ED070A88420ADD30
:1014800094ED060ADFED1A0A4FF0FF3030EE200A25
:1014900084ED060A00E00120E065164994ED0D0A8E
:1014A000D4ED060A04E000BF70EEC90AC4ED060AD6
:1014B000B8EEC01A30EEC11A11EE100A8842F3DA03
:1014C0000D4900BFB8EEC01A30EEC11A11EE100A75
:1014D000884204D370EE890AC4ED060AF2E7BDEC37
:1014E000068B10BD0000A0470000A0470000A046EA
:1014F0000000204700002047000020C730B5CB691E
:101500004B610023CD18C45C5B1CAC72082BF9DB6B
:10151000487BD1F80E309FED1D1A40EA03204FF4AE
:10152000A05390FBF3F44C6290FBF3F4886103FB4F
:10153000140000EE100AF8EEC00A80EE810ADFED1A
:10154000140A20EE200ABDEEC00A10EE100AC8618F
:101550004B69C31AB3F5204F02DD8B6A5B1E04E0B2
:1015600013F5204F8B6A01DA5B1C8B6203EB83035C
:1015700000EB83300862404200EE100A5063012005
:10158000B8EEC00A82ED1D0A486330BD0000A045D8
:101590000000A04772B6FEE7B5EEC00AF1EE10FA01
:1015A00001D2B1EE400A704710B5044602F096FD34
:1015B000094B04210122197003F138009A7001705F
:1015C000827038300170827038300170827020462D
:1015D000BDE81040FFF75EBD3C16002010489FEDAF
:1015E000111A124990ED4A0A0F48F8EEC00ABBEEF4
:1015F0000E0A00EE810AD0ED090A30EEC00ADFEDD6
:101600000C0A10EE100A884202DD30EE600A7047C4
:1016100010EE100A07498842F9D930EE200A7047C7
:101620006413002000003443E80A00200000344323
:101630000000B443000034C390F82020012A07D0F2
:10164000022A05D0416A41F480214162012070479D
:10165000006842690A43426100207047F0B590F883
:1016600020500468A468012D05D0022D03D0416AE2
:1016700041F4802153E014F0406F01D1E5004BD5D7
:10168000C4F30164022C03D9416A41F4000146E02D
:101690000125A5401D608D684FF4C0739DB1CE68D3
:1016A00035434E6845EAC605066803EB0417F55155
:1016B0004FF4C275076805EB04150E697E51097D6C
:1016C000012905D009E00E88CD6845EA4655EBE7CB
:1016D00001684E5946F480764E511179D2F8055082
:1016E0004FF4C67641EA0525016806EB04168D51D4
:1016F0001178D2F801204FF4C47541EA0221026842
:1017000005EB04155151006803EB0411425842F0F7
:10171000010242500020F0BD416A41F400114162D3
:101720000120F0BD10B590F82020012A07D0022A30
:1017300005D0416A41F480214162012010BD3B483F
:10174000D0F8002242F00102C0F80022D0F80022B6
:1017500022F47C52C0F80022D0F800224B6A42EA00
:101760000322C0F800220A7D02F01F0301229A40E2
:10177000D0F81C329343C0F81C32CB69B3B9D0F80F
:101780000C329343C0F80C328C894B6864F31F43CE
:101790004C6900EBC404C4F840320C890B6864F354
:1017A0001F434C6900EBC404C4F84432CB69012BDD
:1017B00016D1D0F80C321343C0F80C320C884B68A9
:1017C00064F31F434C6900EBC404C4F840320C8935
:1017D000CB6864F31F434C6900EBC404C4F8443283
:1017E0008B69002BD0F804320ED01343C0F80432BA
:1017F0000B69002BD0F8143208D01343C0F8143210
:10180000096A012904D008E09343EFE79343F5E721
:10181000D0F81C121143C0F81C12D0F8001221F0AD
:101820000101C0F80012002010BD0000006400405B
:10183000704730B590F82040012C05D0022C03D021
:10184000416A41F480215DE00468002955D0246993
:10185000A40754D04FF4D874056804EB01142D5933
:1018600015F00405956005682D594ED0ED085560BA
:1018700005682C5904F00204D4604FF4DA7405684A
:1018800004EB01142D5905F00F05156105682D595C
:10189000C5F30725956105682C59240C54614FF454
:1018A000DC72046802EB0112A4581C700468A4588E
:1018B000240A5C700468A458240C9C700468A25824
:1018C000120EDA704FF4DE72046802EB0112A458B3
:1018D0001C710468A458240A5C710468A458240C80
:1018E0009C710468A258120EDA71006881B1016916
:1018F00041F020010161002030BDE468A8E7416AA1
:1019000041F400114162012030BD6D0D1560AFE75B
:10191000C16841F02001C160EDE72DE9F05F0546A7
:10192000006800244669D0F804908768D0F80CB0AD
:10193000D0F810A0D0F81880F10748D0F90714D0DB
:1019400001218160B80703D5284600F042FB0CE076
:10195000780702D54FF4006407E0380702D54FF44A
:10196000805402E0284600F033FBF80516D52968BC
:101970004FF480708860B80503D5284600F02BFB33
:101980000CE0780502D544F4005407E0380502D590
:1019900044F4804402E0284600F01CFBF80316D50E
:1019A00029684FF480308860B80303D5284600F0DA
:1019B00014FB0CE0780302D544F4004407E038033C
:1019C00002D544F4803402E0284600F005FB3007DD
:1019D00007D55FEACB6004D52968102044F4007471
:1019E000C86070074FF0080707D55FEA0B7004D591
:1019F0002868C760284600F099F9B00706D528681E
:101A0000C068800702D0284600F092F9700607D51A
:101A10005FEACA6004D52968102044F48064086134
:101A2000B00607D55FEA0A7004D528680761284622
:101A300000F09EFAF00606D528680069800702D0FB
:101A4000284600F096FAB00308D55FEAC96005D5CC
:101A5000296810204860284600F08CFAF00307D56A
:101A60005FEA097004D528684760284600F0B6FA96
:101A7000300446D55FEA497040D5F00504D55FEAE9
:101A8000C87001D044F00104B00504D55FEA887045
:101A900001D544F00204700504D55FEA487001D511
:101AA00044F00404300529D518F0700F26D008F052
:101AB0007000402815D006DC102809D020280AD054
:101AC000302816D10AE050280ED0602811D10EE03F
:101AD00044F008040DE044F010040AE044F020044F
:101AE00007E044F0400404E044F0800401E044F4E2
:101AF00080742868816921F070018161296804205F
:101B00004860002C05D0686A204368622846FFF7C9
:101B10008FFEBDE8F09F70B5040003D094F820005C
:101B200010B104E0012070BD204600F081F820686B
:101B3000016841F00101016000F00AFD054605263B
:101B400004E000F005FD401B0A2811D82068406819
:101B5000C007F6D02068016821F00201016000F0A2
:101B6000F7FC05460BE000F0F3FC401B0A2806D901
:101B7000606A40F40030606284F82060D2E7206838
:101B800040688007EFD4207E0128206801683DD09E
:101B900021F080010160607E01282068016838D052
:101BA00021F040010160A07E01282068016833D047
:101BB00021F020010160E07E0128206801682ED01C
:101BC00041F010010160207F01282068016829D0C0
:101BD00021F008010160607F01282068016824D09D
:101BE00021F004010160D4E902010843D4E90412A0
:101BF000114308436168491E08432168C8610020F9
:101C00006062012084F82000002070BD41F0800156
:101C1000C0E741F04001C5E741F02001CAE721F0EB
:101C20001001CFE741F00801D4E741F00401D9E702
:101C3000F0B587B0044614216846FEF745FC364BE4
:101C40003648DFF8D0E01968D4F800C0334A0325DD
:101C50000226092710300024491CF44522D11960BE
:101C6000012907D1016841F000710160006800F0AE
:101C700000700590106840F0080010601068CDE911
:101C8000005600F00800CDE9047069462448CDE90B
:101C9000024500F05FFB00220121142000F0C6FC89
:101CA000142032E0DFF87CE0F44530D1D0F800C0F9
:101CB0004CF0806CC0F800C0D0F800C001290CF0D6
:101CC000806CCDF814C0196007D1016841F0007133
:101CD0000160006800F000700590106840F002009C
:101CE0001060106802AB00F0020005906020CDE9A2
:101CF000000683E8B00069460B4800F02BFB002289
:101D00000121402000F092FC402000F081FC07B04F
:101D1000F0BD0000006400400000002030380240A8
:101D2000000C0240006800400004024070470000C0
:101D300070B57B4D01267B498AB02E6088424FD119
:101D40006B4602AA00217748FFF773FD7549684684
:101D500005F026F8B0F90010B0F9022000EE101AD4
:101D6000B0F904300298B8EEC00A40F20624A0F29E
:101D70000621A0421AD00EDC0B2828D00D2829D02D
:101D8000A0F50070053819D1BCEEC00A10EE100A9B
:101D900081B2654810E0012912D002290ED1BCEEB3
:101DA000C00A10EE100A81B2604805E0BCEEC00A1D
:101DB00010EE100A81B25E4804F0ECFE0AB070BD6D
:101DC000BCEEC00A10EE100A81B25A48F4E7584A35
:101DD000594901E0554A59496846FFF78FFBEDE73D
:101DE00057498842EAD16B4602AA00215448FFF7BE
:101DF00020FD544C00B1A6715149684604F0D0FF53
:101E00000299102957D00ADC07293CD009292ED085
:101E10000A2977D00C29D1D1464A4B49DCE712294F
:101E200041D0152971D0172975D0A1F50071093954
:101E3000C4D1464991ED020A81ED000A4288037837
:101E400042EA032212B200EE102AB8EEC00A81ED77
:101E5000020AC288007942EA002000B200EE100AAD
:101E6000B8EEC00A81ED030A03F062F9A6E79DF817
:101E70000000A0719DF80110354AA1609DF8021084
:101E8000116020739AE74188027841EA022121809B
:101E9000C188027941EA022161804189007A41EAE0
:101EA0000020A0808AE72B4AB0F902101160B0F937
:101EB0000400294921E041880278DFED280A41EA3F
:101EC000022109B200EE101AB8EEC00A80EE201A04
:101ED00085ED021AC188027941EA022109B200EEB9
:101EE000101AB8EEC00ABDEEC00A85ED010A41899C
:101EF000007A41EA00201A4900B208605EE701E07A
:101F000003E008E0084A174966E717499DF8000012
:101F1000C1F8280152E79DF800001449EDE70000E0
:101F20004801002080010020280C0020E80F00203C
:101F3000680D0020A80E002074160020E416002072
:101F4000A8010020D8050020AC160020AC14002009
:101F50001400002014010020100100200000C842DD
:101F60001C0100203C1600206413002040010020CA
:101F7000704770477047000070B5044690F8200025
:101F8000012804D0606A40F40020606218E002205A
:101F900084F820002068016821F00101016000F050
:101FA000D7FA05460EE000BF00F0D2FA401B0A281F
:101FB00008D9606A40F400306062052084F820008F
:101FC000012070BD20684068C007EDD1606270BD1F
:101FD00070477047704770477047704770472DE9EA
:101FE000F0410446876D00F0B3FA064694F83500D8
:101FF0000025022806D08020606584F83450012036
:10200000BDE8F0812068016821F0160101602068B8
:10201000416921F080014161206C08B9A06C20B1B8
:102020002068016821F0080101602068016821F042
:10203000010101600CE000F08BFA801B052807D934
:1020400020206065032084F8350084F83450D7E7F9
:1020500020680068C007EED194F85C103F208840EB
:10206000B860012084F8350084F834500020C7E7B8
:102070002DE9F84304464FF00009CDF8009063487D
:102080004FF41651A56D0068B0FBF1F72E6894F877
:102090005C10082000FA01F131420FD021680A6873
:1020A00052070BD50A6822F004020A6094F85C100B
:1020B0008840A860606D40F00100606594F85C1095
:1020C0004FF0010808FA01F0304208D02168496950
:1020D000090604D5A860606D40F00200606594F8C0
:1020E0005C1004208840304208D0216809688907C4
:1020F00004D5A860606D40F00400606594F85C1041
:1021000010208840304218D021680968090714D58A
:10211000A86020680168490304D50068000308D559
:10212000A16C07E00168C90503D4016821F008012A
:102130000160216C09B12046884794F85C1020208A
:102140008840304231D021680968C9062DD5A86081
:1021500094F8350005282068016806D0490347D562
:10216000006800031DD4616C1CE021F016010160C1
:102170002068416921F080014161206C08B9A06CA0
:1021800020B12068016821F00801016094F85C101A
:102190003F208840A86084F8358084F83490216D11
:1021A0001FE0E16B09B120468847606D00282BD005
:1021B000606DC00714D0052084F8350020680168E0
:1021C00021F0010101600098401C0090B84203D842
:1021D00020680068C007F6D184F8358084F8349010
:1021E000E16C002910D001B02046BDE8F04308475B
:1021F0000168C905D5D4016821F01001016084F897
:10220000358084F83490CCE7BDE8F8837C01002069
:102210002DE9F041044600F09BF906465CB102202E
:1022200084F83500002584F834502068016821F0D6
:10223000010101600DE00120BDE8F08100F088F9A6
:10224000801B052805D920206065032084F835000F
:10225000F2E720680068C007F0D1226811682048C2
:102260000140D4E901031843D4E90336334318434A
:1022700063691843A3691843E3691843236A184341
:102280000843616A042903D1D4E90B1319430843B5
:10229000106020684069666A20F0070130460E43EE
:1022A000012704280CD1A06A0643E06A40B1204609
:1022B000FFF75AF820B14020606584F83570BAE71E
:1022C000206846612046FFF73BF894F85C203F21E8
:1022D00091408160656584F835700020ACE70000AE
:1022E0003F8010F02DE9F0410446866D90F83400EF
:1022F000002501280DD0012084F8340094F83570B1
:102300000020012F07D084F8340002252846BDE8BC
:10231000F0810220FBE7022784F8357060652046D3
:10232000FFF74CF894F85C103F208840B0602068BC
:10233000016841F016010160206C20B1206801683D
:1023400041F0080101602068016841F0010101606D
:10235000DCE700002DE9F84FDFF8BCA100220125E1
:102360000AF1040B03264FF00F090BF1040E00BF16
:102370000B6805FA02F42340A34270D10F7907F0ED
:102380000307012F01D0022F16D187684FEA4208B8
:1023900006FA08FC27EA0C07D1F80CC00CFA08FC76
:1023A0004CEA070CC0F808C04768A7430C79C4F38F
:1023B000001494403C4344600C79E443A4070AD0E1
:1023C000C4684FEA420C06FA0CF7BC438F6807FA60
:1023D0000CF72743C7600C7904F00304022C12D1D8
:1023E000D40800EB840CDCF820405707FF0E09FAF4
:1023F00007F824EA0804D1F8108008FA07F848EA38
:102400000408CCF8208004684FEA420C06FA0CF766
:10241000BC430F7907F0030707FA0CF7274307605F
:102420004C6814F4403F70D03C4C276847F4804718
:102430002760246822F0030704F480440094384C99
:1024400007EB040CDCF8084897074FEA177809FAFD
:1024500008F7BC43334FB84202D1002724E054E0D0
:10246000314FB84201D101271EE0304FB84201D1AF
:10247000022719E02E4FB84201D1032714E02D4F57
:10248000B84201D104270FE02B4FB84201D10527F4
:102490000AE02A4FB84201D1062705E0284FB8428A
:1024A00001D1072700E0082707FA08F72743CCF8EF
:1024B0000878DAF800405746D1F804C09C435FEA38
:1024C000CC3C00D51C433C60DBF800405F46D1F8B3
:1024D00004C09C435FEA8C3C00D51C433C60DEF8A2
:1024E00000407746D1F804C09C435FEACC2C00D56D
:1024F0001C433C60084F0C373C68D1F804C09C4337
:102500005FEA8C2C00D51C433C60521C102AFFF45F
:102510002FAFBDE8F88F0000003C01404438024076
:102520000030014000000240000402400008024068
:10253000000C02400010024000140240001802404B
:10254000001C02400AB1816170470904FBE70000EA
:1025500001488068704700007001002002488168CF
:102560000278114481607047700100200B4810B55B
:10257000016841F400710160016841F4806101600B
:10258000016841F480710160032000F06FF80F20B2
:1025900000F006F800F024F8002010BD003C0240D6
:1025A00070B50D4D04464FF47A712878B1FBF0F008
:1025B0000A490968B1FBF0F000F00CFB48B9102C97
:1025C00007D200222146501E00F030F800206C6037
:1025D00070BD012070BD0000700100207C01002052
:1025E0000A4808B5016841F480410160006800F4C0
:1025F000804000900548001F016841F08051016053
:10260000006800F08050009008BD0000443802408F
:10261000002809DB00F01F020121914040098000E1
:1026200000F1E020C0F8001170470000F0B40E4B3C
:102630001B680C46C3F30223C3F10705042D00D920
:102640000425191D072901D2002300E0DB1E012605
:1026500006FA05F1491E214099409E40761E16401B
:102660003143F0BC02F0ECBD0CED00E0064900F097
:10267000070208684FF6FF03184040EA0220034AA9
:1026800010430860704700000CED00E00000FA0500
:102690002DE9F0470E46050065D0DFF81481D8F823
:1026A0000000F7B200F00700B04207D288F80070CF
:1026B000D8F8000000F00700B04254D128683D4C23
:1026C000810712D5400703D5206840F4E050206010
:1026D0002878000703D5206840F460402060206817
:1026E000A96820F0F000084320602878C0072DD0AA
:1026F000304968680839012812D0022813D003280D
:1027000011D00968890700292DDA216821F0030119
:1027100001432160FFF71CFF814641F2883A0EE039
:1027200009688903EFE709688901ECE7FFF710FF03
:10273000A0EB0901514502D90320BDE8F0872068CC
:10274000696800F00C00B0EB810FEFD1D8F80010F1
:10275000404601F00701B14207D90770006800F058
:102760000700B04201D00120E7E72878400705D5EF
:102770002068E96820F4E0500843206028780007CA
:1027800006D52068296920F4604040EAC100206035
:1027900000F038F82168084AC1F30311515CC840C1
:1027A0000649086006480068FFF7FAFE0020C4E703
:1027B000003C0240083802401E8C00087C010020CA
:1027C000740100200448054900680968044AC1F3FF
:1027D0008221515CC84070477C01002008380240CB
:1027E0002E8C00080448054900680968044AC1F3B2
:1027F0004231515CC84070477C01002008380240DB
:102800002E8C0008154810B5006810F00C02144812
:1028100013D01449042A0FD0082A0ED10F4C241FBC
:102820002268236802F03F025B0207D52068C0F3EC
:102830008810A0FB010106E0084610BD2168C1F325
:102840008811A1FB00010023FDF72EFD2168C1F3D3
:102850000141491C4900B0FBF1F010BD08380240AD
:102860000024F400001BB7002DE9F84F04006ED0DF
:102870002078DFF84C93C007A9F104054AD009F18C
:1028800004000168C1F38101012908D00068C0F388
:10289000810002280AD1D9F80000400206D5286834
:1028A000800337D560680028E1D033E06068B0F578
:1028B000803F10D0B0F5A02F286810D020F48030D1
:1028C0002860286820F4802028606068A8B1FFF79D
:1028D0003FFE06460DE0286840F48030F4E740F4FF
:1028E00080202860F7E700BFFFF732FE801B6428D6
:1028F00073D828688003F7D50CE0FFF729FE064659
:1029000005E000BFFFF724FE801B6428F0D828688C
:102910008003F7D42078DFF8AC8280074FF0000AFC
:102920003ED5A748001D016811F00C0F08D00068C3
:10293000C0F3810002280BD1D9F80000400207D46F
:102940002868800716D5E068012800D112E033E13D
:10295000E068B8B10120C8F80000FFF7F9FD0646AD
:1029600005E000BFFFF7F4FD801B0228C0D82868EF
:102970008007F7D52868216920F0F80040EAC100F7
:1029800028600DE0C8F800A0FFF7E2FD064604E06D
:10299000FFF7DEFD801B02281FD828688007F7D4C8
:1029A0002078000722D5864F87486169703771B15A
:1029B00001210160FFF7CCFD064604E0FFF7C8FDEA
:1029C000801B022809D838688007F7D50EE0C0F8C8
:1029D00000A0FFF7BDFD064605E082E0FFF7B8FD69
:1029E000801B02287DD838688007F7D420784007FC
:1029F00068D5DFF8CCB100270BF13C0BDBF8000009
:102A0000C0000BD4DBF8001041F08051CBF800106F
:102A1000DBF80000012700F0805000906B4E30681A
:102A2000C00510D4306840F480703060FFF790FD2E
:102A3000009005E0FFF78CFD0099401A022850D85D
:102A40003068C005F6D55E4EA0686C3601280FD000
:102A50000528306810D020F001003060306820F088
:102A600004003060A068B8B1FFF772FD00900FE07D
:102A7000306840F00100F4E740F004003060F7E710
:102A8000FFF766FD0099411A41F28830814266D80D
:102A900030688007F4D50EE0FFF75AFD009007E09C
:102AA000FFF756FD0099411A41F28830814256D80D
:102AB00030688007F4D42FB1DBF8001021F080518A
:102AC000CBF80010A069C8B33D49091D0968C1F3DE
:102AD000810102294AD00228504607D0C8F8600078
:102AE00000E03CE0FFF734FD04463BE04746C8F811
:102AF0006000FFF72DFD064605E000BFFFF728FD4B
:102B0000801B02282BD828688001F7D4D4E907015C
:102B10000843A16A2E4A490802EB0141626A41EA70
:102B20008211084394F82C1040EA0161C9F80010A2
:102B300001203866FFF70CFD044606E03EE000BFCA
:102B4000FFF706FD001B022809D828688001F7D589
:102B500034E000BFFFF7FCFC001B022802D9032071
:102B6000BDE8F88F28688001F4D427E00128F7D069
:102B7000D9F80000E26900F4800191421CD1226A78
:102B800000F03F01914217D147F6C071626A0140DF
:102B9000B1EB821F10D1A26A4FF0FF3300F4403135
:102BA00003EB5202B1EB024F06D194F82C1000F067
:102BB0007060B0EB016F01D00120D1E70020CFE7BA
:102BC0000438024000004742800E47420070004037
:102BD0000000FFFF10B5401EB0F1807F01D301203F
:102BE00010BD4FF0E02460610F21601702F028FB58
:102BF0000020A06107202061002010BD70477047B1
:102C000070B590F83C20012A32D0012480F83C4075
:102C1000022280F83D2003685A689D6822F0700601
:102C20000A6832435A60134B02689A4214D0B2F1D8
:102C3000804F11D0104B9A420ED0104B9A420BD0BD
:102C40000F4B9A4208D00F4B9A4205D00E4B9A4236
:102C500002D00E4B9A4204D1496825F080031943F3
:102C6000916080F83D40002180F83C10084670BD1E
:102C7000022070BD00000140000400400008004038
:102C8000000C0040000401400040014000180040DA
:102C900010B5040003D094F83D0010B107E0012006
:102CA00010BD002084F83C00204600F01FF80220F0
:102CB00084F83D00211D206801F012FC012084F8F9
:102CC000460084F83E0084F83F0084F8400084F811
:102CD000410084F8420084F8430084F8440084F8FA
:102CE000450084F83D00002010BD000008B50068D4
:102CF0000B49884212D10B48016841F00201016082
:102D00000068002200F00200009001211D20FFF762
:102D10008DFCBDE808401D20FFF77ABC08BD00000F
:102D2000000400404038024090F83D10012901D0D5
:102D300001207047022180F83D100168CA6842F006
:102D40000102CA6000681149884214D0B0F1804F76
:102D500011D00F4988420ED00E4988420BD00E493F
:102D6000884208D00D49884205D00D49884202D0DA
:102D70000C49884204D1816801F00701062903D07B
:102D8000016841F00101016000207047000001402E
:102D90000004004000080040000C00400004014016
:102DA000004001400018004070B5044690F83C0017
:102DB0000025012817D0012684F83C60022084F801
:102DC0003D002068826822F0770222F47F42826010
:102DD0000868502838D00DDC20284FD005DC90B38F
:102DE000102811D14AE0022070BD302846D040287A
:102DF0000AD13BE060282FD070280DD0B0F5805F5D
:102E000003D0B0F5005F12D0012584F83D600020AA
:102E100084F83C00284670BDCB68D1E901212068C8
:102E200001F0C2FB2068816841F0770109E0CB68BE
:102E3000D1E90121206801F0B7FB2068816841F4E5
:102E400080418160E1E719E0CA684968206801F0C3
:102E5000BDFB5021206806E0CA684968206801F07F
:102E6000C6FB6021206801F0A9FBCEE7CA6849686B
:102E7000206801F0ABFB40212068F4E7226801469E
:102E80001046F0E7704770B50446006801694FF0DE
:102E90000005C943890715D4C168C943890711D4FE
:102EA000E91E0161012020772068806980072046A3
:102EB00002D0FFF7E7FF04E000F098F8204600F0AA
:102EC00096F8257720680169C943490717D4C16876
:102ED000C943490713D46FF0040101610220207730
:102EE0002068806910F4407F204602D0FFF7CAFFB7
:102EF00004E000F07BF8204600F079F825772068A0
:102F00000169C943090716D4C168C943090712D426
:102F10006FF008010161042020772068C0698007F4
:102F2000204602D0FFF7AEFF04E000F05FF8204635
:102F300000F05DF8257720680169C943C90617D4F8
:102F4000C168C943C90613D46FF01001016108209C
:102F500020772068C06910F4407F204602D0FFF738
:102F600091FF04E000F042F8204600F040F8257799
:102F700020680169C943C90708D1C168C943C907A5
:102F800004D1891E0161204600F032F820680169F1
:102F9000C943090609D4C168C943090605D46FF0BD
:102FA000800101612046FFF729FE20680169C943BD
:102FB000490609D4C168C943490605D46FF04001E8
:102FC0000161204600F040F820680169C943890684
:102FD0000BD4C168C943890607D46FF02001016191
:102FE0002046BDE87040FFF70ABE70BD70477047CD
:102FF00010B501F00FFB134C0A21206890FBF1F291
:1030000001FB1200042805D104F04AFB03F00CFC7C
:1030100003F0ACFF2068032190FBF1F201FB1200EA
:1030200008B904F045F8D4E9001001F039F8D4E902
:103030000010FEF701F8D4E90010BDE8104004F0DC
:10304000BBBB0000440000207047704710B5044629
:103050000068406994F83D10C0F3C010212911D1D7
:1030600080B12068143050E8001F21F0800140E852
:103070000012002AF5D1606B08B1FEF7B0FF2046C0
:1030800001F072FB2068406994F83E10C0F3801094
:10309000222911D180B12068143050E8001F21F09E
:1030A000400140E80012002AF5D1A06B08B1FEF7FC
:1030B00096FF204601F031FB002010BD704770B52F
:1030C000040004D094F83D00002510B106E0012072
:1030D00070BD84F83C50204600F022F8242084F88B
:1030E0003D002068C16821F40051C160204601F014
:1030F00049FB2068016921F4904101612068416920
:1031000021F02A0141612068C16841F40051C16089
:103110002564202084F83D0084F83E00002070BD26
:103120002DE9F04F87B0044614216846FDF7CCF92D
:103130009A48DFF8648214380221D4F800C0974B13
:103140000322CF03002506154FF00709C44572D1AD
:10315000D3F800C0AA464CF0100CC3F800C01B689E
:1031600003F010030593036843F002030360036850
:1031700003F002030593036843F001030360006852
:10318000884600F0010005908020CDE90008CDE9D7
:10319000025293466946CDF810908148FFF7DAF85D
:1031A0007010CDE90008CDE9025B6946CDF81090BA
:1031B0007C48FFF7CFF8DFF8F4817B494046C8F838
:1031C00000104FF00069C0E90195C0E90356C8F846
:1031D0001450F101C8F81850C8E90751C8F8245034
:1031E000FFF716F808B1FEF7D5F9704D6E48C4F830
:1031F000388060353030C8F83840C5E900094020D3
:10320000A860C5E903A6C5F814A0C5F818A0C5E9CB
:1032100007A72846C5F824A0FEF7FAFF08B1FEF775
:10322000B9F96563002201212520AC63FFF7FEF99F
:10323000252047E0FFE7DFF87881C44547D1574BA9
:103240001B1FD3F800C04CF4802CC3F800C01B68CF
:1032500003F480230593036843F0040303600068CC
:1032600000F0040005904FF440608DE82300CDE9A4
:10327000032969464F48FFF76DF8DFF830814E4962
:1032800008F1C0084046C8F800104FF00061C0E9DE
:103290000115C0E90356C8F81450C8F81850C8E919
:1032A0000757C8F82450FEF7B3FF08B1FEF772F9CC
:1032B000C4F83880002211462720C8F83840FFF7AC
:1032C000B5F92720FFF7A4F907B0BDE8F08FDFF8C4
:1032D000EC80C445F8D1D3F800C04CF0200CC3F802
:1032E00000C01B6803F020030593036843F040030C
:1032F0000360006800F0400005904FF484408DE8C2
:1033000023000820CDE9032069462D48FFF722F865
:103310002549DFF8B08060394046C8F800104FF00A
:103320002069C0E90195C0E90356C8F814504FF46C
:103330000031C8F81850C8E90751C8F82450FEF702
:1033400067FF08B1FEF726F9C4F83880C8F838409E
:10335000DFF87080144908F1600840461831E0E851
:103360000219402162C040F814598561C0E907572D
:103370004046C8F82450FEF74BFF08B1FEF70AF9A3
:10338000C4F83480002211464720C8F83840FFF7BF
:103390004DF9472096E700000010014044380240F4
:1033A000000402400000024088640240E402002061
:1033B000004800400008024028600240001401401C
:1033C000001802400404002090F83E30202B0ED15B
:1033D00059B152B190F83C30012B08D0012380F84C
:1033E0003C300023036301F053BA012070470220F0
:1033F00070477047704700002DE9F843044690F885
:103400003D001F4616460D4620284CD1C5B1BEB121
:1034100094F83C00012846D0012084F83C004FF08D
:103420000008C4F84080212084F83D00FFF790F8A0
:10343000A6848146E684A068B0F5805F03D004E0EE
:103440000120BDE8F883206928B12E465FF0000511
:1034500084F83C800EE00026FAE78021204601F047
:103460007BFAA0B9AEB116F8010B21684860E08C78
:10347000401EE084E08C4B464FF00002009700288D
:10348000EBD14FF04001204601F066FA30B1032045
:10349000D7E735F8020BC0F30800E6E7202084F8F0
:1034A0003D000020CDE70220CBE7FEE710B500F09D
:1034B00015FE0A490A2001F1380248700B205070AD
:1034C00001F170030C20587001F1A8040D20607008
:1034D0000020486350635863606310BD3C160020B1
:1034E000104810B50E4901600321416000214FF4DE
:1034F00080228160C0E903124FF4E002426101764C
:10350000012242768276C17601774177FEF703FB8E
:10351000002803D0BDE81040FEF73CB810BD000005
:103520000064004080010020104810B50E49016081
:103530000321416000214FF480228160C0E9031221
:103540004FF4E00242610176012242768276C17632
:1035500001774177FEF7DFFA002803D0BDE810407D
:10356000FEF718B810BD000000680040A801002058
:103570001D4808B5016841F400110160016801F4BB
:1035800000110091016841F480010160006800228F
:1035900000F48000009011460C20FFF747F80C2043
:1035A000FFF736F8002211463920FFF73FF839209F
:1035B000FFF72EF8002211464420FFF737F8442089
:1035C000FFF726F8002211464520FFF72FF8452087
:1035D000FFF71EF8002211464620FFF727F8BDE846
:1035E00008404620FFF714B83038024070B586B066
:1035F00014216846FCF768FF25480024016841F063
:1036000002010160016801F002010591016841F0C9
:1036100040010160016801F040010591016841F03D
:1036200001010160016801F001010591016841F0AB
:1036300008010160016801F008010591016841F08D
:1036400004010160016801F004010591016841F085
:1036500080010160016801F080010591016841F07D
:10366000100101600068012200F01000094E5502AF
:10367000059029463046FEF765FF01200095CDE90B
:103680000104694630460394FEF764FE06B070BD3F
:10369000303802400010024010B586B000241748B0
:1036A00000940194029403940494134905940160D6
:1036B0005321C0E9011440F2E731C0E903148461E9
:1036C000FFF7E6FA08B1FDF765FF4FF48050009070
:1036D00069460A48FFF768FB08B1FDF75BFF0494F1
:1036E00004A906480594FFF78BFA002801D0FDF7DE
:1036F00051FF06B010BD000000040040D0010020C2
:103700000C4810B50A4901604FF4E13141600021D5
:1037100081600C22C160C0E904128161C161FFF7C0
:10372000CEFC002803D0BDE81040FDF733BF10BD2C
:1037300000100140180200200C4810B50A49016031
:103740000B494160002181600422C160C0E904127C
:103750008161C161FFF7B3FC002803D0BDE81040D0
:10376000FDF718BF10BD0000004800405C020020BB
:10377000A08601000C4810B50A4901604FF4E13100
:103780004160002181600C22C160C0E904128161A6
:10379000C161FFF794FC002803D0BDE81040FDF79D
:1037A000F9BE10BD00140140A0020020FEE7000099
:1037B000084907484860084942F6302048600749F0
:1037C00047F6F460486006494BF2BC104860704709
:1037D000FCBDFFFF280C0020680D0020A80E002073
:1037E000E80F0020FEE7000000282BD0002929D098
:1037F00091ED000A80ED000A91ED010A80ED010AC9
:1038000091ED020A80ED020A91ED030A80ED030AB0
:1038100091ED040A80ED040A9FED0B0A80ED0E0A7B
:1038200080ED0D0A80ED0C0A80ED080A80ED0B0A90
:1038300080ED0A0A80ED090A80ED110A80ED100A78
:1038400080ED0F0A70470000000000009FED0A0A9B
:1038500080ED030A80ED040A80ED000A80ED010A84
:1038600080ED020A80ED050A80ED060A80ED070A68
:1038700080ED080A7047000000000000704700005B
:103880000D4810B50168012904D0012181608168CB
:10389000C16010BD41680222C82900DD826000239A
:1038A000962900DC8360C4681CB9B42901DA8360FE
:1038B000EDE78260EBE7000020010020002801DC3A
:1038C000404200B27047000070B5174CB4F90000D8
:1038D000FFF7F4FF40F29465A84213DCB4F902004C
:1038E000FFF7ECFFA8420DDCB4F90400FFF7E6FF98
:1038F000A84207DCB4F90600FFF7E0FFA84201DCAC
:10390000002070BD002020806080A080E0802081A9
:103910000221A172E172A081E0812082A074E07492
:10392000A082012070BD00004E00002030B5144B75
:103930001C68656945F0400565611B68DC6844F0FA
:103940001004DC600F4B1C68256825F0010525601C
:103950001C682568ED07F7D11D680B4CAC601C682E
:10396000E06018680161186842601868016841F4F5
:10397000802101601868016841F00101016030BDDB
:103980005C020020A40300200448004038B51B4816
:103990000168CA6822F40052CA60194A11680B68AB
:1039A00023F001030B60136824215960006801684B
:1039B00041680091134C13684FF40011A34202D9DF
:1039C000104B4C3B04E0104CA34203D90D4B503B31
:1039D000196008E00C4D0C4C603DB83CAB4201D97D
:1039E000E16000E0A160C16841F40051C16010686D
:1039F000016841F00101016038BD00005C02002057
:103A0000A403002058640240B860024030B5284842
:103A100001684B6943F040034B6101684B6943F017
:103A200080034B610068C16841F01001C16021480A
:103A300001680B6823F001030B6001680B68DB076A
:103A4000F7D11D4D4FF40013A94202D91A4C4C3C3A
:103A500004E01A4CA14203D9174C503C236008E003
:103A6000164D164C603DB83CA94201D9E36000E018
:103A7000A360134B8B6004681249E1600468216104
:103A800001684A6001680A6842F480220A6000689E
:103A9000016841F0010101600B4801680A6822F0E9
:103AA00001020A6001680A68D207F7D18B6030BD55
:103AB000A00200200404002058640240B8600240C4
:103AC000041401402C170020640400202DE9F04F5D
:103AD000FE4D4FF4E1618DB06888401C80B2B0FBB0
:103AE000F1F201FB12016880002401B9EC606F2142
:103AF000B0FBF1F201FB120000287DD1F449EB6824
:103B000001F11C000B900F3007900F3006900F3022
:103B10000A900F3009900F3008905A30052603277D
:103B200012224FF008084FF0020B4FF050094FF4EB
:103B3000C86EA0F13C0C01F10D0A0B2B5CD2DFE842
:103B400003F00664E1FEFDFCFBFAF9F8F7004FF024
:103B500001090594CDE900B9029403940494D84670
:103B600000234A46DBA1504600F0CAFF0594CDE988
:103B7000008902940394049400230122D6A10B9897
:103B800000F0BEFF029405940394049400230122E4
:103B9000D2A1CDE90089079800F0B2FF0594CDE9E4
:103BA000008902940394049400230122CCA1069876
:103BB00000F0A6FF0594CDE90089029403940494D3
:103BC00000230122C7A10A9800F09AFF0594CDE9CD
:103BD000008604940294039400230122C2A1099850
:103BE00000F08EFF40F24F1340F2C730CDE90203E0
:103BF000BE214FF4F06200E081E0CDE90421CDE97F
:103C0000008700230222B9A16BE0012700970294EC
:103C10000394049400233A46B5A1504601970594B5
:103C200000F06EFF0594CDE90076029403940494AD
:103C300000230122AFA10B9800F062FF02940097CD
:103C40000394049400230122ABA1019705940798E3
:103C500000F056FF00970197029403940494002308
:103C60000122A6A10594069800F04AFF0DF1100864
:103C70004FF496734FF4FA724FF407714FF470706B
:103C800088E80F000A204FF4AF71CDF800B0CDE9FD
:103C9000011003905C460223012299A1504600F0D6
:103CA00097FE40F2351040F2D131CDE90301009783
:103CB00040F2BD320590CDE901420023012291A1DD
:103CC000099800F01DFF40F2C730FA22CDE9020248
:103CD0004FF42F7100970023CDE9040101220197D1
:103CE00089A1089800F00CFF02F080FFC2B2784969
:103CF0005FF0070000F086FFE868401CE8600DB048
:103D0000BDE8F08F64274FF44370CDE904071E210E
:103D100040F276224FF00109CDE90221CDE9009B66
:103D2000D8464B464A4679A1504600F0E9FE07E0E6
:103D30006DE15DE14FE141E133E11DE10FE167E05C
:103D400040F2A231CDE904174FF44370CDE90207E8
:103D5000CDE9009801231A466DA10B9800F0D0FE22
:103D600002A840F2744A40F2DE3180E882040597EE
:103D7000CDE9009801231A4666A1079800F0C0FE1D
:103D80001E2040F20A52CDE90420CDE90098CDE989
:103D900002A701231A4660A1069800F0B1FE4FF079
:103DA000B4090F274FF40271CDF81090CDE9051733
:103DB0004FF4B4780797CDE90064CDE90286022379
:103DC000012256A10A9800F003FE4FF42571CDF8A8
:103DD0001090CDE905170797CDE90064CDE902867B
:103DE000022301224EA1099800F0F2FD40F24E217B
:103DF000CDF81090CDE905170797CDE90286CDE9FA
:103E000000640223012247A1089800F0E1FD6BE75E
:103E10004FF42D7040F2A46ACDE904A0A1464248B7
:103E2000CDE90082CDE9029790ED000A28481446BA
:103E30000123B8EEC00A1A463CA1113800F00CFE6E
:103E4000CDE900840DF10C0C4FF41E7B0297204845
:103E50008CE8800C9FED360A0223012235A1203820
:103E600000F0FAFD4FF40F70CDE904A0CDE9008415
:103E7000CDE9029795ED040A15480123B8EEC00A72
:103E80001A462DA12F3800F0E7FD0F2040F2DA226C
:103E9000CDE90520B421079048000290CDE90069E2
:103EA000CDE903610A480223012224A13E3800F033
:103EB0008FFD40F2DC52CDF814B0CDF80890CDE97A
:103EC0000372CDE9008495ED010A39E00C01002070
:103ED0004B150020303031003030320030303300AC
:103EE000303034003030350030303600303037007C
:103EF000303038003030390030313000303131006E
:103F00003131300030313300303134003130310064
:103F1000313032003130330031303400313039004B
:103F20003130360031303700240100203230350086
:103F300000000000323031003230340031303800BF
:103F40000123B8EEC00A1A463DA13E4800F084FDA8
:103F500002F04CFE3B49C2B20D390520CAE63AA335
:103F600040F29E24CDF81090CDE90543CDE90062E2
:103F70000223012236A10BE036A34FF43974CDF8A9
:103F80001090CDE90543CDE900620223012233A15F
:103F9000CDE9028700F0ECFD02F028FEC1B2304806
:103FA0004BE0CDE900822FA44FF40F71CDF80880CB
:103FB000CDE90514022301222CA125E0CDE90082E0
:103FC0002BA44FF41E71CDF80880CDE9051402230F
:103FD000012229A118E029A14FF41673CDF8109001
:103FE000CDE90531CDE900620223012225A11AE0C5
:103FF000CDE9008224A44FF42D71CDF80880CDE9DD
:1040000005140223012222A1CDE9037EC2E721A1EA
:1040100040F21223CDF81090CDE90531CDE90062D0
:10402000022301221DA1CDE90287604600F0A0FD18
:1040300002F0DCFDC1B20A483C3800F05BFE5BE6F2
:1040400032303300FE140020507263730000000011
:1040500033303500467269630000000033303600AB
:10406000FF150020504D43443A0000003330370024
:104070004C43433A00000000333038005370696EFF
:1040800000000000333034005343563A0000000073
:1040900033303900464F4C570000000033313000B8
:1040A00000EB4002C2EBC01001EBC0004FF4967170
:1040B00090FBF1F201FB120000280AD105490868C3
:1040C0004860012803D0022803D1FCF7A7BF00F005
:1040D0008DB97047400100207047000070B50A4D4F
:1040E000002005F13802014602F1380302F17004A4
:1040F0002E18F1701618F1701E18F1702618401C59
:10410000F1700828F4DB70BD3C1600202DE9F04763
:10411000DFF888822DED028B98ED110AB8EEC00A07
:10412000FDF73AFA9E4DFDEEC00A95ED110A10EE2C
:10413000904AB8EEC00AFDF72FFA00EE904AF8EE6A
:10414000E00AB4EEE00AF1EE10FA09DD95ED110A8D
:10415000B8EEC00AFDF720FABDEEC00A10EE104A14
:10416000904E96ED110AB8EEC00AFDF715FA00EE72
:10417000904AF8EEE00AB4EEE00AF1EE10FA09DD3A
:1041800096ED110AB8EEC00AFDF706FABDEEC00AB8
:1041900010EE104A844F97ED110AB8EEC00AFDF7F1
:1041A000FBF900EE904AF8EEE00AB4EEE00AF1EE18
:1041B00010FA09DD97ED110AB8EEC00AFDF7ECF927
:1041C000BDEEC00A10EE104A784843F6E8390068A0
:1041D000002840D04C453EDD204603F0B6FE8A461E
:1041E00004464AEC180BD8F844004946484303F00B
:1041F000ACFE53EC182B03F021FD03F077FEC8F85A
:104200004400686C49464AEC184B484303F09DFE55
:1042100053EC182B03F012FD03F068FE6864706C19
:1042200049464AEC184B484303F08FFE53EC182BD9
:1042300003F004FD03F05AFE7064786C49464AECC2
:10424000184B484303F081FE53EC182B03F0F6FCA7
:1042500003F04CFE7864DFF8588198ED110AB8EE4F
:10426000C00AFDF799F9534DFDEEC00A95ED110A0C
:1042700010EE904AB8EEC00AFDF78EF900EE904AB3
:10428000F8EEE00AB4EEE00AF1EE10FA09DD95ED81
:10429000110AB8EEC00AFDF77FF9BDEEC00A10EEB4
:1042A000104A454E96ED110AB8EEC00AFDF774F9B2
:1042B00000EE904AF8EEE00AB4EEE00AF1EE10FAF1
:1042C00009DD96ED110AB8EEC00AFDF765F9BDEEFD
:1042D000C00A10EE104A394F97ED110AB8EEC00A25
:1042E000FDF75AF900EE904AF8EEE00AB4EEE00A63
:1042F000F1EE10FA09DD97ED110AB8EEC00AFDF7EC
:104300004BF9BDEEC00A10EE104A4C4542DD204686
:1043100003F01BFE8946044649EC180BD8F844000C
:1043200043F6E831484303F010FE53EC182B03F03A
:1043300085FC03F0DBFDC8F84400686C43F6E83107
:1043400049EC184B484303F000FE53EC182B03F0E4
:1043500075FC03F0CBFD6864706C43F6E83149EC02
:10436000184B484303F0F1FD53EC182B03F066FCA7
:1043700003F0BCFD7064786C43F6E83149EC184BEF
:10438000484303F0E2FD53EC182B03F057FC03F015
:10439000ADFD7864BDEC028BBDE8F087E805002038
:1043A0002807002068080020A80900202801002014
:1043B000280C0020680D0020A80E0020E80F002027
:1043C00020EE000A7047000010B5074C6069401CE1
:1043D0006061206900F0A4FA60690A2801DD00200C
:1043E00000E00120206010BD2001002000224FF4D9
:1043F00000710148FEF7A6B8001002400EB500207B
:10440000ADF80000ADF808009FED070A6A468DED93
:10441000010A02A901A802F0AFFB9DED010ABDF857
:10442000000000F007FE0EBD00000000FEF796B889
:1044300030B593B030216846FCF746F814210CA83B
:10444000FCF742F81D480025016841F080510160E9
:10445000006800F0805011901948016841F48041D3
:1044600001600068022400F4804011900120009057
:10447000000401908001CDE9064006200890A820A4
:10448000CDE9090404200B906846FEF7EDF908B168
:1044900072B6FEE70CA90F2081E831004FF4A0505E
:1044A0000F904FF48050109005210CA8FEF7F0F803
:1044B000002801D072B6FEE713B030BD403802408C
:1044C000007000400248016841F4700101607047CB
:1044D00088ED00E00148FEF7D6BC0000D0010020C6
:1044E000F0B50268254C264D264E274F274B4FF03E
:1044F000804CA04209D0604507D0A84205D0B04208
:1045000003D0B84201D0984204D122F0700E4A681C
:1045100042EA0E02A0421BD0604519D0A84217D033
:10452000B04215D0B84213D0984211D0184DA842CD
:104530000ED0184DA8420BD0174DA84208D0174DE9
:10454000A84205D0164DA84202D0164DA84203D16C
:1045500022F44075CA682A434D6922F080022A433A
:1045600002608A68C2620A688262A04201D09842F0
:1045700001D10969016301214161F0BD00000140E1
:104580000004004000080040000C0040000401400E
:104590000040014000440140004801400018004034
:1045A000001C00400020004010B5846842EA03224D
:1045B00024F47F440A432243826010BD826822F0C3
:1045C00070020A4342F007018160704710B5036A28
:1045D000046A24F001040462846924F0F00444EACB
:1045E000021423F00A020A438461026210BD10B56E
:1045F000036A23F0100303628369046A23F470439F
:1046000043EA023224F0A00343EA0111826101620D
:1046100010BD000006480168491C0160B1F57A7FB1
:1046200004DB002101604168491C416070470000C3
:104630004400002070B5846B2068406994F83D10F8
:10464000C0F3C0100025212904D118B1E58420460B
:1046500000F08AF82068406994F83E10C0F380109A
:10466000222904D118B1E585204600F056F8206CC7
:1046700040F0100020642046FEF720FD70BD10B50C
:104680000146806B09680968C9052FD40021C185DE
:1046900001680C3151E8002F22F4807241E80023B8
:1046A000002BF5D10168143151E8002F22F00102EE
:1046B00041E80023002BF5D10168143151E8002FA7
:1046C00022F0400241E80023002BF5D1202180F8A0
:1046D0003E10016B012909D101680C3151E8002F0E
:1046E00022F0100241E80023002BF5D1016B0129D3
:1046F00002D0FEF77EFE10BD818DFEF7A6FC10BD38
:1047000010B5806B016B012902D0FEF773FE10BD5E
:10471000818D4908FEF799FC10BD01680C3151E804
:10472000002F22F4907241E80023002BF5D101689C
:10473000143151E8002F22F0010241E80023002B40
:10474000F5D1016B012909D101680C3151E8002F25
:1047500022F0100241E80023002BF5D1202180F83F
:104760003E1000210163704701680C3151E8002FB1
:1047700022F0C00241E80023002BF5D1202180F86F
:104780003D10704770B5044600680169E26821F485
:104790004051114301612169A068E26908436169E0
:1047A000114308432168CA6849F20C639A430243E3
:1047B000CA6020684169A26921F4407111434161D6
:1047C00031492068884202D03049884202D1FEF740
:1047D00009F801E0FDF7F6FFE269002319216425DD
:1047E0003226B2F5004F626828D0A0FB0101930F7A
:1047F0009200FBF759FD0146B0FBF5F06FF018028F
:10480000504301EB800006EB0010B0FBF5F000F028
:10481000F002B1FBF5F002EB0012B1FBF5F06FF026
:104820001803584301EB800006EB0010B0FBF5F0D5
:1048300000F00F0021681044886070BDA0FB0101EA
:1048400092185B41FBF730FD0146B0FBF5F0020129
:10485000B1FBF5F06FF01803584301EB800006EB55
:10486000C000B0FBF5F000F0F80002EB4002B1FB35
:10487000F5F0584301EB800006EBC000B0FBF5F00B
:1048800000F00700D6E700000010014000140140CE
:1048900038B58162828500251346044605642220CE
:1048A00084F83E00A26B1B48D063A26B1A481064C8
:1048B000A26B1A48D064A06B0A4605652168A06BFC
:1048C000091DFDF70FFD206801684068009084F81D
:1048D0003C5020680C3050E8001F41F4807140E8E3
:1048E0000012002AF5D12068143050E8001F41F072
:1048F000010140E80012002AF5D12068143050E888
:10490000001F41F0400140E80012002AF5D10020CC
:1049100038BD00007F460008014700083546000802
:104920001CB5010E8DF80010010C8DF80110010A64
:104930008DF802100E228DF80300064900206B4608
:104940001C5C0C54401C0328FADD1946104600F08C
:10495000BFFB1CBD600100202DE9F04198461746C1
:104960000E460446069D27E0681C25D02DB1FDF7B4
:10497000EFFDA0EB0800A8421ED920680C3050E8DB
:10498000001F21F4D07140E80012002AF5D1206800
:10499000143050E8001F21F0010140E80012002A05
:1049A000F5D1202084F83D0084F83E00002084F8F2
:1049B0003C000320BDE8F0812068006836EA000072
:1049C00004D00020B842CFD00020F3E70120F9E75F
:1049D0002DE9F04F0DF1240898E8F01E91F80080C1
:1049E00000F8018B91F8018080F80080897841708F
:1049F000817862F3020121F0380120318170418811
:104A000063F389114180C17864F38501C170B0F806
:104A1000032065F38E12A0F80320818866F3CF117E
:104A20008180C18867F30901C180B0F8071069F37C
:104A30008C01A0F8071002896AF34F120281B0F8C6
:104A40000B106BF38C01A0F80B1082896CF34F12E2
:104A50008281BDE8F08F00002DE9F0430DF11C08C4
:104A6000DFED260A98E8F01291F8008000F8018B3B
:104A700091F8018080F8008089784170817820EE7B
:104A8000200A62F3020121F0380128318170418847
:104A9000BDEEC00A63F389114180C17864F38501DA
:104AA000C170B0F8031065F38E11A0F8031081886F
:104AB00066F3CF118180C18867F30901C180B0F826
:104AC000071069F38C01A0F80710028910EE101A84
:104AD0006CF34F12028142898B0A61F30902428111
:104AE000B0F80B2063F38C02A0F80B204A0D8189EB
:104AF00062F34F118181BDE8F083000000007A4429
:104B00002DE9F0430DF11C0898E8F01291F80080AF
:104B100000F8018B91F8018080F80080897841705D
:104B2000817862F3020121F038018170418863F3DA
:104B300089114180C17864F38501C170C18865F332
:104B40000901C180B0F8071066F38C01A0F80710C6
:104B5000018967F34F110181B0F80B1069F38C01E3
:104B6000A0F80B1082896CF34F128281BDE8F083AC
:104B70002DE9F04791F80080DDE90DA4DDE90A5741
:104B8000DDE908C90C9E80F8008091F8018080F86A
:104B9000018089788170C17862F3020141F03801A7
:104BA000C170B0F8031063F38911A0F80310017904
:104BB0006CF385010171828869F38E128280B0F8EE
:104BC000051065F3CF11A0F80510B0F8071067F3D2
:104BD0000901A0F80710018966F38C010181B0F882
:104BE000092000216AF34F12A0F8092005E000BF58
:104BF000431814F8012BDA73491CA942F8DBBDE80D
:104C0000F087000070B50546A52016460C460870D2
:104C1000012D06D0022D06D0052D06D0072D06D079
:104C200008E0152104E0242102E0512100E06F2179
:104C3000A4F80110E0780421401CE0702046FCF745
:104C4000E1FA207140F20131A4F80510012D06D0DF
:104C5000022D07D0052D08D0072D09D00CE040F219
:104C6000011107E04FF4817104E040F2031101E00B
:104C70004FF48271A4F80710A4F8096006F5807655
:104C8000A4F80B60012D14D0022D1BD0052D23D0CC
:104C9000072D2BD1254676212046FCF7C3FAFF23AA
:104CA000A5F8760078222146BDE870401048FEF74E
:104CB000A3BB25461C212046FCF7B4FAFF23A8839A
:104CC0001E22F0E725462B212046FCF7ABFAFF23F6
:104CD000A5F82B002D22E6E7254658212046FCF7B3
:104CE000A1FAFF23A5F858005A22DCE770BD0000A6
:104CF000A002002070B50446A52020703320A4F83F
:104D00000100E0780D46401CE07004212046FCF7CD
:104D100079FA207140F20130A4F805004FF4887050
:104D2000A4F80700A4F8095005F58075A4F80B5005
:104D30003A212046FCF776FA60872146BDE87040AC
:104D4000FF233C220148FEF757BB0000A0020020D1
:104D50002DE9FC41544800680168C943C9067DD467
:104D600001680025406800904F48FEF76FF94F48F2
:104D7000006840684E4CC0F164004E49C3B2A37055
:104D8000002201F132064FF0010C7AE0B75C3B2FB4
:104D900005D094F800E0BEF1010F68D06CE001206E
:104DA0006A460E5C1318401C03F8016C0828F8DDF5
:104DB0000878072813D004DC022807D004284FD134
:104DC00007E00C2824D00F284AD133E03A4A3B4967
:104DD00001E03B4A3B496846FCF790FB40E0BDF8E8
:104DE00000009FED391A40BA00EE100AF8EE400AB2
:104DF00080EE810AFDEEC00AC4ED030ABDF8020090
:104E000040BA00EE900AF8EE600A01F0F5FF27E0E4
:104E10002E499DF8000008609DF801002D4900EE24
:104E2000100A2B48B8EE400A80ED000A9DF80200F7
:104E3000086015E01E489DF800100830017079B137
:104E40009DF80110417059B19DF80210817039B17F
:104E50009DF80310C17019B11F4800E022E0056001
:104E600028211448FBF70EFB257065600CE0984282
:104E700002DA0F54401C60602A2F01D184F800C070
:104E8000521C6068984281DB0A4814213230FBF7DB
:104E9000F9FA02B00749BDE8F04164223231024814
:104EA000FEF792BABDE8FC8118020020E40200205F
:104EB00058010020441F0020680D002074160020B7
:104EC000E80F0020E41600200000C842380100204E
:104ED0003C010020240100203401002038B52A487C
:104EE00000680168890603D501684068009038BDF4
:104EF00026490968C906FAD501684068244A009025
:104F0000106801684FF024030C032249046824F060
:104F10000104046016D414686068C0F1240080B2F3
:104F20000880636011680B6843F400230B6011680C
:104F30000A6842F001020A601228D8D115491648C1
:104F4000891C16E010684468C4F12404A4B20C80E3
:104F500043601248816A21F400218162106801686F
:104F600041F001010160122CC1D10A490A48891C93
:104F7000243002F0BBFBFEF7A7FC0128B7D1BDE847
:104F800038402420FEF702BD5C02002000480040AB
:104F9000A40300204C0000205C11002000600240AF
:104FA0001F4818B40068C00637D51E4801680A6853
:104FB00049680091816B09680A681B4B12030A68F3
:104FC0004FF4007422F001020A60816B09684A689C
:104FD000C2F5007292B21A804C60816B09680B684E
:104FE0000CD443F400230B60806B0068016841F02F
:104FF000010101600D4901F580600BE023F40023FD
:105000000B60806B0068016841F001010160084994
:1050100001F5007018BC01F04ABD18BC70470000D3
:1050200000140140A0020020540100202C17002091
:105030002C19002030B424492A23F2EE040A0B7004
:105040000D2320EE200A4B70642490FBF4F3BDEE98
:10505000C00ADBB28B7010EE102A6FF0180513FB3C
:1050600005F300EB83030A2093FBF0F5CD7093FB6F
:10507000F0F500FB15330B714FF47A7392FBF3F3E9
:10508000DBB24B716FF07C0513FB05F302EBC3023F
:1050900092FBF4F3DBB28B716FF0180413FB04F393
:1050A00002EB830292FBF0F3CB7192FBF0F300FB77
:1050B00013200872002048723B208872FF2330BC06
:1050C0000B220248FEF798B98A1F00201802002020
:1050D0000EB52A228DF800203B228DF80A208DF88B
:1050E000010002206A460B5C1354401C0928FADDBB
:1050F000FF230B2269460248FEF77EF90EBD000031
:1051000018020020FEE700000021C160016101607B
:105110004160816041618161C16101629FED030A6B
:10512000416280ED0A0A80ED0B0A70470000000022
:10513000214890ED020AD0ED000A70EE600A10EEF0
:10514000901A11F16A5F02D94169491C416110EE60
:10515000901AB1F18B4F02DD4169491E4161D0EDDA
:10516000050A9FED161A1648F8EEE00A4FF08D4139
:1051700000EE810ADFED130A80ED4F0A02E000BF66
:1051800030EE600A10EE100A8842F9DC02E000BF3F
:1051900030EE200AB5EEC00AF1EE10FAF8D30C4852
:1051A000DFED090A20EE200ADFED080A20EE200AD2
:1051B00080ED090A70470000AC1400200000004692
:1051C00064130020000080460000B44300008038D3
:1051D000E80A002010B50C490C48FEF705FB0B4906
:1051E000143901F15C00FEF7FFFA07490748283936
:1051F000D830FEF7F9FA044904481439BDE81040E4
:105200009030FEF7F1BA0000F8000020641300208F
:1052100003B401984100009850EAC12018BF04204F
:105220004A0D18BF40F0010040F2FF72B2EB515F2F
:1052300008BF40F00200012808BF052002B07047F7
:105240000907090E002804DB00F1E02080F80014B3
:10525000704700F00F0000F1E02080F8141D704747
:1052600070B59B482DED020B2DED068B079D25F0AB
:105270000044A04218DC9748844202DC0AD1069818
:1052800040B19DED060BBDEC068B02B0BDE8704051
:1052900000F03ABF002DCCBF9FED8F0B9FED900B20
:1052A000BDEC068B02B070BD8F48A04215DD8F4863
:1052B000A042D8BF4FF0FF3458DD9DED060B51ECF6
:1052C000100BFFF7A5FF042808BF00F041FF9DED7C
:1052D000060BBDEC068B02B070BD9DED060B51ECCC
:1052E000100B01F0B7FBCDE9060181489FED828BE1
:1052F000A0423CDD8248A0421FDD00249FED82AB2E
:105300009DED060B53EC1A2B51EC100B02F0EEFB4B
:105310009DED060B41EC190B53EC1A2B51EC100BC5
:1053200002F03EFE53EC182B03F010F853EC192B4F
:1053300002F084FCCDE9060149E09DED060B012455
:1053400053EC182B51EC100B02F0D0FB9DED060B2B
:1053500041EC190B53EC182B51EC100B02F0F6FF3B
:1053600053EC192B02F06AFCCDE906012FE06848E6
:10537000A0421FDD02249FED689B9DED060B53ECC0
:10538000192B51EC100B02F00BFE53EC182B02F012
:10539000ADFB9DED060B41EC180B53EC192B51ECBA
:1053A000100B02F0D3FF53EC182B02F047FCCDE9B1
:1053B00006010CE09DED060B032453EC102B9FED32
:1053C000580B51EC100B02F039FCCDE906019DEDB4
:1053D000060B53EC102B51EC100B02F0E1FD41ECED
:1053E000180B53EC182B02F0DBFD41EC190B4E4867
:1053F0000621B0EE490AF0EE690A784400F070FD2B
:1054000053EC182B51EC100B02F0CAFD41EC180BB9
:105410004648B0EE490AF0EE690A0521784400F0EA
:105420005FFD53EC192B51EC100B02F0B9FD41EC70
:10543000100B51EC180B53EC102B002C0EDA02F071
:1054400055FB9DED061B53EC112B02F0A9FD9DEDC4
:10545000061B53EC112B02F0A1FE35E002F046FBD7
:105460009DED061B53EC112B02F09AFD41EC100B45
:105470002F48784400EBC40090ED001B51EC100B5A
:1054800053EC112B02F062FF9DED061B53EC112B28
:1054900002F05CFF41EC100B2648784400EBC4009E
:1054A00090ED001B51EC100B53EC112B02F076FE2B
:1054B00041EC100B002DA2BFBDEC068B02B070BDFD
:1054C00051EC100B02F0D4FA41EC100B01E7000094
:1054D000000010440000F07F182D4454FB21F93FD8
:1054E000182D4454FB21F9BF0000DC3F0000203E92
:1054F0000000F33F00000000000000000000F03F4B
:105500000000E63F00000000000000000000004036
:105510000080034000000000000000000000F83F91
:10552000000000000000F0BFA23800005838000062
:10553000E23700009A37000070B56B4E2DED040B7A
:105540002DED028B82B0DDF81CC0DDE905235C4245
:105550002CF000411C4341EAD474049D22F0004029
:10556000B44205D86C422C4340EAD474B4420BD9FF
:105570009DED061B9DED040B02B0BDEC028B04B04B
:10558000BDE8704000F0CABDACF14054A4F17F64A6
:105590001C430BD0022404EAAC7444EAD2740543E1
:1055A0009FED538B9FED542B07D015E09DED040B21
:1055B00051EC100B01F018F842E0002C11BF012C47
:1055C0009DED040B02B0BDEC028B04BF04B070BDB6
:1055D000022C38D0032C3BD00B439FED491B9FED91
:1055E0004A0B0AD0B14218D1B04209D121F0804112
:1055F00020F08040079105900FE0002A15DA10E0B6
:10560000434B7B44002C08BF93ED000B0DD0012CC5
:1056100010D0022C17D0032C1AD0B0421DD1002A72
:1056200003DAB0EE410AF0EE610A02B0BDEC028B83
:1056300004B070BD93ED000B51EC100B02F018FAA2
:1056400041EC100BF1E7B0EE480AF0EE680AECE727
:10565000B0EE420AF0EE620AE7E7401A00153C2875
:10566000C8BF8DED000B19DCBCF1000FBEBF10F1FF
:105670003C0F9FED290B8DED000B0FDB9DED060B15
:1056800053EC102B9DED040B51EC100B02F0D6FAED
:1056900001F0E0F900F0A8FFCDE90001002C08BFFF
:1056A0009DED000BC1D0012C10D0022C9FED1C0BE6
:1056B00053EC102B9DED000B51EC100B0DD002F0B4
:1056C00045FE53EC182B02F041FEB9E7019880F03B
:1056D000004001909DED000BA7E702F037FE53EC70
:1056E000182B02F05BFDABE70000F07F000000002C
:1056F000182D4454FB210940182D4454FB2109C0A6
:10570000182D4454FB21F9BF182D4454FB21F93FB7
:10571000FA36000000000000000000000000000059
:10572000075C143326A6A13C10B52F499FED2C1B16
:105730002DED020B84B0059820F000408842D8BFC0
:105740009DED040B2DDD2949884209D1049840B90B
:105750004FF00100FAF7E7FE00F0EAFC06B010BDDA
:1057600005DB9DED040B00F0CFFC06B010BD6846D4
:105770009DED040B00F0E0F810F0030004BF9DED78
:10578000021B9DED000B0CD001280ED09DED021BDD
:105790009DED000B022817D0012000F01DFC06B083
:1057A00010BD00F0E5FA06B010BD9DED021B9DEDA9
:1057B000000B012000F010FC51EC100B02F058F926
:1057C00006B041EC100B10BD00F0D2FA51EC100BFA
:1057D00002F04EF906B041EC100B10BD00000000C5
:1057E0000000000000000000FB21E93F0000F07F06
:1057F00010B52F499FED2C1B2DED020B84B00598A1
:1058000020F000408842DCBF00209DED040B32DD1B
:105810002849884209D1049840B94FF00100FAF7AD
:1058200082FE00F085FC06B010BD05DB9DED040B8B
:1058300000F06AFC06B010BD68469DED040B00F058
:105840007BF810F0030011D0012818D09DED021B49
:105850009DED000B02281AD000F08AFA51EC100BD3
:1058600002F006F906B041EC100B10BD9DED021BD5
:105870009DED000B012000F0AFFB06B010BD9DEDCB
:10588000021B9DED000B00F073FA06B010BD012065
:1058900000F0A2FB51EC100B02F0EAF806B041EC6C
:1058A000100B10BD00000000000000000000000010
:1058B000FB21E93F0000F07F00B52DED048BB0EE39
:1058C000409AF0EE609A83B051EC190B02F072FC32
:1058D00041EC180B18EE100A18EE901A8DED008BA3
:1058E000002818BF0120084320F00040C0F17F606D
:1058F00000F1E040C00F14D019EE101A19EE900A12
:105900008DED009B002918BF0121084320F00040C5
:10591000C0F17F6000F1E040C00F04BF0120FAF742
:1059200002FEB0EE480A03B0F0EE680ABDEC048B4C
:1059300000BD0000000000002DE9F14F04462DEDF0
:10594000020B2DED088B8AB09FEDE70B80ED020B6B
:10595000139EE74826F0004585420ADC9DED120BB8
:10596000002084ED000B0AB0BDEC088B03B0BDE84D
:10597000F08FE0489FEDE0AB9FEDE1BBA84247DD33
:10598000E14F9FEDE39B9FEDE48B9DED120B53ECFC
:105990001A2B51EC100B002E1CDD02F0D7FC41EC51
:1059A000100BBD4208D053EC1B2B51EC100B02F036
:1059B000CDFCC4E900010BE053EC192B51EC100BAA
:1059C00002F0C4FC53EC182B02F0C0FCC4E9000147
:1059D0000120C8E702F08AF841EC100BBD4208D064
:1059E00053EC1B2B51EC100B02F080F8C4E90001C2
:1059F0000BE053EC192B51EC100B02F077F853EC41
:105A0000182B02F073F8C4E900014FF0FF30AAE749
:105A1000C348A84279DB9DED120B51EC100B01F04D
:105A200019F841EC180B9FEDC00B53EC102B02F052
:105A3000B7FA9FEDBF1B53EC112B02F057F802F0A1
:105A400055FA074602F081FA41EC190B53EC1A2B78
:105A500002F0A6FA53EC182B02F0A0FB41EC180B55
:105A600053EC1B2B51EC190B02F09AFADFF8C8A289
:105A700041EC100B4FEA15580125FA4453EC102B5A
:105A800051EC180B02F062FC032DC4E900013DD07B
:105A9000C1F30A5005EB4511A8EB00001139814212
:105AA00034DA0AEB051BB0EE48AA9BED000BF0EED2
:105AB00068AA53EC102B51EC190B02F071FA41EC6F
:105AC0001B0B51EC1A0B53EC1B2B02F03FFC41EC6F
:105AD000180B51EC1A0B53EC182B02F037FC53EC5B
