:020000040800F2
:10000000C0250020690200087D4600080143000861
:10001000454600085D160008B961000800000000B0
:10002000000000000000000000000000814A0008FD
:10003000091900080000000039470008874E000831
:10004000830200088302000883020008830200087C
:10005000830200088302000883020008830200086C
:10006000830200088302000883020008830200085C
:100070005117000883020008830200088302000869
:10008000830200088302000883020008830200083C
:10009000611600088302000883020008830200083A
:1000A000830200088302000883020008830200081C
:1000B00083020008594F00088302000883020008E9
:1000C00083020008830200088302000883020008FC
:1000D00083020008A55C000883020008695E00082E
:1000E00083020008830200088302000883020008DC
:1000F00083020008830200088302000883020008CC
:1001000083020008830200088302000883020008BB
:1001100083020008830200088302000883020008AB
:1001200083020008611700088302000883020008A8
:10013000830200088302000883020008830200088B
:100140007116000883020008830200088302000879
:10015000711700088117000891170008AD5F0008AB
:10016000830200088302000883020008830200085B
:1001700083020008830200088302000800000000D8
:10018000830200088302000800F002F800F05CF827
:100190000AA090E8000C82448344AAF10107DA45E2
:1001A00001D100F051F8AFF2090EBAE80F0013F0D8
:1001B000010F18BFFB1A43F001031847BC9E000053
:1001C000DC9E00000A444FF0000C10F8013B13F0D5
:1001D000070408BF10F8014B1D1108BF10F8015BA0
:1001E000641E05D010F8016B641E01F8016BF9D193
:1001F00013F0080F1EBF10F8014BAD1C0C1B09D1EA
:100200006D1E58BF01F801CBFAD505E014F8016B5B
:1002100001F8016B6D1EF9D59142D6D370470000ED
:100220000023002400250026103A28BF78C1FBD8FF
:10023000520728BF30C148BF0B6070471FB509F097
:100240009EFC1FBD10B510BD00F07DF91146FFF7F3
:10025000F5FF08F04FF800F09BF903B4FFF7F2FF49
:1002600003BC00F09FF90000094880470948004797
:10027000FEE7FEE7FEE7FEE7FEE7FEE7FEE7FEE756
:10028000FEE7FEE704480549054A064B70470000B3
:10029000454F000889010008C01F0020C02500202C
:1002A000C0210020C021002053EA020C00F0698028
:1002B0002DE9F04B4FF00006002B1FBFB3FA83F57A
:1002C00003FA05F424FA05F65E4012BF1643B2FAAB
:1002D00082F502FA05F4C5F120051EBF22FA05FCDD
:1002E00044EA0C04203556EA044C4FEA144418BF83
:1002F000641C4FF000084FF00009904271EB030CB2
:1003000039D3002919BFB1FA81F701FA07F6B0FA1B
:1003100080F700FA07F6C7F120071EBF20FA07FC96
:1003200046EA0C062037B6FBF4FCA7EB0507103FA6
:1003300007F01F0BCBF120060CFA0BFB2CFA06F68C
:1003400044BFB3460026202FA4BF5E464FF0000BEB
:100350005BEA060C08BF4FF0010B19EB0B09ABFB76
:10036000027C48EB0608C01B06FB02CC0BFB03CC4F
:1003700071EB0C01C1E70B46024641464846BDE819
:10038000F08B13B54FF000004FF00001AFF3008089
:10039000BDE81C407047032A40F2308010F0030C87
:1003A00000F0158011F8013BBCF1020F624498BFC8
:1003B00011F801CB00F8013B38BF11F8013BA2F165
:1003C000040298BF00F801CB38BF00F8013B11F0E0
:1003D000030300F02580083AC0F0088051F8043B80
:1003E000083A51F804CBA0E80810F5E7121D5CBFED
:1003F00051F8043B40F8043BAFF30080D20724BF20
:1004000011F8013B11F801CB48BF11F8012B24BFB3
:1004100000F8013B00F801CB48BF00F8012B704702
:1004200010B5203AC0F00B80B1E81850203AA0E88F
:100430001850B1E81850A0E81850BFF4F5AF5FEAC3
:10044000027C24BFB1E81850A0E8185044BF18C976
:1004500018C0BDE810405FEA827C24BF51F8043B1D
:1004600040F8043B08BF7047D20728BF31F8023B71
:1004700048BF11F8012B28BF20F8023B48BF00F805
:10048000012B70474FF000020429C0F0128010F0D9
:10049000030C00F01B80CCF1040CBCF1020F18BF60
:1004A00000F8012BA8BF20F8022BA1EB0C0100F0F3
:1004B0000DB85FEAC17C24BF00F8012B00F8012BC6
:1004C00048BF00F8012B70474FF0000200B51346FB
:1004D00094469646203922BFA0E80C50A0E80C5064
:1004E000B1F12001BFF4F7AF090728BFA0E80C5015
:1004F00048BF0CC05DF804EB890028BF40F8042B0E
:1005000008BF704748BF20F8022B11F0804F18BF7A
:1005100000F8012B704770477047704710B500F026
:100520000DF8006810BD10B5044600F007F804602F
:1005300010BD0000004870475C1F00200048704755
:100540005C1F002070477546FFF7F4FFAE460500BC
:100550006946534620F00700854618B020B5FFF7DE
:1005600091FEBDE820404FF000064FF000074FF02D
:1005700000084FF0000B21F00701AC46ACE8C009C1
:10058000ACE8C009ACE8C009ACE8C0098D467047CA
:1005900010B50446AFF300802046BDE81040FFF7D9
:1005A0005CBE000001491820ABBEFEE72600020039
:1005B00000B52DED108B83B0B0EE408AF0EE608A6E
:1005C00018EE100A09F06AFA41EC1F0B18EE900AB7
:1005D00009F064FAB0EE4F1AF0EE6F1ACDE900019F
:1005E0009DED000B06F030F8B0EE40EAF0EE60EA68
:1005F00051EC1E0B08F07CFC41EC1D0B9FED150B24
:1006000053EC102B08F066FD41EC1C0B9FED130B17
:1006100053EC102B08F05EFD41EC1B0B9FED110B12
:1006200053EC102B08F044FF41EC1A0B9FED0F0B1D
:1006300053EC102B08F03CFF41EC190B08F064FC64
:100640000C490860084690ED000A03B0BDEC108B21
:1006500000BD00006F1283C0CA21094000000000E5
:10066000000000400000000000FFBF40000000004C
:10067000000024402400002010B50446FE48D0EDC0
:100680000F0A90ED010AB8EEC00A30EE800A80ED44
:10069000060AFA48D0ED0F0A90ED010AB8EEC00A3A
:1006A00030EE800A80ED060AF548D0ED0F0A90ED95
:1006B000010AB8EEC00A30EE800A80ED060AF14861
:1006C000D0ED0F0A90ED010AB8EEC00A30EE800AB4
:1006D00080ED060A08E0E84890ED060ADFEDEA0A38
:1006E00030EE600A80ED060AE348D0ED060A90ED90
:1006F0000D0AB8EEC00A30EEC00ADFEDE40AB4EE2F
:10070000E00AF1EE10FAE6DA08E0DB4890ED060ABE
:10071000DFEDDD0A30EE200A80ED060AD648D0ED86
:10072000060A90ED0D0AB8EEC00A30EEC00ADFED01
:10073000D80AB4EEE00AF1EE10FAE6D908E0CF48A4
:1007400090ED060ADFEDD00A30EE600A80ED060A71
:10075000CA48D0ED060A90ED0D0AB8EEC00A30EE98
:10076000C00ADFEDCA0AB4EEE00AF1EE10FAE6DAEA
:1007700008E0C24890ED060ADFEDC30A30EE200A19
:1007800080ED060ABD48D0ED060A90ED0D0AB8EEE0
:10079000C00A30EEC00ADFEDBE0AB4EEE00AF1EEA8
:1007A00010FAE6D908E0B64890ED060ADFEDB60A81
:1007B00030EE600A80ED060AB148D0ED060A90EDF1
:1007C0000D0AB8EEC00A30EEC00ADFEDB00AB4EE92
:1007D000E00AF1EE10FAE6DA08E0A94890ED060A20
:1007E000DFEDA90A30EE200A80ED060AA448D0ED1C
:1007F000060A90ED0D0AB8EEC00A30EEC00ADFED31
:10080000A40AB4EEE00AF1EE10FAE6D908E09D4839
:1008100090ED060ADFED9C0A30EE600A80ED060AD4
:100820009848D0ED060A90ED0D0AB8EEC00A30EEF9
:10083000C00ADFED960AB4EEE00AF1EE10FAE6DA4D
:1008400008E0904890ED060ADFED8F0A30EE200AAE
:1008500080ED060A8B48D0ED060A90ED0D0AB8EE41
:10086000C00A30EEC00ADFED8A0AB4EEE00AF1EE0B
:1008700010FAE6D9002C7AD07F48406800F58C3019
:1008800000EE100AB8EEC00A7B4880ED060A7B48ED
:10089000406800F5484000EE100AB8EEC00A7748FC
:1008A00080ED060A7648406800F5F04000EE100A38
:1008B000B8EEC00A724880ED060A7248406800F53A
:1008C000205000EE100AB8EEC00A6E4880ED060A0D
:1008D00008E0694890ED060ADFED6B0A30EE600A29
:1008E00080ED060A6448D0ED060A90ED0D0AB8EED8
:1008F000C00A30EEC00ADFED650AB4EEE00AF1EEA0
:1009000010FAE6DA08E05C4890ED060ADFED5E0AD0
:1009100030EE200A80ED060A5748D0ED060A90ED29
:100920000D0AB8EEC00A30EEC00ADFED590AB4EE87
:10093000E00AF1EE10FAE6D908E0504890ED060A18
:10094000DFED510A30EE600A80ED060A4B48D0ED2B
:10095000060A90ED0D0AB8EEC00A30EEC00ADFEDCF
:100960004B0AB4EEE00AF1EE10FAE6DA09E080E0B4
:10097000424890ED060ADFED440A30EE200A80ED91
:10098000060A3E48D0ED060A90ED0D0AB8EEC00A00
:1009900030EEC00ADFED3E0AB4EEE00AF1EE10FAE6
:1009A000E6D908E0364890ED060ADFED370A30EE6A
:1009B000600A80ED060A3248D0ED060A90ED0D0A75
:1009C000B8EEC00A30EEC00ADFED300AB4EEE00A3D
:1009D000F1EE10FAE6DA08E0294890ED060ADFEDBC
:1009E0002A0A30EE200A80ED060A2548D0ED060AD4
:1009F00090ED0D0AB8EEC00A30EEC00ADFED240A11
:100A0000B4EEE00AF1EE10FAE6D908E01D4890EDE8
:100A1000060ADFED1D0A30EE600A80ED060A19486D
:100A2000D0ED060A90ED0D0AB8EEC00A30EEC00A0D
:100A3000DFED160AB4EEE00AF1EE10FAE6DA08E0AD
:100A4000104890ED060ADFED100A30EE200A80ED26
:100A5000060A0C48D0ED060A90ED0D0AB8EEC00A61
:100A600030EEC00ADFED0A0AB4EEE00AF1EE10FA49
:100A7000E6D901480EE00000A00C0020E00D0020A7
:100A8000200F0020601000200000A0470000204739
:100A9000000020C700F03AFF444800F037FF444808
:100AA00000F034FF434800F031FF434890ED060A60
:100AB00080ED050A3D4890ED060A80ED050A3C48A8
:100AC00090ED060A80ED050A3A4890ED060A80EDA1
:100AD000050A3A4890ED010AF3EE030A60EE200A97
:100AE000354890ED170AB8EEC00A20EE800ABDEE38
:100AF000C00AB8EEC00AF7EE000A20EE200ABDEEEA
:100B0000C00A2F4880ED110A2C4890ED070AF3EE39
:100B1000030A60EE200A254890ED170AB8EEC00AD5
:100B200020EE800ABDEEC00AB8EEC00AF7EE000A59
:100B300020EE200ABDEEC00A224880ED110A1F48AF
:100B400090ED0D0AF3EE030A60EE200A184890EDCE
:100B5000170AB8EEC00A20EE800ABDEEC00AB8EE51
:100B6000C00AF7EE000A20EE200ABDEEC00A1648C1
:100B700080ED110A114890ED130AF3EE030A60EEBE
:100B8000200A0C4890ED170AB8EEC00A20EE800A41
:100B9000BDEEC00AB8EEC00AF7EE000A20EE200A49
:100BA000BDEEC00A094880ED110A10BDE00D00201D
:100BB000200F002060100020A00C00204005002025
:100BC00060060020A0070020E0080020200A002086
:100BD00010B52DED108B8CB0B0EE40BAF0EE60AADF
:100BE000B0EE41DAF0EE61DAB0EE42EA2BEE0B0A3B
:100BF0000AEEAA0A10EE101A084608F04FFF41EC60
:100C00001C0BB0EE4C0AF0EE6C0A05F0E9FEB0EEFB
:100C100040FAF0EE60FA51EC1F0B08F075F908EE9F
:100C2000900A9FEDFE0A2DEE000AB0EE409ADFED2D
:100C3000FC0A8DEEA00ADFEDFB0A20EE200A10EE82
:100C4000104ADFEDF90A8EEE200ADFEDF60A20EEFB
:100C5000200AB0EE40EA1BEE100A08F01FFF41EC3C
:100C60001C0B1AEE900A08F019FFB0EE4C1AF0EEC9
:100C70006C1ACDE906019DED060B05F0E5FC8DED46
:100C80000A0B204608F00AFFCDE908019DED0A0B8A
:100C900053EC102B9DED080B51EC100B08F066F98E
:100CA00041EC1F0B08F030F908EE100A11E018EEC5
:100CB000100A08F0F3FE41EC1C0B9FEDDC0B53EC2B
:100CC000102B08F001FE41EC1F0B08F01DF908EE97
:100CD000100A18EE100A08F0E1FE41EC1C0B9FED23
:100CE000D50B53EC102B08F0E1FCE0D311E018EE2B
:100CF000100A08F0D3FE41EC1F0B9FEDCC0B53EC18
:100D0000102B08F033F941EC1C0B08F0FDF808EE4D
:100D1000100A18EE100A08F0C1FE41EC1C0B9FED02
:100D2000C70B53EC102B08F087FBE0D318EE100A2A
:100D300008F0B4FE41EC1F0BB0EE4F0AF0EE6F0A64
:100D400005F0EAFDB0EE40CAF0EE60CA51EC1C0BB3
:100D500008F0DAF80EEE900A18EE100A08F09EFE7F
:100D600041EC1F0BB0EE4F0AF0EE6F0A05F064FD88
:100D7000B0EE40CAF0EE60CA51EC1C0B08F0C4F8AB
:100D80000BEE900AF5EEC0AAF1EE10FA08DDB5EE12
:100D9000C0BAF1EE10FA03D1B7EE000AF0EE40EA65
:100DA000F5EEC0AAF1EE10FA08D2B5EEC0BAF1EE37
:100DB00010FA03D1BFEE000AF0EE40EAB5EEC08AA9
:100DC000F1EE10FA08DDB0EE6E0A00F0B6FEB0EEFD
:100DD00049AA08EE80AA09E0B0EE6E0A00F0ADFE66
:100DE000B1EE400AB0EE49AA08EE80AA18EE100A49
:100DF00008F054FE41EC1C0B9FED920B53EC102BB2
:100E000008F01AFB15D218EE100A08F047FE41EC64
:100E10001C0B9FED8E0B53EC102B08F047FC08D2F7
:100E2000B0EE6B0A00F089FEF0EE499A48EE809A27
:100E300009E0B0EE6B0A00F080FEB1EE400AF0EE81
:100E4000499A48EE809A19EE900A08F027FECDE9FB
:100E500002011AEE100A08F021FECDE900019DED15
:100E6000021B9DED000B05F0EFFB8DED040B9DEDDE
:100E7000040B51EC100B08F03BF841EC1C0B9FED00
:100E8000750B53EC102B08F025F99FED740B53EC08
:100E9000102BCDE906019DED060B51EC100B08F06F
:100EA00019F99FED700B53EC102BCDE908019DED66
:100EB000080B51EC100B08F0FBFA41EC1F0B9FEDF7
:100EC0006B0B53EC102B08F0F3FACDE90A019DED02
:100ED0000A0B51EC100B08F017F86649C863B0EE26
:100EE000690A03F0C9FFF0EE401AB0EE4A0A03F0B7
:100EF000C3FF31EE800A604880ED000A90ED000AE1
:100F000010EE101A084608F0C9FD41EC1F0BB0EEB8
:100F10004F0AF0EE6F0A05F063FDB0EE40CAF0EE46
:100F200060CA51EC1C0B07F0EFFF53490860B5EEA7
:100F3000C08AF1EE10FA0ADDB0EE6E0A00F0FDFD97
:100F4000F0EE490A48EE800AB0EE60AA0BE0B0EE7F
:100F50006E0A00F0F2FDF1EE400AB0EE490A08EE2A
:100F6000A00AB0EE40AA18EE100A08F097FD41EC76
:100F70001C0B9FED340B53EC102B08F05DFA17D2CD
:100F800018EE100A08F08AFD41EC1C0B9FED2F0BA8
:100F900053EC102B08F08AFB0AD2B0EE6B0A00F07B
:100FA000CCFDF0EE490A58EE800AF0EE609A0BE0B4
:100FB000B0EE6B0A00F0C1FDF1EE400AB0EE490A56
:100FC00018EEA00AF0EE409A19EE900A08F066FDBD
:100FD000CDE902011AEE100A08F060FDCDE900012A
:100FE0009DED021B9DED000B05F02EFBB0EE40CAFF
:100FF000F0EE60CA51EC1C0B07F07AFF9FED150B69
:1010000053EC102BCDE904019DED040B51EC100BBA
:1010100008F060F841EC1F0B30E00000713D1E420B
:101020000000B443C3F5C8400000A0471F85EB5142
:10103000B81E19401F85EB51B81E09401F85EB51A2
:10104000B81E09C06F1283C0CA21F93F6F1283C056
:10105000CA21F9BF6F1283C0CA21094000000000F5
:10106000000000400000000000FFBF400000000042
:1010700000002440A00C0020400500201FED090BBB
:1010800053EC102B08F026F81FED0A0B53EC102B35
:10109000CDE906019DED060B51EC100B08F008FAA6
:1010A0001FED0E0B53EC102BCDE908019DED080B45
:1010B00051EC100B08F0FCF9CDE90A019DED0A0B8B
:1010C00051EC100B07F020FFF049C863B0EE690A3D
:1010D00003F0D2FEF0EE401AB0EE4A0A03F0CCFE66
:1010E00031EE800AEA4880ED060A90ED060A10EE1D
:1010F000101A084608F0D2FC41EC1F0BB0EE4F0A64
:10110000F0EE6F0A05F06CFCB0EE40CAF0EE60CA7B
:1011100051EC1C0B07F0F8FEDD498861B5EEC08A82
:10112000F1EE10FA0ADDB0EE6E0A00F006FDF0EE08
:10113000490A58EE800AB0EE60AA0BE0B0EE6E0AE3
:1011400000F0FBFCF1EE400AB0EE490A18EEA00AEE
:10115000B0EE40AA18EE100A08F0A0FC41EC1C0BFF
:101160001FED480B53EC102B08F066F917D218EE60
:10117000100A08F093FC41EC1C0B1FED4C0B53ECD8
:10118000102B08F093FA0AD2B0EE6B0A00F0D5FCEF
:10119000F0EE490A58EE800AF0EE609A0BE0B0EEED
:1011A0006B0A00F0CAFCF1EE400AB0EE490A18EEF4
:1011B000A00AF0EE409A19EE900A08F06FFCCDE913
:1011C00000011AEE100A08F069FC41EC1C0B9DEDC1
:1011D000001BB0EE4C0AF0EE6C0A05F035FAB0EEEA
:1011E00040FAF0EE60FA51EC1F0B07F081FE1FEDA4
:1011F000670B53EC102BCDE902019DED020B51EC76
:10120000100B07F067FF1FED6B0B53EC102BCDE9B4
:1012100004019DED040B51EC100B07F05BFF1FED7B
:101220006F0B53EC102BCDE906019DED060B51EC35
:10123000100B08F03DF91FED730B53EC102BCDE9AB
:1012400008019DED080B51EC100B08F031F9CDE9C8
:101250000A019DED0A0B51EC100B07F055FE8D496C
:10126000C863B0EE690A03F007FEF0EE401AB0EE74
:101270004A0A03F001FE31EE800A854880ED0C0A2F
:1012800090ED0C0A10EE101A084608F007FC41EC2D
:101290001F0BB0EE4F0AF0EE6F0A05F0A1FBB0EEA7
:1012A00040CAF0EE60CA51EC1C0B07F02DFE7849E5
:1012B0000863B5EEC08AF1EE10FA0ADDB0EE6E0AF0
:1012C00000F03BFCF0EE490A58EE800AB0EE60AA4E
:1012D0000BE0B0EE6E0A00F030FCF1EE400AB0EE2A
:1012E000490A18EEA00AB0EE40AA18EE100A08F05B
:1012F000D5FB41EC1C0B1FEDAD0B53EC102B08F094
:101300009BF817D218EE100A08F0C8FB41EC1C0B32
:101310001FEDB20B53EC102B08F0C8F90AD2B0EE57
:101320006B0A00F00AFCF0EE490A48EE800AF0EE83
:10133000609A0BE0B0EE6B0A00F0FFFBF1EE400AA2
:10134000B0EE490A08EEA00AF0EE409A19EE900AB3
:1013500008F0A4FB41EC1C0B1AEE100A08F09EFBEF
:10136000B0EE4C1AF0EE6C1ACDE900019DED000BC9
:1013700005F06AF98DED020B9DED020B51EC100B9F
:1013800007F0B6FD1FEDCD0B53EC102BCDE904019A
:101390009DED040B51EC100B07F09CFE1FEDD10BE3
:1013A00053EC102BCDE906019DED060B51EC100B13
:1013B00007F090FE41EC1F0B1FEDD60B53EC102BEA
:1013C00008F076F81FEDD70B53EC102BCDE9080190
:1013D0009DED080B51EC100B08F06AF8CDE90A01FD
:1013E0009DED0A0B51EC100B07F08EFD2A49C863E6
:1013F000B0EE690A03F040FDF0EE401AB0EE4A0A82
:1014000003F03AFD31EE800A214880ED120A90ED9A
:10141000120A10EE101A084608F040FB41EC1F0BB0
:10142000B0EE4F0AF0EE6F0A05F0DAFAB0EE40CAFD
:10143000F0EE60CA51EC1C0B07F066FD144988649D
:10144000084690ED000ADFED150A20EE200A80ED37
:10145000010A90ED060ADFED110A20EE200A80ED68
:10146000070A90ED0C0ADFED0D0A20EE200A80ED50
:101470000D0A90ED120ADFED090A20EE200A80ED38
:10148000130A0CB0BDEC108B10BD0000E00D002065
:1014900040050020200F0020601000204276F43F1D
:1014A0009FED0F0A80ED030A9FED0D0A80ED040AFF
:1014B0009FED0B0A80ED000A9FED090A80ED010AFD
:1014C0009FED070A80ED020A9FED050A80ED050AEF
:1014D0000021018341839FED020A80ED070A7047D6
:1014E000000000002B49D1ED060A91ED0D0AB8EE7F
:1014F000C00A30EEC00ABDEEC00A10EE100A002885
:1015000001DB014600E04142234A914240DA23498F
:10151000D1ED060A91ED0D0AB8EEC00A30EEC00A10
:10152000BDEEC00A10EE100A002801DB014600E003
:101530004142194A91422BDA1949D1ED060A91ED3F
:101540000D0AB8EEC00A30EEC00ABDEEC00A10EEB9
:10155000100A002801DB014600E041420E4A914298
:1015600016DA1049D1ED060A91ED0D0AB8EEC00A5F
:1015700030EEC00ABDEEC00A10EE100A002801DBF2
:10158000014600E04142044A914201DA01207047DD
:101590000020FCE7A00C002080380100E00D0020B6
:1015A000200F00206010002010B58CB00446052CE0
:1015B00045D2DFE804F03703101D2A002148282215
:1015C00021490A906846FEF72BFF1F4810380FC8C4
:1015D00006F0CAFA33E01D4828221D490A906846E1
:1015E000FEF71EFF1A4810380FC806F0BDFA26E0B5
:1015F0001448282217490A906846FEF711FF15483B
:1016000010380FC806F0B0FA19E010482822124925
:101610000A906846FEF704FF0F4810380FC806F01E
:10162000A3FA0CE00120FFF7BFFF0220FFF7BCFF89
:101630000320FFF7B9FF0420FFF7B6FF00BF00BF8C
:101640000CB010BD24020020E0150020FC01002099
:1016500018160020501600208816002000BFFEE754
:1016600010B5024800F0ECFC10BD0000FC010020A9
:1016700010B5024800F0E4FC10BD00002402002078
:10168000B7EE001AF0EE410AB7EE001AB0EE410ACA
:10169000F0202849086008460068B4280CDA08469B
:1016A0000068823801EE100AB8EEC11ADFED221A86
:1016B00081EE212AB0EE420AB5EEC00AF1EE10FA30
:1016C00003D29FED1E1AB0EE410A1D4890ED111A8B
:1016D000B8EEC11A21EE201A21EE001ABDEEC11A91
:1016E00080ED111A174890ED111AB8EEC11A21EECB
:1016F000201A21EE001ABDEEC11A80ED111A12480F
:1017000090ED111AB8EEC11A21EE201A21EE001A3E
:10171000BDEEC11A80ED111A0C4890ED111AB8EE09
:10172000C11A21EE201A21EE001ABDEEC11A80ED79
:10173000111A70478C010020000048420000000090
:1017400060060020A0070020E0080020200A0020FA
:1017500010B5024801F0D8F810BD000020040020A8
:1017600010B5024801F0D0F810BD00008004002040
:1017700010B5024801F0C8F810BD00006003002059
:1017800010B5024801F0C0F810BD0000E0040020D0
:1017900010B5024801F0B8F810BD0000C0030020E9
:1017A0000146087810381823B0FBF3F20848805C33
:1017B000C865032A05D908686FF30900001D88650C
:1017C00003E008686FF309008865886D70470000C2
:1017D000929B0008014600208A6A8B69CBB932B11E
:1017E000012A0DD0022A03D0032A10D10EE000BF37
:1017F000CB6A03F08073B3F1807F00D1012007E052
:10180000CB6AB3F1C07F00D1012001E000E000BF4E
:1018100034E08B69B3F5005F1AD132B1012A07D0E9
:10182000022A03D0032A11D10AE000BF01200EE0F2
:10183000CB6A03F08073B3F1807F00D1012006E012
:10184000CB6AB3F1C07F00D1012000E000BF15E0FA
:1018500032B1012A05D0022A04D0032A0CD103E0B8
:1018600000BF00BF012008E0CB6A03F08073B3F132
:10187000807F00D1012000E000BF00BF7047000062
:1018800010B52A20114908701148007848700220CC
:1018900005E0811E0F4A515C0C4A1154401C092876
:1018A000F7DD3B2009498872FF230B220A4802F02A
:1018B000BEFC0446002003E00021064A1154401CEF
:1018C0000828F9DB00200249087010BD501F0020D5
:1018D000CC010020001F00209402002030B50468D5
:1018E000246824F4802405682C600468636084689C
:1018F000402C04D10468A2600468E16003E004683D
:10190000A1600468E26030BD7047000010B52DEDA5
:10191000048B044694ED060AF0EE408A94ED050A25
:10192000B0EE408A05E09FED500A38EEC00AF0EEB6
:10193000408A9FED4D0AF4EEC08AF1EE10FAF2DC17
:1019400005E09FED490A38EE800AF0EE408AF5EE98
:10195000C08AF1EE10FAF4D305E09FED430A38EEA9
:10196000400AB0EE408A9FED400AB4EEC08AF1EE24
:1019700010FAF2DC05E09FED3C0A38EE000AB0EE0A
:10198000408AB5EEC08AF1EE10FAF4D378EEC80AB8
:10199000B0EE600A00F0D1F8B0EE409A78EE680A36
:1019A000B0EE600A00F0C9F8B4EEC09AF1EE10FA99
:1019B00008D278EEC80AB0EE600A00F0BEF884EDF6
:1019C000070A07E078EE680AB0EE600A00F0B5F8A2
:1019D00084ED070A94ED070ADFED240AB4EEE00A6D
:1019E000F1EE10FA0BDD94ED060ADFED210A30EE80
:1019F000200A84ED060A4FF0FF30E06501E0012087
:101A0000E06507E094ED060ADFED170A30EE600AA4
:101A100084ED060AD4ED060A94ED0D0AB8EEC00A6C
:101A200030EEC00ADFED120AB4EEE00AF1EE10FA71
:101A3000E8DA07E094ED060ADFED0B0A30EE200A43
:101A400084ED060AD4ED060A94ED0D0AB8EEC00A3C
:101A500030EEC00ADFED070AB4EEE00AF1EE10FA4C
:101A6000E8D9BDEC048B10BD0000A0470000A046E3
:101A700000002047000020C730B50346C869486110
:101A8000002004E01D5C01F10A042554401C0828D4
:101A9000F8DB087C0406C87B44EA0044887B44EAFF
:101AA00000204C7B204388614FF4A054886990FB50
:101AB000F4F04862886990FBF4F504FB150000EE31
:101AC000100AF8EEC00A9FED191A80EE810ADFEDC8
:101AD000180A20EE200ABDEEC00A81ED070A4C6903
:101AE000C869001BB0F5204F03DD886A401E88627C
:101AF00008E04C69C869001B10F5204F02DA886ABB
:101B0000401C88628C6A04EB8404C86900EB843052
:101B10000862086A4042506392ED0D0AB8EEC00AAE
:101B200082ED1D0A0120486330BD00000000A04581
:101B30000000A04772B600BFFEE7F0EE400AF5EEE7
:101B4000C00AF1EE10FA02D2B1EE600A7047B0EEB0
:101B5000600AFBE710B5044602F094FF04200B492D
:101B600008700120887004200949087001208870DD
:101B70000420084908700120887004200649087074
:101B8000012088702046FFF70FFD10BDD015002002
:101B90000816002040160020781600201A4890ED04
:101BA0004A0AF8EEC01A9FED190A9FED192A02EEB3
:101BB000210AB0EE401A174890ED090AF0EE400AEB
:101BC00030EEC10ADFED121AB4EEE10AF1EE10FABE
:101BD00006DD30EEC10ADFED101A30EE610A704703
:101BE00030EEC10ADFED0D1AB4EEE10AF1EE10FAA3
:101BF00006D230EEC10ADFED081A30EE210AEEE718
:101C000030EEC10AEBE70000CC1300200000824256
:101C100000003443600B00200000B443000034C3D4
:101C200010B5024692F82030012B01D0022B06D1CC
:101C300010684069084314686061002010BD506A54
:101C400040F4802050620120F8E7F0B504460D46CC
:101C50001E4694F8207020688368A86800B900E0E8
:101C600000BF012F01D0022F7CD103F0806030B97A
:101C700003F0006018B903F08050002873D0C3F35C
:101C80000161022905D9606A40F400006062012008
:101C9000F0BD012088403060A86860B9B5F800C088
:101CA000E86840EA4C5C206800F5C07000EB011069
:101CB000C0F800C00FE0D5E901C040EACC00D5F87B
:101CC0000CC040EA0C00D4F800C00CF5C07C0CEB52
:101CD000011CCCF80000D5F810C0206800F5C070D9
:101CE00000EB0110C0F804C0287D01280ED1206847
:101CF00000F5C07000EB0110406840F4807C206863
:101D000000F5C07000EB0110C0F804C0D0790006E7
:101D100092F806C040EA0C4092F805C040EA0C2C4C
:101D200010794CEA000C206800F5C07000EB01103F
:101D3000C0F80CC0D078000692F802C040EA0C400F
:101D400092F801C040EA0C2092F800C040EA0C0072
:101D5000D4F800C00CF5C07C0CEB011CCCF80800DA
:101D6000206801E016E00FE000F5C07000EB011004
:101D7000006840F0010C206800F5C07000EB011015
:101D8000C0F800C0002083E7606A40F40010606281
:101D900001207DE7606A40F480206062012077E7DF
:101DA000F0B504460A46216894F82050012D01D070
:101DB000022D7ED1424901F50071086840F0010012
:101DC0000860086820F47C5008600868566A40EA99
:101DD00006200860107D00F01F06012000FA06F3BF
:101DE000C8699843C861A1F50071D069C8B9D1F834
:101DF0000C029843C1F80C02908880B2968940EAA0
:101E0000064601F51070576940F83760108880B2B7
:101E1000168940EA064601F51070576900EBC700C5
:101E20004660D069012819D1D1F80C021843C1F8D5
:101E30000C02908880B2168840EA064601F51070C0
:101E4000576940F83760908980B2168940EA0646A3
:101E500001F51070576900EBC7004660906928B91A
:101E6000D1F804029843C1F8040204E0D1F8040256
:101E70001843C1F80402106928B9D1F81402984334
:101E8000C1F8140204E0D1F814021843C1F8140296
:101E9000106A012804D1D1F81C021843C1F81C02B1
:101EA000D1F8000220F00100C1F800020020F0BDCE
:101EB000FFE7606A40F4802060620120F7E70000DD
:101EC00000640040704770B5044694F82050012D1E
:101ED00001D0022D7DD151B92068C06800F0030007
:101EE00080B9606A40F400106062012070BD206813
:101EF000006900F0030028B9606A40F400106062D5
:101F00000120F3E7206800F5D87000EB01100068AD
:101F100000F004009060906840B9206800F5D87027
:101F200000EB01100068400D106007E0206800F52C
:101F3000D87000EB01100068C0085060206800F500
:101F4000D87000EB0110006800F00200D06020683B
:101F500000F5D87000EB0110406800F00F00106130
:101F6000206800F5D87000EB0110406800F47F4055
:101F7000000A9061206800F5D87000EB01104068FD
:101F8000000C5061206800F5D87000EB01108068EB
:101F90001870206800F5D87000EB0110806800F41C
:101FA0007F40000A5870206800F5D87000EB0110DF
:101FB000806800F47F00000C9870206800F5D870ED
:101FC00000EB01108068000ED870206800F5D87012
:101FD00000E02FE000EB0110C0681871206800F5E8
:101FE000D87000EB0110C06800F47F40000A5871FF
:101FF000206800F5D87000EB0110C06800F47F0085
:10200000000C9871206800F5D87000EB0110C068D2
:10201000000ED87131B92068C06840F020002668F1
:10202000F06005E02068006940F02000266830611B
:1020300000205BE7606A40F480206062012055E781
:102040002DE9F05F04460025206846692068D0F835
:102050000490206887682068D0F80CA02068D0F829
:1020600010B02068D0F8188006F00100002855D084
:1020700007F00100C0B101202168886007F002006C
:1020800018B1204600F0E3FB0EE007F0040010B1A9
:1020900045F4006508E007F0080010B145F48055EC
:1020A00002E0204600F0D2FB07F48070C8B14FF484
:1020B00080702168886007F4007018B1204600F035
:1020C000C8FB0EE007F4806010B145F4005508E04D
:1020D00007F4006010B145F4804502E0204600F0AE
:1020E000B7FB07F48030C8B14FF4803021688860B6
:1020F00007F4003018B1204600F0ADFB0EE007F405
:10210000802010B145F4004508E007F4002010B12C
:1021100045F4803502E0204600F09CFB06F0080004
:1021200038B10AF0100020B145F400751020216884
:10213000C86006F0040040B10AF0080028B1082089
:102140002168C860204600F00DFA06F0020038B1A0
:102150002068C06800F0030010B1204600F004FAC7
:1021600006F0400038B10BF0100020B145F4806556
:1021700010202168086106F0200040B10BF0080033
:1021800028B1082021680861204600F02DFB06F0E8
:10219000100038B12068006900F0030010B120463B
:1021A00000F023FB06F4003040B109F0100028B124
:1021B000102021684860204600F018FB06F48030AB
:1021C00040B109F0080028B1082021684860204685
:1021D00000F042FB06F4004088B309F0040078B335
:1021E00006F4807020B108F0010008B145F0010547
:1021F00006F4007020B108F0020008B145F00205B5
:1022000006F4806020B108F0040008B145F0040530
:1022100006F40060A0B108F0700088B108F070000A
:10222000402817D006DC10280BD020280CD03028EE
:1022300019D10CE0502810D0602814D110E01DE016
:1022400019E045F008050FE045F010050CE045F0F9
:10225000200509E045F0400506E045F0800503E073
:1022600045F4807500E000BF00BF2068806920F061
:102270007000216888610420216848602DB1606A7F
:10228000284360622046FFF71DFEBDE8F09F70B551
:1022900004460CB9012070BD94F8200010B9204606
:1022A00000F0B0F82068006840F001002168086084
:1022B00000F002FE05460DE000F0FEFD401B0A287E
:1022C00008D9606A40F400306062052084F820007C
:1022D0000120E0E72068406800F001000028EBD012
:1022E0002068006820F002002168086000F0E4FD2A
:1022F00005460DE000F0E0FD401B0A2808D9606AA1
:1023000040F400306062052084F820000120C2E71C
:102310002068406800F002000028EBD1207E0128F0
:1023200006D12068006840F080002168086005E060
:102330002068006820F0800021680860607E012825
:1023400006D12068006840F040002168086005E080
:102350002068006820F0400021680860A07E012805
:1023600006D12068006840F020002168086005E080
:102370002068006820F0200021680860E07E0128C5
:1023800006D12068006820F010002168086005E090
:102390002068006840F0100021680860207F012854
:1023A00006D12068006840F008002168086005E058
:1023B0002068006820F0080021680860607F01281C
:1023C00006D12068006840F004002168086005E03C
:1023D0002068006820F0040021680860D4E9020148
:1023E000084321690843616908436168491E08433D
:1023F0002168C86100206062012084F8200000206C
:1024000049E7000010B586B00446142101A8FEF784
:102410005BF84E492068884241D14D480068401C15
:102420004B4908600846006801280FD100BF002012
:1024300000904848006840F000704649086008462F
:10244000006800F00070009000BF00BF00BF0020D7
:10245000009040481038006840F008003D491039AD
:1024600008600846006800F00800009000BF00BF48
:10247000032001900220029000200390032004908A
:102480000920059001A9344800F01EFC002201211A
:10249000142000F09BFD142000F088FD54E02F492B
:1024A0002068884250D100BF002000902948006871
:1024B00040F08060274908600846006800F08060AE
:1024C000009000BF00BF22480068401C20490860FF
:1024D0000846006801280FD100BF002000901D4869
:1024E000006840F000701B4908600846006800F072
:1024F0000070009000BF00BF00BF00200090154892
:102500001038006840F0020012491039086008468F
:10251000006800F00200009000BF00BF6020019042
:1025200002200290002003900320049009200590CF
:1025300001A90B4800F0C8FB00220121402000F057
:1025400045FD402000F032FD06B010BD00640040A3
:102550000000002040380240000C024000680040AB
:102560000004024070470000F0B52DED028B89B0E9
:10257000054601208A4908608A48854260D16B4639
:1025800002AA0021FFF79FFC8649684605F056FF26
:102590000446B4F9000000EE100AB8EEC08AB4F99F
:1025A0000260B4F9047040F206220298811A904247
:1025B00018D007DC0B2836D00D283AD0A0F2052021
:1025C00028BB04E0012918D0022938D120E0BCEE54
:1025D000C80A10EE100A81B23B463246724805F036
:1025E000E9FD2CE0BCEEC80A10EE100A81B23B46B1
:1025F00032466E4805F0DEFD21E0BCEEC80A10EE62
:10260000100A81B23B463246694805F0D3FD16E018
:10261000BCEEC80A10EE100A81B23B46324665484D
:1026200005F0C8FD0BE0614A63496846FFF724FAEC
:1026300005E0604A61496846FFF71EFA00BFAAE05C
:102640005F488542FBD16B4602AA0021FFF73BFCA5
:1026500010B101205B4988715949684605F0EEFECA
:102660000446029810285CD008DC072816D00928F8
:102670000DD00A287CD00C280FD17FE0122823D05F
:10268000152874D0A0F20920002806D129E020786E
:102690004C49887108468079C8717BE06088217850
:1026A00040EA012000B247490880E088217940EAE9
:1026B000012000B2434948806089217A40EA012024
:1026C00000B24049888065E02088012808D103F0E5
:1026D0005DFD01203C49086006F0E0F90020208003
:1026E00058E03A4890ED020A80ED000A60882178AF
:1026F00040EA012000B200EE100AB8EEC00A3348EA
:1027000080ED020AE088217940EA012000B200EE63
:10271000100AB8EEC00A2D4880ED030A03F064FDEC
:1027200038E06088217840EA012000B200EE100A0B
:10273000B8EEC00A264880ED000A90ED000ADFEDF1
:10274000250A80EE201A80ED001AE088217940EAFF
:10275000012000B220490860084690ED000AB8EE5A
:10276000C00ABDEEC00A80ED000A13E000E00BE0F5
:102770000D4A1A496846FFF77FF90BE00C4A1849E1
:102780006846FFF779F905E09DF800001549C1F8A2
:10279000280100BF00BF09B0BDEC028BF0BD0000F6
:1027A000B8010020FC010020A00C0020E00D00205A
:1027B000200F00206010002008160020781600204E
:1027C000240200205406002040000020281500208C
:1027D000BC0100200000C842C0010020D01500202C
:1027E00040160020CC13002070477047704770B52A
:1027F000044694F82000012822D1022084F8200009
:102800002068006820F001002168086000F054FB97
:1028100005460DE000F050FB401B0A2808D9606A0D
:1028200040F400306062052084F82000012070BD73
:102830002068406800F001000028EBD16062F6E7F4
:10284000606A40F4002060620120F0E77047704742
:102850007047704770477047704770B50446A56D64
:1028600000F02AFB064694F83500022808D08020A4
:10287000606500BF002084F8340000BF012070BDF7
:102880002068006820F01600216808602068406910
:1028900020F0800021684861206C08B9A06C28B144
:1028A0002068006820F0080021680860206800683F
:1028B00020F001002168086010E000F0FDFA801BA4
:1028C00005280BD920206065032084F8350000BF5F
:1028D000002084F8340000BF0320D0E7206800689F
:1028E00000F001000028E8D194F85C103F208840F7
:1028F000A860012084F8350000BF002084F834006F
:1029000000BF00BFBBE70000F8B504460020009000
:102910008C4800684FF41651B0FBF1F7A56D2E6896
:1029200094F85C1008208840304098B12068006816
:1029300000F0040070B12068006820F004002168F5
:10294000086094F85C1008208840A860606D40F032
:102950000100606594F85C1001208840304068B147
:102960002068406900F0800040B194F85C100120BC
:102970008840A860606D40F00200606594F85C10CB
:1029800004208840304068B12068006800F00200F0
:1029900040B194F85C1004208840A860606D40F05D
:1029A0000400606594F85C1010208840304078B3D3
:1029B0002068006800F0080050B394F85C10102004
:1029C0008840A8602068006800F4802080B12068FA
:1029D000006800F4002028B9206CC8B12046216CA2
:1029E000884715E0A06C98B12046A16C88470FE09D
:1029F0002068006800F4807028B92068006820F022
:102A0000080021680860206C10B12046216C8847BE
:102A100094F85C10202088403040002865D0206861
:102A2000006800F0100000285FD094F85C102020AF
:102A30008840A86094F83500052828D120680068EF
:102A400020F01600216808602068406920F08000AE
:102A500021684861206C08B9A06C28B12068006822
:102A600020F008002168086094F85C103F2088403E
:102A7000A860012084F8350000BF002084F83400ED
:102A800000BF206D10B12046216D8847F8BD206839
:102A9000006800F4802080B12068006800F4002005
:102AA00028B9606C10B12046616C88471DE0E06B6E
:102AB000D8B12046E16B884717E02068006800F431
:102AC000807068B92068006820F0100021680860F4
:102AD000012084F8350000BF002084F8340000BFD6
:102AE000E06B10B12046E16B8847606D38B3606DD4
:102AF00000F00100F0B1052084F83500206800687E
:102B000020F001002168086000BF0098401C009080
:102B1000B84200D905E02068006800F001000028F4
:102B2000F3D100BF012084F8350000BF002084F8F5
:102B3000340000BFE06C10B12046E16C884700BF54
:102B4000A4E70000100000202DE9F0410446002514
:102B500000F0B2F9074614B90120BDE8F081606ABF
:102B600000B100BF022084F8350000BF002084F8C7
:102B7000340000BF2068006820F001002168086070
:102B80000AE000F099F9C01B052805D920206065EE
:102B9000032084F83500E0E72068006800F00100B9
:102BA0000028EED12068056821480540D4E90101DC
:102BB0000843E16808432169084361690843A16942
:102BC0000843E1690843216A08430543606A042811
:102BD00003D1D4E90B010843054320680560206850
:102BE000456925F00705606A0543606A04280DD130
:102BF000A06A0543E06A48B12046FEF7EBFD28B124
:102C000040206065012084F83500A6E72068456112
:102C10002046FEF7C5FD064694F85C103F2088402C
:102C2000B06000206065012084F83500002094E742
:102C30003F8010F02DE9F04704460D4616461F462A
:102C40004FF00008D4F8589000BF94F834000128E1
:102C500002D10220BDE8F087012084F8340000BFD3
:102C600094F83500012825D1022084F83500002091
:102C700060653B46324629462046FEF72FFE94F813
:102C80005C103F208840C9F808002068006840F0C8
:102C9000160021680860206C28B12068006840F0A8
:102CA0000800216808602068006840F00100216881
:102CB000086006E000BF002084F8340000BF4FF039
:102CC00002084046C6E70000F8B502460B4600255C
:102CD000002400200021D5E0012606FA01F51E6837
:102CE00006EA0504AC4274D11E7906F00306012EF3
:102CF00004D01E7906F00306022E13D190684F000F
:102D00000326BE40B0434F00DE68BE4030439060B3
:102D1000506801268E40B0431E79C6F300168E40DF
:102D2000304350601E7906F00306032E09D0D068A8
:102D30004F000326BE40B0434F009E68BE40304364
:102D4000D0601E7906F00306022E13D1CF0802F1DF
:102D5000200656F827004E07F70E0F26BE40B04358
:102D60004F07FF0E1E69BE403043CF0802F1200618
:102D700046F8270010684F000326BE40B0431E7976
:102D800006F003064F00BE40304310605E6806F454
:102D90004036002E75D000BF002600963B4E3668A8
:102DA00046F48046394F3E603E46366806F480461B
:102DB000009600BF00BF364E8F0856F827008E07DA
:102DC000370F0F26BE40B043324EB24202D100262A
:102DD00024E056E0304EB24201D101261EE02F4ED3
:102DE000B24201D1022619E02D4EB24201D1032692
:102DF00014E02C4EB24201D104260FE02A4EB2421A
:102E000001D105260AE0294EB24201D1062605E08D
:102E1000274EB24201D1072600E008268F073F0F58
:102E2000BE4030431A4E8F0846F82700214E3068C6
:102E3000A0435E6806F4803606B120431D4E306024
:102E4000361D3068A0435E6806F4003606B12043A4
:102E5000184E361D3060361D3068A0435E6806F49B
:102E6000801606B12043134E08363060361D306898
:102E7000A0435E6806F4001606B120430D4E0C36E2
:102E80003060491C1029FFF427AFF8BD44380240D8
:102E900008380140000002400004024000080240DF
:102EA000000C0240001002400014024000180240D2
:102EB000001C0240003C01400148006870470000CF
:102EC00004000020034800680349097808440149C8
:102ED00008607047040000200C00002010B50D4869
:102EE000006840F400700B4908600846006840F430
:102EF000806008600846006840F480700860032025
:102F000000F0A2F80F2000F007F800F02BF80020E6
:102F100010BD0000003C024070B504460E48007829
:102F20004FF47A71B1FBF0F00C490968B1FBF0F590
:102F3000284600F02BFC08B1012070BD102C07D2F0
:102F400000222146501E00F041F80548046001E0CF
:102F50000120F2E70020F0E70C0000201000002024
:102F60000800002008B500BF002000900E4800684F
:102F700040F480400C4908600846006800F4804036
:102F8000009000BF00BF00BF00200090081F006835
:102F900040F08050091F08600846006800F080502B
:102FA000009000BF00BF08BD4438024001460846FB
:102FB000002809DB00F01F0301229A4043099B000F
:102FC00003F1E023C3F8002100BF70472DE9F05F53
:102FD00080460D461646002703F0A8F907463946F5
:102FE0002A46334601F00700C0F1070ABAF1040F80
:102FF00002D94FF0040A01E0C0F1070AD14600F1FE
:10300000040ABAF1070F02D24FF0000A01E0A0F162
:10301000030AD4464FF0010A0AFA09FAAAF1010A92
:103020000AEA020A0AFA0CFA4FF0010B0BFA0CFB3F
:10303000ABF1010B0BEA030B4AEA0B0421464046B5
:1030400003F07CF9BDE8F09F00BF00F00702064BDB
:1030500019684FF6FF031940044B0B4343EA022162
:10306000014B196000BF70470CED00E00000FA054D
:1030700070B504460D460CB9012070BD5848006873
:1030800000F00700A84209D255490D7008460068B3
:1030900000F00700A84201D00120EEE7207800F000
:1030A000020002281DD1207800F00400042805D178
:1030B0004C48006840F4E0504A490860207800F02D
:1030C0000800082805D14748006840F46040454999
:1030D00008604448006820F0F000A16808434149B6
:1030E0000860207800F00100A8B36068012807D1CB
:1030F0003C4808380068C0F34040B8B90120BCE73C
:103100006068022802D06068032807D13548083873
:103110000068C0F3406048B90120AEE73148083884
:103120000068C0F3400008B90120A6E72D480068F8
:1031300020F00300616808432A490860FFF7BCFEDD
:10314000064609E0FFF7B8FE801B41F2883188424D
:1031500002D9032091E707E02248006800F00C0044
:103160006168B0EB810FEDD11D48006800F00700E9
:10317000A84209D91A490D700846006800F00700F6
:10318000A84201D0012078E7207800F0040004284C
:1031900007D11448006820F4E050E1680843114961
:1031A0000860207800F00800082808D10D48006861
:1031B00020F46040216940EAC1000A49086000F03B
:1031C0003FF808490968C1F30311074A515CC84038
:1031D0000649086006480068FFF79EFE00204CE79D
:1031E000003C0240083802409A9B00081000002072
:1031F000080000200148006870470000100000200F
:1032000000B5FFF7F7FF04490968C1F38221034ABB
:10321000515CC84000BD000008380240AA9B00086D
:1032200000B5FFF7E7FF04490968C1F34231034ADB
:10323000515CC84000BD000008380240AA9B00084D
:103240002DE9F047002400250026A1462548006806
:1032500000F00C0020B1042805D008283AD105E080
:10326000DFF8849039E0DFF8849036E01D48001FD5
:10327000006800F03F041B48001F006800F4800055
:1032800078B11A481749091F0968C1F38811A0FBD2
:1032900001700146224600233846FDF705F8054631
:1032A0000EE011480F49091F0968C1F38811A0FBFE
:1032B00001700146224600233846FCF7F5FF05461B
:1032C0000848001F0068C0F30140401C4600B5FBE1
:1032D000F6F902E0DFF8109000BF00BF4846BDE8F5
:1032E000F0870000083802400024F400001BB700FB
:1032F000F8B504460CB90120F8BD207800F00100B3
:10330000002874D0F948006800F00C0004280DD0A3
:10331000F648006800F00C00082813D1F348001F9D
:10332000006800F48000B0F5800F0BD1EF4808383A
:103330000068C0F34040002859D06068002856D18A
:103340000120D9E700BF6068B0F5803F08D1E748A9
:103350000838006840F48030E449083908601EE00D
:103360006068B0F5A02F0DD1E0480838006840F43F
:103370008020DE49083908600846006840F4803043
:1033800008600CE0D9480838006820F48030D7493C
:10339000083908600846006820F48020086000BFF3
:1033A000606890B1FFF788FD054606E0FFF784FDF1
:1033B000401B642801D903209EE7CC4808380068E8
:1033C000C0F340400028F1D011E0FFF775FD05463D
:1033D00006E0FFF771FD401B642801D903208BE74D
:1033E000C24808380068C0F340400028F1D1207876
:1033F00000F0020002285FD1BC48006800F00C0019
:1034000058B1BA48006800F00C0008281CD1B74831
:10341000001F006800F48000B0B9B44808380068A4
:10342000C0F3400020B1E068012801D0012063E72B
:10343000AE480838006820F0F800216940EAC10071
:10344000AA490839086037E0E06800B30120A849BC
:103450000860FFF731FD054606E0FFF72DFD401B34
:10346000022801D9032047E7A04808380068C0F3C4
:1034700040000028F1D09D480838006820F0F8008E
:10348000216940EAC10099490839086014E0002028
:1034900097490860FFF710FD054606E0FFF70CFDB1
:1034A000401B022801D9032026E79048083800680D
:1034B000C0F340000028F1D1207800F0080008286F
:1034C0002CD16069A8B101208A490860FFF7F4FC9B
:1034D000054606E0FFF7F0FC401B022801D9032057
:1034E0000AE782486C300068C0F340000028F1D041
:1034F00014E000207F490860FFF7DEFC054606E087
:10350000FFF7DAFC401B022801D90320F4E67748D4
:103510006C300068C0F340000028F1D1207800F042
:103520000400042870D1002770483830006800F08B
:10353000805090B900BF002000906C48383000687F
:1035400040F080506949383108600846006800F052
:103550008050009000BF00BF01276748006800F45A
:103560008070B0B96448006840F4807062490860B7
:10357000FFF7A2FC054606E0FFF79EFC401B022871
:1035800001D90320B8E65C48006800F48070002888
:10359000F2D000BFA068012808D154486830006804
:1035A00040F001005149683108601DE0A06805281D
:1035B0000DD14E486830006840F004004B49683136
:1035C00008600846006840F0010008600CE04748C9
:1035D0006830006820F001004449683108600846FE
:1035E000006820F00400086000BFA068A8B1FFF7E1
:1035F00063FC054609E0FFF75FFC401B41F28831A0
:10360000884202D9032077E626E03848683000680F
:10361000C0F340000028EED013E0FFF74DFC054654
:1036200008E0FFF749FC401B41F28831884201D98C
:10363000032061E62D4868300068C0F34000002890
:10364000EFD1012F07D129483830006820F0805091
:1036500026493831086000BFA069002845D02348BA
:10366000006800F00C0008285DD0A069022845D150
:1036700000201F490866FFF71FFC054606E0FFF71C
:103680001BFC401B022801D9032035E617480838E7
:103690000068C0F340600028F1D1D4E90701084375
:1036A000616A40EA81110122A06AC2EB500041EA3E
:1036B00000412C20005D41EA00600C49091F0860B0
:1036C00001200B490866FFF7F7FB054606E0FFF708
:1036D000F3FB401B022801D903200DE603480838FC
:1036E0000068C0F340600028F1D049E0083802408B
:1036F00000004742800E47420070004000202149F0
:103700000866FFF7D9FB054606E0FFF7D5FB401B2F
:10371000022801D90320EFE51B480068C0F3406090
:103720000028F2D12CE0A069012800D1E4E5164878
:10373000001D0668A069012820D006F48001E06918
:1037400081421BD106F03F01206A814216D147F623
:10375000C0703040616AB0EB811F0FD106F4403178
:103760000122A06AC2EB5000B1EB004F06D106F077
:1037700070612C20005DB1EB006F01D00120BBE532
:103780000020B9E5000047420038024070B5044609
:103790002546681EB0F1807F01D301200FE0681E2E
:1037A0004FF0E02148610F214FF0FF3002F0C6FDDD
:1037B00000204FF0E021886107200861002070BDE3
:1037C0007047704730B502460B4600BF92F83C0088
:1037D000012801D1022030BD012082F83C0000BF49
:1037E000022082F83D00106844681068816824F067
:1037F00070041868044310684460184D1068A842AB
:103800001BD01068B0F1804F17D0154D1068A8423A
:1038100013D0144D1068A8420FD0134D1068A84261
:103820000BD0124D1068A84207D0114D1068A84265
:1038300003D0104D1068A84205D121F080015868CE
:10384000014310688160012082F83D0000BF002024
:1038500082F83C0000BF00BFBDE70000000001404F
:103860000004004000080040000C0040000401403B
:10387000004001400018004010B504460CB901207A
:1038800010BD94F83D0028B9002084F83C00204683
:1038900000F026F8022084F83D00211D206801F088
:1038A00063FB012084F8460000BF84F83E0001213C
:1038B0003F200155402001554120015500BF00BF68
:1038C000012084F842004320015544200155452041
:1038D000015500BF012084F83D000020D0E7000022
:1038E00038B504460E492068884217D100BF002031
:1038F00000900C48006840F002000A490860084641
:10390000006800F00200009000BF00BF002201210B
:103910001D20FFF75BFB1D20FFF748FB38BD0000B3
:103920000004004040380240014691F83D00012863
:1039300001D001207047022081F83D000868C0686E
:1039400040F001000B68D8601A4B086898421BD001
:103950000868B0F1804F17D0174B0868984213D011
:10396000164B086898420FD0154B086898420BD048
:10397000144B0868984207D0134B0868984203D04C
:10398000124B086898420CD10868806800F0070262
:10399000062A0CD00868006840F001000B68186027
:1039A00005E00868006840F001000B68186000201E
:1039B000C0E7000000000140000400400008004093
:1039C000000C00400004014000400140001800408D
:1039D0002DE9F04104460D46002700BF94F83C0055
:1039E000012802D10220BDE8F081012084F83C00CA
:1039F00000BF022084F83D002068866826F0770624
:103A000026F47F46206886602868502833D00CDC76
:103A1000202850D004DC00284BD0102851D149E098
:103A2000302849D040284CD139E060282DD070286A
:103A300007D0B0F5805F03D0B0F5005F41D10DE055
:103A400041E0D5E902136A68206801F0F9FA2068BC
:103A5000866846F077062068866034E0D5E9021370
:103A60006A68206801F0ECFA2068806840F48040C1
:103A70002168886027E0EA686968206801F0F4FA44
:103A80005021206801F0E7FA1DE0EA6869682068C3
:103A900001F0FDFA6021206801F0DDFA13E0EA6828
:103AA0006968206801F0E0FA4021206801F0D3FA4B
:103AB00009E000BF00BF00BF2968206801F0CBFA11
:103AC00001E0012700BF00BF012084F83D0000BFD6
:103AD000002084F83C0000BF384684E7704710B5EA
:103AE000044620680069C0F34000D8B12068C0686F
:103AF000C0F34000B0B16FF00200216808610120FE
:103B000020772068806900F0030018B12046FFF795
:103B1000E5FF05E0204600F0ADF8204600F0ABF8E8
:103B20000020207720680069C0F38000D8B12068A9
:103B3000C068C0F38000B0B16FF004002168086174
:103B4000022020772068806900F4407018B1204678
:103B5000FFF7C4FF05E0204600F08CF8204600F097
:103B60008AF80020207720680069C0F3C000D8B12F
:103B70002068C068C0F3C000B0B16FF008002168D1
:103B80000861042020772068C06900F0030018B1A4
:103B90002046FFF7A3FF05E0204600F06BF8204623
:103BA00000F069F80020207720680069C0F3001059
:103BB000D8B12068C068C0F30010B0B16FF0100039
:103BC00021680861082020772068C06900F44070EF
:103BD00018B12046FFF782FF05E0204600F04AF8C2
:103BE000204600F048F8002020772068006900F0A7
:103BF000010058B12068C06800F0010030B16FF0DA
:103C0000010021680861204600F036F8206800694C
:103C1000C0F3C01058B12068C068C0F3C01030B104
:103C20006FF08000216808612046FFF7C9FD206819
:103C30000069C0F3801058B12068C068C0F38010DC
:103C400030B16FF0400021680861204600F0A4F810
:103C500020680069C0F3401058B12068C068C0F304
:103C6000401030B16FF02000216808612046FFF756
:103C7000A8FD10BD7047704710B504464248006863
:103C8000401C4149086008460068032190FBF1F29E
:103C900001FB120058B93D4991ED090ADFED3C0ADC
:103CA00020EE200ABDEEC00A10EE100A00BF364812
:103CB00000680A2190FBF1F201FB1200042805D1F3
:103CC00004F01AFE04F022F804F04EFD2E480068BD
:103CD0000A2190FBF1F201FB120008B904F0C4FEC6
:103CE000294800680A2190FBF1F201FB120010B98B
:103CF0000120FDF72FFF244800680A2190FBF1F214
:103D000001FB1200012802D10220FDF723FF1E480B
:103D100000680A2190FBF1F201FB1200022802D197
:103D20000320FDF717FF184800680A2190FBF1F205
:103D300001FB1200032802D10420FDF70BFF1248FB
:103D40000068C92190FBF1F201FB120018B90E487E
:103D5000006801F04FFC0C4800680A2190FBF1F26A
:103D600001FB120008B904F0F9FE07480068B0F53D
:103D70007A7F07DB01200449086006480068401C80
:103D80000449086010BD0000AC000020600B00205A
:103D90000000C842B00000207047704770B504466C
:103DA000002520684069C0F3C01594F83D00212823
:103DB00017D1B5B100BF00BF2168143151E8001F11
:103DC00021F080002168143141E80002002AF3D17B
:103DD00000BF606B10B1606BFEF73FFD204601F045
:103DE00030FA20684069C0F3801594F83E0022281C
:103DF00017D1B5B100BF00BF2168143151E8001FD1
:103E000021F040002168143141E80002002AF3D17A
:103E100000BFA06B10B1A06BFEF71FFD204601F0A4
:103E2000DAF9002070BD704710B504460CB90120C6
:103E300010BDA06900B100E000BF94F83D0028B9B2
:103E4000002084F83C00204600F028F8242084F864
:103E50003D002068C06820F400502168C8602046FA
:103E600001F002FA2068006920F49040216808619E
:103E70002068406920F02A00216848612068C068F5
:103E800040F400502168C86000202064202084F89D
:103E90003D0084F83E000020CAE7000010B586B05F
:103EA0000446142101A8FCF70FFBC0492068884292
:103EB0007ED100BF00200090BD48006840F0100097
:103EC000BB4908600846006800F01000009000BF81
:103ED00000BF00BF00200090B5481438006840F0D3
:103EE0000200B349143908600846006800F0020077
:103EF000009000BF00BF00BF00200090084600688F
:103F000040F0010008600846006800F001000090E1
:103F100000BF00BF8020019002200290002003908B
:103F2000032004900720059001A9A248FEF7CCFECB
:103F30004FF40070019002200290002003900320B3
:103F400004900720059001A99B48FEF7BDFE9B4801
:103F50009B4908604FF000604860002198488160EC
:103F6000C1604FF480610161002141618161C161E3
:103F70004FF40031016200214162FEF7E5FD08B116
:103F8000FDF7D8FD00BF8E48A063846300BF8B4857
:103F900030308C4908604FF000604860402189480B
:103FA00081600021C1604FF480610161002100E067
:103FB0001AE041618161C1614FF4803101620021E9
:103FC0004162FEF7C1FD08B1FDF7B4FD00BF7D48B9
:103FD0006063846300BF002201212520FEF7F6FF05
:103FE0002520FEF7E3FFDEE07749206888425BD1B9
:103FF00000BF002000906E48001F006840F4802041
:104000006B49091F08600846006800F48020009092
:1040100000BF00BF00BF0020009065481438006852
:1040200040F004006249143908600846006800F056
:104030000400009000BF00BF4FF4406001900220D8
:10404000029000200390032004900720059001A90E
:104050005E48FEF739FE5E485E4908604FF000603A
:10406000486000215B488160C1604FF4806101615C
:10407000002141618161C1614FF480310162002101
:104080004162FEF761FD08B1FDF754FD00BF5148E4
:10409000A063846300BF002211462720FEF796FF2D
:1040A0002720FEF783FF7EE04B49206888427AD1C3
:1040B00000BF002000903E48006840F020003C49CE
:1040C00008600846006800F02000009000BF00BFB4
:1040D00000BF0020009036481438006840F04000CF
:1040E0003349143908600846006800F04000009029
:1040F00000BF00BF4FF484400190022002900020D6
:104100000390032004900820059001A93348FEF78E
:10411000DBFD2A486038324908608005486000218C
:104120002F488160C1604FF48061016100214161CD
:104130008161C1614FF40031016200214162FEF7EB
:1041400003FD08B1FDF7F6FC00BF2548A0638463BA
:1041500000BF1A481830234908604FF020604860BB
:104160004021204881600021C1604FF480610161DD
:10417000002141618161C1614FF480310162002100
:104180004162FEF7E1FC08B1FDF7D4FC00BF154821
:104190006063846300BF002211464720FEF716FFCC
:1041A0004720FEF703FF06B010BD000000100140DD
:1041B000443802400004024000000240886402408B
:1041C00060030020C00300200048004000080240B7
:1041D0002860024020040020001401400018024022
:1041E00080040020E004002070B504460D46164609
:1041F00094F83E00202816D105B10EB9012070BDFB
:1042000000BF94F83C00012801D10220F7E701200B
:1042100084F83C0000BF0020206332462946204637
:1042200001F038F9EBE70220E9E7704770472DE924
:10423000F84F04460E46174699464FF0000A94F888
:104240003D0020285AD106B117B90120BDE8F88FEA
:1042500000BF94F83C00012801D10220F6E70120BC
:1042600084F83C0000BF00202064212084F83D0039
:10427000FEF722FE8246A784E784A068B0F5805F3F
:1042800004D1206910B90025B04602E035464FF050
:10429000000800BF002084F83C0000BF1BE053462C
:1042A000002280212046CDF8009001F059F908B194
:1042B0000320CBE745B9B8F80000C0F30800216837
:1042C000486008F1020803E02878216848606D1C06
:1042D000E08C401EE084E08C0028E0D153460022B0
:1042E00040212046CDF8009001F03AF908B10320B2
:1042F000ACE7202084F83D000020A7E70220A5E7D6
:1043000000BFFEE700B500F0BDFB0A200A49487077
:104310000B200A4948700C20094948700D200949B2
:1043200048700020044948630449486304494863CD
:104330000449486300BD0000D01500200816002085
:10434000401600207816002010B50F480F4908606D
:104350000320486000210D488160C1604FF4802136
:1043600001614FF4E00141610021017601214176B4
:1043700081760021C17601774177FDF788FF08B18A
:10438000FDF7D8FB10BD000000640040FC010020D8
:1043900010B50F480F4908600320486000210D4800
:1043A0008160C1604FF4802101614FF4E0014161FF
:1043B000002101760121417681760021C1760177C5
:1043C0004177FDF764FF08B1FDF7B4FB10BD0000B5
:1043D000006800402402002008B500BF00200090C3
:1043E0002248006840F40010204908600846006830
:1043F00000F40010009000BF00BF00BF002000903C
:104400000846006840F4800008600846006800F430
:104410008000009000BF00BF002211460C20FEF774
:10442000D5FD0C20FEF7C2FD002211463920FEF713
:10443000CDFD3920FEF7BAFD002211464420FEF7DB
:10444000C5FD4420FEF7B2FD002211464520FEF7CF
:10445000BDFD4520FEF7AAFD002211464620FEF7CD
:10446000B5FD4620FEF7A2FD08BD00003038024031
:1044700008B500BF002000902C48006840F0020002
:104480002A4908600846006800F00200009000BF5A
:1044900000BF00BF002000900846006840F04000C8
:1044A00008600846006800F04000009000BF00BFB0
:1044B00000BF002000900846006840F0010008603E
:1044C0000846006800F00100009000BF00BF00BF78
:1044D000002000900846006840F008000860084688
:1044E000006800F00800009000BF00BF00BF00207F
:1044F00000900846006840F0040008600846006824
:1045000000F00400009000BF00BF00BF002000903A
:104510000846006840F0800008600846006800F027
:104520008000009000BF00BF08BD0000303802408E
:1045300000B587B00020039004900590069001908C
:104540000290144814490860532048600021124822
:10455000816040F2E731C160002101618161FFF7B4
:104560008BF908B1FDF7E6FA4FF48050039003A9E8
:104570000948FFF72DFA08B1FDF7DCFA0020019099
:10458000029001A90448FFF71DF908B1FDF7D2FA1E
:1045900007B000BD000400404C02002010B50B48DD
:1045A0000B4908604FF4E130486000210848816001
:1045B000C16001610C21416100218161C161FFF78E
:1045C00033FC08B1FDF7B6FA10BD00000010014041
:1045D0009402002010B50A480A4908600A48486059
:1045E000002108488160C16001610421416100210E
:1045F0008161C161FFF718FC08B1FDF79BFA10BD9E
:1046000000480040D8020020A086010010B50B48E9
:104610000B4908604FF4E130486000210848816090
:10462000C16001610C21416100218161C161FFF71D
:10463000FBFB08B1FDF77EFA10BD0000001401403D
:104640001C03002000BFFEE707480849486042F607
:1046500094200749486047F6F460064948604BF2E9
:10466000BC1005494860704702BDFFFFA00C002048
:10467000E00D0020200F00206010002000BFFEE7AA
:1046800000B101B9704791ED000A80ED000A91ED8B
:10469000010A80ED010A91ED020A80ED020A91ED16
:1046A000030A80ED030A91ED040A80ED040A9FEDF0
:1046B0000D0A80ED0E0A80ED0D0A80ED0C0A9FEDCB
:1046C000090A80ED080A80ED0B0A80ED0A0A80EDE8
:1046D000090A80ED110A80ED100A80ED0F0A00BF73
:1046E000D0E70000000000009FED120A80ED030AF1
:1046F0009FED100A80ED040A9FED0E0A80ED000A7E
:104700009FED0C0A80ED010A9FED0A0A80ED020A76
:104710009FED080A80ED050A9FED060A80ED060A66
:104720009FED040A80ED070A9FED020A80ED080A5A
:10473000704700000000000070470146002901DDBD
:1047400008467047484200B2FBE7000010B5224916
:10475000B1F90000FFF7F1FF40F29461884200DDFB
:104760001FE01D49B1F90200FFF7E7FF40F2946135
:10477000884200DD15E01849B1F90400FFF7DDFFBC
:1047800040F29461884200DD0BE01349B1F9060064
:10479000FFF7D3FF40F29461884200DD01E0002082
:1047A00010BD00200C49088048808880C88008819E
:1047B0000220887202210848C172002006498881BF
:1047C00000210548C18101828174C1740020024921
:1047D00088820120E4E70000B400002010B5234BDC
:1047E0001B685B6943F04003204C246863611F4BE6
:1047F0001B68DB6843F010031C4C2468E3601C4B0F
:104800001B681B6823F00103194C2468236007E030
:10481000174B1B681B6823F00103154C24682360A9
:10482000134B1B681B6803F00103002BF0D1114BE5
:104830000F4C2468A3600E4B1B68D8600C4B1B68A0
:1048400019610B4B1B685A60094B1B681B6843F4CA
:104850008023074C24682360054B1B681B6843F0CA
:104860000103034C2468236010BD0000D80200201F
:10487000200400200448004008B52C490968C96894
:1048800021F40051294A1268D16029490968096850
:1048900021F00101264A126811602421244A12687D
:1048A000516000BF0021009120490968096800910A
:1048B0001E4909684968009100BF00BF1C4909688A
:1048C0001C4A914205D94FF400111A4A4C3A116022
:1048D0001BE017490968184A914205D94FF40011A5
:1048E000144A503A116010E011490968124A603ABE
:1048F000914205D94FF400110F4AB83AD16004E053
:104900004FF400110C4AB83A916008490968C96827
:1049100041F40051054A1268D160054909680968E7
:1049200041F00101024A1268116008BDD80200205E
:104930002004002058640240B860024010B5494B82
:104940001B685B6943F04003464C24686361454B38
:104950001B685B6943F08003424C24686361414BF0
:104960001B68DB6843F010033E4C2468E3603E4B59
:104970001B681B6823F001033B4C2468236007E09D
:10498000394B1B681B6823F00103374C24682360F4
:10499000354B1B681B6803F00103002BF0D1324B31
:1049A0001B68324CA34205D94FF400132F4C4C3CEA
:1049B00023601BE02C4B1B682D4CA34205D94FF400
:1049C00000132A4C503C236010E0274B1B68284CF6
:1049D000603CA34205D94FF40013254CB83CE3607A
:1049E00004E04FF40013224CB83CA360214B1E4C52
:1049F0002468A360204B1C4C2468E3601A4C246894
:104A00002361194B1B685A60174B1B681B6843F4E2
:104A10008023154C24682360134B1B681B6843F0EC
:104A20000103114C24682360144B1B681B6823F09E
:104A30000103124C2468236007E0104B1B681B68BD
:104A400023F001030D4C246823600C4B1B681B688A
:104A500003F00103002BF0D1064B084C2468A3603F
:104A600010BD00001C030020800400205864024098
:104A7000B860024004140140C0160020E004002089
:104A800070470000002009E0002206490A54064948
:104A90000A5406490A5406490A54401C0828F3DB04
:104AA00070470000D31500200B160020431600208D
:104AB0007B16002010B52DED088B0024E348D0EDC7
:104AC000110AF8EEE00AB0EE600AFDF736F8BDEE26
:104AD000C00A10EE104ADE48D0ED110AF8EEE00AE6
:104AE000B0EE600AFDF729F8F0EE400A00EE104A39
:104AF000B8EEC00AF4EEC00AF1EE10FA0CDDD448AC
:104B0000D0ED110AF8EEE00AB0EE600AFDF715F8F4
:104B1000BDEEC00A10EE104ACE48D0ED110AF8EEF4
:104B2000E00AB0EE600AFDF708F8F0EE400A00EE89
:104B3000104AB8EEC00AF4EEC00AF1EE10FA0CDD2D
:104B4000C448D0ED110AF8EEE00AB0EE600AFCF7B6
:104B5000F4FFBDEEC00A10EE104ABF48D0ED110AB6
:104B6000F8EEE00AB0EE600AFCF7E7FFF0EE400A6C
:104B700000EE104AB8EEC00AF4EEC00AF1EE10FAE8
:104B80000CDDB548D0ED110AF8EEE00AB0EE600A8F
:104B9000FCF7D3FFBDEEC00A10EE104AAF48006824
:104BA00008B941F6583443F6E83084426BDD2046BC
:104BB00004F017FC41EC190BA449496C43F6E832A8
:104BC00001FB02F004F00DFC9FEDA50B53EC102B44
:104BD00004F06EFC53EC192B04F07CFA04F0D2FBC9
:104BE0009A494864204604F0FCFB41EC190B9849B3
:104BF000496C43F6E83201FB02F004F0F2FB9FED52
:104C0000980B53EC102B04F053FC53EC192B04F0CD
:104C100061FA04F0B7FB8E494864204604F0E1FBDA
:104C200041EC190B8B49496C43F6E83201FB02F069
:104C300004F0D7FB9FED8A0B53EC102B04F038FCEB
:104C400053EC192B04F046FA04F09CFB81494864AC
:104C5000204604F0C6FB41EC190B7F49496C43F632
:104C6000E83201FB02F004F0BCFB9FED7D0B53EC3E
:104C7000102B04F01DFC53EC192B04F02BFA04F05C
:104C800081FB754948647848D0ED110AF8EEE00AD6
:104C9000B0EE600AFCF751FFBDEEC00A10EE104AFC
:104CA0007248D0ED110AF8EEE00AB0EE600AFCF7A7
:104CB00044FFF0EE400A00EE104AB8EEC00AF4EEEF
:104CC000C00AF1EE10FA0CDD6848D0ED110AF8EEDA
:104CD000E00AB0EE600AFCF730FFBDEEC00A10EE4D
:104CE000104A6348D0ED110AF8EEE00AB0EE600A0F
:104CF000FCF723FFF0EE400A00EE104AB8EEC00ABF
:104D0000F4EEC00AF1EE10FA0CDD5948D0ED110AAC
:104D1000F8EEE00AB0EE600AFCF70FFFBDEEC00A45
:104D200010EE104A5348D0ED110AF8EEE00AB0EE4A
:104D3000600AFCF702FFF0EE400A00EE104AB8EEFF
:104D4000C00AF4EEC00AF1EE10FA0CDD4948D0EDCD
:104D5000110AF8EEE00AB0EE600AFCF7EEFEBDEED6
:104D6000C00A10EE104A43F6E83084426BDD20465C
:104D700004F037FB41EC190B3B49496C43F6E83230
:104D800001FB02F004F02DFB9FED350B53EC102BD3
:104D900004F08EFB53EC192B04F09CF904F0F2FAAA
:104DA00031494864204604F01CFB41EC190B2F49A3
:104DB000496C43F6E83201FB02F004F012FB9FED70
:104DC000280B53EC102B04F073FB53EC192B04F05D
:104DD00081F904F0D7FA25494864204604F001FB24
:104DE00041EC190B2249496C43F6E83201FB02F011
:104DF00004F0F7FA9FED1A0B53EC102B04F058FB5C
:104E000053EC192B04F066F904F0BCFA1849486415
:104E1000204604F0E6FA41EC190B1649496C43F6BA
:104E2000E83201FB02F004F0DCFA9FED0D0B53ECCD
:104E3000102B04F03DFB53EC192B04F04BF904F05C
:104E4000A1FA0C494864BDEC088B10BD6006002037
:104E5000A0070020E0080020200A00209001002088
:104E6000000000000000F03FA00C0020E00D00203A
:104E7000200F002060100020F0EE400A20EEA01A63
:104E8000B0EE410A704710B5FEF71CF810BD0000E7
:104E900000B593B0302107A8FBF716FB142102A838
:104EA000FBF712FB00BF002001902448006840F08F
:104EB0008050224908600846006800F08050019048
:104EC00000BF00BF00BF002001901D48006840F4F3
:104ED00080401B4908600846006800F4804001904B
:104EE00000BF00BF012007900004089002200D9031
:104EF00041050E9106210F91A821109102211191D7
:104F00000421129107A8FEF7F3F908B1FCF712FE8D
:104F10000F20029002200390002004904FF4A05034
:104F200005904FF480500690052102A8FEF7A0F8E6
:104F300008B1FCF7FFFD13B000BD0000403802408F
:104F4000007000400348006840F4700001490860A8
:104F50007047000088ED00E010B50248FEF7BFFD85
:104F600010BD00004C02002010B50268294B984289
:104F70000ED0B0F1804F0BD0274B984208D0274B72
:104F8000984205D0264B984202D0264B984203D136
:104F900022F070024B681A431E4B984220D0B0F1A9
:104FA000804F1DD01C4B98421AD01C4B984217D0F2
:104FB0001B4B984214D01B4B984211D01A4B98426D
:104FC0000ED01A4B98420BD0194B984208D0194B6F
:104FD000984205D0184B984202D0184B984203D102
:104FE00022F44072CB681A4322F080034C6943EAF2
:104FF000040202608B68C3620B688362054B9842AF
:1050000002D0084B984201D10B690363012343612D
:1050100010BD0000000001400004004000080040F6
:10502000000C0040000401400040014000440140E9
:105030000048014000180040001C004000200040D3
:1050400030B50C46816821F47F4142EA03252543AF
:105050002943816030BD0A46816821F0700142F029
:10506000070319438160704730B50B461446026A46
:10507000056A25F001050562816921F0F00141EA28
:10508000041122F00A021A438161026230BD30B578
:105090000B461446056A25F0100505628169026A0F
:1050A00021F4704141EA043122F0A00242EA0312E5
:1050B0008161026230BD70B506460025B46B206880
:1050C0004069C0F3C01594F83D00212805D125B1F1
:1050D0000020E084204600F0B4F820684069C0F366
:1050E000801594F83E00222805D125B10020E085E6
:1050F000204600F070F8206C40F01000206420463C
:10510000FEF791FE70BD70B50546AC6B286800686F
:1051100000F48070002842D1E08500BF00BF216804
:105120000C3151E8001F21F4807021680C3141E8F6
:105130000002002AF3D100BF00BF00BF2168143174
:1051400051E8001F21F001002168143141E80002FC
:10515000002AF3D100BF00BF00BF2168143151E81D
:10516000001F21F040002168143141E80002002AAC
:10517000F3D100BF202084F83E00206B01280ED11F
:1051800000BF00BF21680C3151E8001F21F0100062
:1051900021680C3141E80002002AF3D100BF206BE6
:1051A000012804D1A18D2046FEF7F7FD02E020463C
:1051B000FFF73BF870BD70B50546AC6B206B01285E
:1051C00005D1A08D41082046FEF7E7FD02E020460C
:1051D000FFF72CF870BD00BF00BF02680C3252E828
:1051E000002F22F4907102680C3242E80013002B69
:1051F000F3D100BF00BF00BF0268143252E8002F95
:1052000022F001010268143242E80013002BF3D1AE
:1052100000BF016B01290ED100BF00BF02680C3234
:1052200052E8002F22F0100102680C3242E800130D
:10523000002BF3D100BF202180F83E100021016334
:10524000704700BF00BF02680C3252E8002F22F006
:10525000C00102680C3242E80013002BF3D100BFFA
:10526000202180F83D1070472DE9F84F0446206852
:10527000006920F44050E168084321680861216911
:10528000A068084361690843E16908430090206809
:10529000C06849F20C618843009908432168C860DE
:1052A0002068406920F44070A16908432168486182
:1052B00076492068884203D075492068884203D126
:1052C000FDF7AEFF814602E0FDF79AFF8146E069F7
:1052D000B0F5004F6CD102206168A0FB015003467D
:1052E0001920A9FB007001462A463846FAF7DCFF70
:1052F0006421B0FBF1F04FEA001A02206168A0FBC4
:1053000001510B461920A9FB00712A463846FAF7CD
:10531000CBFF834602206168A0FB015003461920A1
:10532000A9FB00712A463846FAF7BEFF6421B0FB9C
:10533000F1F000EBC00101EB0010ABEB800032217B
:1053400001EBC0006421B0FBF1F000F0F8000AEBC3
:10535000400A02206168A0FB015003461920A9FB06
:10536000007001462A463846FAF79EFF834602201F
:105370006168A0FB015003461920A9FB00712A4671
:105380003846FAF791FF6421B0FBF1F000EBC00161
:1053900001EB0010ABEB8000322101EBC000642177
:1053A000B0FBF1F000F007005044216888606AE02B
:1053B00004206168A0FB015003461920A9FB00707E
:1053C00001462A463846FAF76FFF82460420616894
:1053D000A0FB015003461920A9FB007001462A4694
:1053E0003846FAF761FF6421B0FBF1F000EBC00131
:1053F00001EB0010AAEB8000322101EB00106421C8
:10540000B0FBF1F000F0F00A04206168A0FB01702D
:1054100003461920A9FB00513A462846FAF744FFF3
:105420006421B0FBF1F00AEB001A04206168A0FBD4
:1054300001510B461920A9FB00712A463846FAF79C
:1054400033FF834604206168A0FB01500346192006
:10545000A9FB007001462A463846FAF725FF642169
:10546000B0FBF1F000EBC00101EB0010ABEB8000F2
:10547000322101EB00106421B0FBF1F000F00F00CD
:10548000504421688860BDE8F88F0000001001409A
:105490000014014077B581B0044615460298A06219
:1054A000A58500202064222084F83E002948A16BB5
:1054B000C8632948A16B08642848A16BC864002010
:1054C000A16B086502AE32682368191D2B46A06BDC
:1054D000FDF7B0FB00BF002000902068006800903E
:1054E00020684068009000BF00BF00BF002084F823
:1054F0003C0000BF00BF00BF21680C3151E8001F15
:1055000041F4807021680C3141E80002002AF3D197
:1055100000BF00BF00BF2168143151E8001F41F0F7
:1055200001002168143141E80002002AF3D100BFD4
:1055300000BF00BF2168143151E8001F41F0400056
:105540002168143141E80002002AF3D100BF002095
:1055500004B070BD07510008B7510008B7500008EB
:105560002DE9F04104460D4617469846069E34E064
:10557000701C88B32EB1FDF79FFCA0EB0800B04271
:105580002BD900BF00BF21680C3151E8001F21F466
:10559000D07021680C3141E80002002AF3D100BF2D
:1055A00000BF00BF2168143151E8001F21F0010045
:1055B0002168143141E80002002AF3D100BF202005
:1055C00084F83D0084F83E0000BF002084F83C00D1
:1055D00000BF0320BDE8F081FFE720680068284095
:1055E000A84201D1012000E00020B842C0D0002034
:1055F000F0E7000010B586B004469FEDA40AA44869
:1056000080ED000A4FF487704FF4207102220323CB
:10561000CDE90132CDE90310142000909D4890EDB2
:10562000000AB8EEC00A01231A4602219AA000F02F
:1056300031FA4FF487704FF4A06102220323CDE9C1
:1056400001320092CDE90310914890ED000A012348
:105650001A46022191A000F01DFA4FF4347040F276
:10566000645102220123CDE90132CDE903101C204F
:1056700000908B4890ED000AB8EEC00A1A4602214D
:1056800088A000F007FA4FF4877040F264510222BC
:105690000323CDE90132CDE90310142000908248A4
:1056A000D0F8030000EE100A01231A4619467DA027
:1056B00000F0F0F94FF4AA7040F2F23140F28E336C
:1056C000CDE90130CDE90310012003460246014631
:1056D000009076A000F080FA4FF4B97040F2E23109
:1056E00040F29E33CDE90130CDE90310012003469D
:1056F0000246014600906EA000F06EFA4FF4C870AA
:105700004FF47A714FF46673CDE90130CDE903109F
:105710000120034602460146009066A000F05CFAB4
:105720004FF4D77040F2DE3140F2A233CDE90130C0
:10573000CDE90310012003460246014600905EA019
:1057400000F04AFA4FF4E67040F2DB3140F2A53344
:10575000CDE90130CDE903100120034602460146A0
:10576000009056A000F038FA4FF4AA704FF4707110
:1057700040F21222CDE90112CDE9031001200346C7
:105780000246014600904EA000F026FA4FF4AA709F
:1057900040F2F23140F28E33CDE90130CDE9031011
:1057A0000120034602460221009040A000F014FAB6
:1057B0004FF4AA7040F2F23140F28E33CDE901305D
:1057C000CDE903100120034602460221009037A0D4
:1057D00000F002FA4FF4B97040F2E23140F29E3329
:1057E000CDE90130CDE90310012003460246022134
:1057F00000902FA000F0F0F94FF4C8704FF47A71C8
:105800004FF46673CDE90130CDE903100120034662
:1058100002460221009027A000F0DEF94FF4D77075
:1058200040F2DE3140F2A233CDE90130CDE9031080
:10583000012003460246022100901FA000F0CCF98F
:105840004FF4E67040F2DB3140F2A533CDE9013090
:10585000CDE903100120034602460221009017A063
:1058600000F0BAF94FF4AA704FF4707140F21222AE
:10587000CDE90112CDE903100120034602460221C1
:1058800000900FA000F0A8F906B010BDA4709D3FD5
:10589000BC0100208C01002030393000303931004B
:1058A000C001002030393200E700002030383000DD
:1058B000303831003038320030383300303835007D
:1058C0003038340000B585B09FED640A644880ED3F
:1058D000000A4FF487704FF4A06102220323CDE940
:1058E00001320092CDE903105D4890ED000A0123DA
:1058F0001A4619465BA000F0CDF84FF4347040F220
:10590000645102220123CDE90132CDE903101C20AC
:105910000090554890ED000AB8EEC00A1A461946A4
:1059200052A000F0B7F84FF487704FF420710222B4
:105930000323CDE90132CDE90310142000904C4837
:1059400090ED000AB8EEC00A01231A46194649A094
:1059500000F0A0F84FF487704FF4A06102220323F7
:10596000CDE90132CDE9031014200090424890EDBA
:10597000000A01231A4619463AA000F08BF84FF4AA
:10598000AA7040F2F23140F28E33CDE90130CDE918
:1059900003100120034602460146009037A000F0A4
:1059A0001BF94FF4B97040F2E23140F29E33CDE979
:1059B0000130CDE903100120034602460146009064
:1059C0002FA000F009F94FF4C8704FF47A714FF42A
:1059D0006673CDE90130CDE903100120034602468C
:1059E0000146009027A000F0F7F84FF4D77040F27E
:1059F000DE3140F2A233CDE90130CDE903100120C0
:105A000003460246014600901FA000F0E5F84FF45F
:105A1000E67040F2DB3140F2A533CDE90130CDE94B
:105A200003100120034602460146009017A000F033
:105A3000D3F84FF4AA704FF4707140F21222CDE9FE
:105A40000112CDE9031001200346024601460090F1
:105A50000FA000F0C1F805B000BD0000A4709D3F8C
:105A6000BC01002030393100C00100203039320043
:105A70008C0100203039300098010020303830008F
:105A800030383100303832003038330030383500AB
:105A9000303834002DE9F05F2DED028B04460D46C1
:105AA00016461F46B0EE408ADDE90EABDDE90C89F3
:105AB00040F20110444908804449454802F00AFB7D
:105AC00043480088404948804048008888802078C2
:105AD000887161783C48C171A1780172407A65F3A0
